{
	"data": {
		"bytecode": {
			"linkReferences": {},
			"object": "60c060405234801562000010575f80fd5b506040516200397a3803806200397a833981016040819052620000339162000269565b83836012848481818181620000483362000138565b620000538162000138565b6001600160a01b03828116608081905260405163ca5eb5e160e01b815291831660048301529063ca5eb5e1906024015f604051808303815f87803b1580156200009a575f80fd5b505af1158015620000ad573d5f803e3d5ffd5b5050505050505050620000c56200018760201b60201c565b60ff168360ff161015620000ec576040516301e9714b60e41b815260040160405180910390fd5b620000f960068462000307565b6200010690600a62000422565b60a05250600891506200011c90508382620004c3565b5060096200012b8282620004c3565b505050505050506200058f565b5f80546001600160a01b038381166001600160a01b0319831681178455604051919092169283917f8be0079c531659141344cd1fd0a4f28419497f9722a3daafe3b4186f6b6457e09190a35050565b600690565b634e487b7160e01b5f52604160045260245ffd5b5f82601f830112620001b0575f80fd5b81516001600160401b0380821115620001cd57620001cd6200018c565b604051601f8301601f19908116603f01168101908282118183101715620001f857620001f86200018c565b816040528381526020925086602085880101111562000215575f80fd5b5f91505b8382101562000238578582018301518183018401529082019062000219565b5f602085830101528094505050505092915050565b80516001600160a01b038116811462000264575f80fd5b919050565b5f805f80608085870312156200027d575f80fd5b84516001600160401b038082111562000294575f80fd5b620002a288838901620001a0565b95506020870151915080821115620002b8575f80fd5b50620002c787828801620001a0565b935050620002d8604086016200024d565b9150620002e8606086016200024d565b905092959194509250565b634e487b7160e01b5f52601160045260245ffd5b60ff8281168282160390811115620003235762000323620002f3565b92915050565b600181815b808511156200036957815f19048211156200034d576200034d620002f3565b808516156200035b57918102915b93841c93908002906200032e565b509250929050565b5f82620003815750600162000323565b816200038f57505f62000323565b8160018114620003a85760028114620003b357620003d3565b600191505062000323565b60ff841115620003c757620003c7620002f3565b50506001821b62000323565b5060208310610133831016604e8410600b8410161715620003f8575081810a62000323565b62000404838362000329565b805f19048211156200041a576200041a620002f3565b029392505050565b5f6200043260ff84168362000371565b9392505050565b600181811c908216806200044e57607f821691505b6020821081036200046d57634e487b7160e01b5f52602260045260245ffd5b50919050565b601f821115620004be57805f5260205f20601f840160051c810160208510156200049a5750805b601f840160051c820191505b81811015620004bb575f8155600101620004a6565b50505b505050565b81516001600160401b03811115620004df57620004df6200018c565b620004f781620004f0845462000439565b8462000473565b602080601f8311600181146200052d575f8415620005155750858301515b5f19600386901b1c1916600185901b17855562000587565b5f85815260208120601f198616915b828110156200055d578886015182559484019460019091019084016200053c565b50858210156200057b57878501515f19600388901b60f8161c191681555b505060018460011b0185555b505050505050565b60805160a051613383620005f75f395f81816105c301528181611d2d01528181611ded0152611e2601525f81816104ad015281816108450152818161120d015281816115b701528181611a5701528181611b8401528181611f3d0152611ff401526133835ff3fe608060405260043610610249575f3560e01c8063715018a611610134578063bb0b6a53116100b3578063d045a0dc11610078578063d045a0dc1461070b578063d42438851461071e578063dd62ed3e1461073d578063f2fde38b1461075c578063fc0c546a14610436578063ff7bd03d1461077b575f80fd5b8063bb0b6a5314610661578063bc70b3541461068c578063bd815db0146106ab578063c1e36500146106be578063ca5eb5e1146106ec575f80fd5b8063963efcaa116100f9578063963efcaa146105b2578063a457c2d7146105e5578063a9059cbb14610604578063b731ea0a14610623578063b98bd07014610642575f80fd5b8063715018a6146105225780637d25a05e14610536578063857749b01461056f5780638da5cb5b1461058257806395d89b411461059e575f80fd5b8063313ce567116101cb57806352ae28791161019057806352ae2879146104365780635535d461146104485780635a0dfe4d146104675780635e280f111461049c5780636fc1b31e146104cf57806370a08231146104ee575f80fd5b8063313ce5671461038a5780633400288b146103ab57806339509351146103ca57806346a40f75146103e957806349e4601714610415575f80fd5b8063156a0d0f11610211578063156a0d0f1461031957806317442b701461031957806318160ddd146103395780631f5e13341461035757806323b872dd1461036b575f80fd5b806306fdde031461024d578063095ea7b314610277578063111ecdad146102a657806313137d65146102dd578063134d4f25146102f2575b5f80fd5b348015610258575f80fd5b5061026161079a565b60405161026e91906124c1565b60405180910390f35b348015610282575f80fd5b506102966102913660046124f7565b61082a565b604051901515815260200161026e565b3480156102b1575f80fd5b506004546102c5906001600160a01b031681565b6040516001600160a01b03909116815260200161026e565b6102f06102eb366004612574565b610843565b005b3480156102fd575f80fd5b50610306600281565b60405161ffff909116815260200161026e565b348015610324575f80fd5b5060408051600180825260208201520161026e565b348015610344575f80fd5b506007545b60405190815260200161026e565b348015610362575f80fd5b50610306600181565b348015610376575f80fd5b5061029661038536600461260c565b610903565b348015610395575f80fd5b5060125b60405160ff909116815260200161026e565b3480156103b6575f80fd5b506102f06103c536600461265d565b610928565b3480156103d5575f80fd5b506102966103e43660046124f7565b610985565b3480156103f4575f80fd5b50610408610403366004612694565b6109a6565b60405161026e919061274c565b610428610423366004612763565b610a19565b60405161026e92919061283c565b348015610441575f80fd5b50306102c5565b348015610453575f80fd5b5061026161046236600461289e565b610b16565b348015610472575f80fd5b5061029661048136600461265d565b63ffffffff919091165f908152600160205260409020541490565b3480156104a7575f80fd5b506102c57f000000000000000000000000000000000000000000000000000000000000000081565b3480156104da575f80fd5b506102f06104e93660046128cf565b610bb8565b3480156104f9575f80fd5b506103496105083660046128cf565b6001600160a01b03165f9081526005602052604090205490565b34801561052d575f80fd5b506102f0610c15565b348015610541575f80fd5b5061055761055036600461265d565b5f92915050565b6040516001600160401b03909116815260200161026e565b34801561057a575f80fd5b506006610399565b34801561058d575f80fd5b505f546001600160a01b03166102c5565b3480156105a9575f80fd5b50610261610c28565b3480156105bd575f80fd5b506103497f000000000000000000000000000000000000000000000000000000000000000081565b3480156105f0575f80fd5b506102966105ff3660046124f7565b610c37565b34801561060f575f80fd5b5061029661061e3660046124f7565b610cbc565b34801561062e575f80fd5b506002546102c5906001600160a01b031681565b34801561064d575f80fd5b506102f061065c36600461292a565b610cc9565b34801561066c575f80fd5b5061034961067b36600461295c565b60016020525f908152604090205481565b348015610697575f80fd5b506102616106a6366004612975565b610e25565b6102f06106b936600461292a565b610f9a565b3480156106c9575f80fd5b506106dd6106d83660046129d1565b61111a565b60405161026e93929190612a20565b3480156106f7575f80fd5b506102f06107063660046128cf565b6111e6565b6102f0610719366004612574565b611267565b348015610729575f80fd5b506102f06107383660046128cf565b611296565b348015610748575f80fd5b50610349610757366004612ab7565b6112ec565b348015610767575f80fd5b506102f06107763660046128cf565b611316565b348015610786575f80fd5b50610296610795366004612aee565b61138f565b6060600880546107a990612b08565b80601f01602080910402602001604051908101604052809291908181526020018280546107d590612b08565b80156108205780601f106107f757610100808354040283529160200191610820565b820191905f5260205f20905b81548152906001019060200180831161080357829003601f168201915b5050505050905090565b5f336108378185856113c3565b60019150505b92915050565b7f00000000000000000000000000000000000000000000000000000000000000006001600160a01b03163314610893576040516391ac5e4f60e01b81523360048201526024015b60405180910390fd5b602087018035906108ad906108a8908a61295c565b6114e6565b146108eb576108bf602088018861295c565b60405163309afaf360e21b815263ffffffff90911660048201526020880135602482015260440161088a565b6108fa87878787878787611521565b50505050505050565b5f33610910858285611673565b61091b8585856116eb565b60019150505b9392505050565b610930611894565b63ffffffff82165f81815260016020908152604091829020849055815192835282018390527f238399d427b947898edb290f5ff0f9109849b1c3ba196a42e35f00c50a54b98b91015b60405180910390a15050565b5f3361083781858561099783836112ec565b6109a19190612b4e565b6113c3565b604080518082019091525f80825260208201525f6109d960408b013560608c01356109d460208e018e61295c565b6118ed565b9150505f806109ec8c8c8c8b8b88611930565b9092509050610a09610a0160208e018e61295c565b83838c611a42565b9c9b505050505050505050505050565b610a21612431565b604080518082019091525f80825260208201525f80610a5a8d604001358e606001358f5f016020810190610a55919061295c565b611b20565b915091505f80610a6e8f8f8f8d8d88611930565b91509150610aa08f5f016020810190610a87919061295c565b83838f803603810190610a9a9190612b9d565b8f611b53565b95506040518060400160405280858152602001848152509450336001600160a01b0316865f01517fee6b77e8cd280835aecc97812d736c35faad222d91b12de19c7ed912e9aed71b86868e8e604051610afc9493929190612bf5565b60405180910390a350505050995099975050505050505050565b600360209081525f928352604080842090915290825290208054610b3990612b08565b80601f0160208091040260200160405190810160405280929190818152602001828054610b6590612b08565b8015610bb05780601f10610b8757610100808354040283529160200191610bb0565b820191905f5260205f20905b815481529060010190602001808311610b9357829003601f168201915b505050505081565b610bc0611894565b600480546001600160a01b0319166001600160a01b0383169081179091556040519081527ff0be4f1e87349231d80c36b33f9e8639658eeaf474014dee15a3e6a4d4414197906020015b60405180910390a150565b610c1d611894565b610c265f611c59565b565b6060600980546107a990612b08565b5f3381610c4482866112ec565b905083811015610ca45760405162461bcd60e51b815260206004820152602560248201527f45524332303a2064656372656173656420616c6c6f77616e63652062656c6f77604482015264207a65726f60d81b606482015260840161088a565b610cb182868684036113c3565b506001949350505050565b5f336108378185856116eb565b610cd1611894565b5f5b81811015610df357610d15838383818110610cf057610cf0612c1e565b9050602002810190610d029190612c32565b610d10906040810190612c50565b611ca8565b828282818110610d2757610d27612c1e565b9050602002810190610d399190612c32565b610d47906040810190612c50565b60035f868686818110610d5c57610d5c612c1e565b9050602002810190610d6e9190612c32565b610d7c90602081019061295c565b63ffffffff1663ffffffff1681526020019081526020015f205f868686818110610da857610da8612c1e565b9050602002810190610dba9190612c32565b610dcb906040810190602001612c92565b61ffff16815260208101919091526040015f2091610dea919083612cef565b50600101610cd3565b507fbe4864a8e820971c0247f5992e2da559595f7bf076a21cb5928d443d2a13b6748282604051610979929190612da8565b63ffffffff84165f90815260036020908152604080832061ffff87168452909152812080546060929190610e5890612b08565b80601f0160208091040260200160405190810160405280929190818152602001828054610e8490612b08565b8015610ecf5780601f10610ea657610100808354040283529160200191610ecf565b820191905f5260205f20905b815481529060010190602001808311610eb257829003601f168201915b5050505050905080515f03610f1d5783838080601f0160208091040260200160405190810160405280939291908181526020018383808284375f92019190915250929450610f929350505050565b5f839003610f2c579050610f92565b60028310610f7557610f3e8484611ca8565b80610f4c8460028188612e87565b604051602001610f5e93929190612eae565b604051602081830303815290604052915050610f92565b8383604051639a6d49cd60e01b815260040161088a929190612ed4565b949350505050565b5f5b8181101561109d5736838383818110610fb757610fb7612c1e565b9050602002810190610fc99190612ee7565b9050610ffb610fdb602083018361295c565b602083013563ffffffff919091165f908152600160205260409020541490565b6110055750611095565b3063d045a0dc60c08301358360a0810135611024610100830183612c50565b611035610100890160e08a016128cf565b6110436101208a018a612c50565b6040518963ffffffff1660e01b81526004016110659796959493929190612f10565b5f604051808303818588803b15801561107c575f80fd5b505af115801561108e573d5f803e3d5ffd5b5050505050505b600101610f9c565b50336001600160a01b0316638e9e70996040518163ffffffff1660e01b81526004015f60405180830381865afa1580156110d9573d5f803e3d5ffd5b505050506040513d5f823e601f3d908101601f191682016040526111009190810190612f95565b604051638351eea760e01b815260040161088a91906124c1565b604080518082019091525f8082526020820152606061114a60405180604001604052805f81526020015f81525090565b6040805180820182525f8082526001600160401b036020808401829052845183815290810190945291955091826111a3565b604080518082019091525f81526060602082015281526020019060019003908161117c5790505b5093505f806111c260408b013560608c01356109d460208e018e61295c565b604080518082019091529182526020820152969a9599509597509395505050505050565b6111ee611894565b60405163ca5eb5e160e01b81526001600160a01b0382811660048301527f0000000000000000000000000000000000000000000000000000000000000000169063ca5eb5e1906024015f604051808303815f87803b15801561124e575f80fd5b505af1158015611260573d5f803e3d5ffd5b5050505050565b3330146112875760405163029a949d60e31b815260040160405180910390fd5b6108fa878787878787876108eb565b61129e611894565b600280546001600160a01b0319166001600160a01b0383169081179091556040519081527fd48d879cef83a1c0bdda516f27b13ddb1b3f8bbac1c9e1511bb2a659c242776090602001610c0a565b6001600160a01b039182165f90815260066020908152604080832093909416825291909152205490565b61131e611894565b6001600160a01b0381166113835760405162461bcd60e51b815260206004820152602660248201527f4f776e61626c653a206e6577206f776e657220697320746865207a65726f206160448201526564647265737360d01b606482015260840161088a565b61138c81611c59565b50565b5f6020820180359060019083906113a6908661295c565b63ffffffff16815260208101919091526040015f20541492915050565b6001600160a01b0383166114255760405162461bcd60e51b8152602060048201526024808201527f45524332303a20617070726f76652066726f6d20746865207a65726f206164646044820152637265737360e01b606482015260840161088a565b6001600160a01b0382166114865760405162461bcd60e51b815260206004820152602260248201527f45524332303a20617070726f766520746f20746865207a65726f206164647265604482015261737360f01b606482015260840161088a565b6001600160a01b038381165f8181526006602090815260408083209487168084529482529182902085905590518481527f8c5be1e5ebec7d5bd14f71427d1e84f3dd0314c0f7b2291e5b200ac8c7c3b925910160405180910390a3505050565b63ffffffff81165f908152600160205260408120548061083d5760405163f6ff4fb760e01b815263ffffffff8416600482015260240161088a565b5f61153261152f8787611cee565b90565b90505f6115476115428888611d05565b611d27565b90505f611561838361155c60208e018e61295c565b611d5b565b90506028871115611621575f61159d61158060608d0160408e01613031565b61158d60208e018e61295c565b846115988d8d611d6e565b611db8565b604051633e5ac80960e11b81529091506001600160a01b037f00000000000000000000000000000000000000000000000000000000000000001690637cb59012906115f29087908e905f90879060040161304c565b5f604051808303815f87803b158015611609575f80fd5b505af115801561161b573d5f803e3d5ffd5b50505050505b60408051838152602081018390526001600160a01b038516918b917f80a66cf84dc0b742c17c4672ee6687d7cb340ab0e5d367ac6b02bed1a6489f8d910160405180910390a350505050505050505050565b5f61167e84846112ec565b90505f1981146116e557818110156116d85760405162461bcd60e51b815260206004820152601d60248201527f45524332303a20696e73756666696369656e7420616c6c6f77616e6365000000604482015260640161088a565b6116e584848484036113c3565b50505050565b6001600160a01b03831661174f5760405162461bcd60e51b815260206004820152602560248201527f45524332303a207472616e736665722066726f6d20746865207a65726f206164604482015264647265737360d81b606482015260840161088a565b6001600160a01b0382166117b15760405162461bcd60e51b815260206004820152602360248201527f45524332303a207472616e7366657220746f20746865207a65726f206164647260448201526265737360e81b606482015260840161088a565b6001600160a01b0383165f90815260056020526040902054818110156118285760405162461bcd60e51b815260206004820152602660248201527f45524332303a207472616e7366657220616d6f756e7420657863656564732062604482015265616c616e636560d01b606482015260840161088a565b6001600160a01b038085165f8181526005602052604080822086860390559286168082529083902080548601905591517fddf252ad1be2c89b69c2b068fc378daa952ba7f163c4a11628f55a4df523b3ef906118879086815260200190565b60405180910390a36116e5565b5f546001600160a01b03163314610c265760405162461bcd60e51b815260206004820181905260248201527f4f776e61626c653a2063616c6c6572206973206e6f7420746865206f776e6572604482015260640161088a565b5f806118f885611dea565b915081905083811015611928576040516371c4efed60e01b8152600481018290526024810185905260440161088a565b935093915050565b6060805f611980896020013561194586611e20565b88888080601f0160208091040260200160405190810160405280939291908181526020018383808284375f92019190915250611e4b92505050565b90935090505f81611992576001611995565b60025b90506119af6119a760208c018c61295c565b828b8b610e25565b6004549093506001600160a01b031615611a35576004805460405163043a78eb60e01b81526001600160a01b039091169163043a78eb916119f491889188910161307c565b602060405180830381865afa158015611a0f573d5f803e3d5ffd5b505050506040513d601f19601f82011682018060405250810190611a3391906130a0565b505b5050965096945050505050565b604080518082019091525f80825260208201527f00000000000000000000000000000000000000000000000000000000000000006001600160a01b031663ddc28c586040518060a001604052808863ffffffff168152602001611aa4896114e6565b8152602001878152602001868152602001851515815250306040518363ffffffff1660e01b8152600401611ad99291906130bb565b6040805180830381865afa158015611af3573d5f803e3d5ffd5b505050506040513d601f19601f82011682018060405250810190611b179190613161565b95945050505050565b5f808415611b3d57611b33858585611ec5565b9092509050611928565b611b478484611ee1565b90969095509350505050565b611b5b612431565b5f611b68845f0151611f13565b602085015190915015611b8257611b828460200151611f3a565b7f00000000000000000000000000000000000000000000000000000000000000006001600160a01b0316632637a450826040518060a001604052808b63ffffffff168152602001611bd28c6114e6565b81526020018a81526020018981526020015f8960200151111515815250866040518463ffffffff1660e01b8152600401611c0d9291906130bb565b60806040518083038185885af1158015611c29573d5f803e3d5ffd5b50505050506040513d601f19601f82011682018060405250810190611c4e919061317b565b979650505050505050565b5f80546001600160a01b038381166001600160a01b0319831681178455604051919092169283917f8be0079c531659141344cd1fd0a4f28419497f9722a3daafe3b4186f6b6457e09190a35050565b5f611cb66002828486612e87565b611cbf916131e0565b60f01c905060038114611ce9578282604051639a6d49cd60e01b815260040161088a929190612ed4565b505050565b5f611cfc6020828486612e87565b61092191613210565b5f611d14602860208486612e87565b611d1d9161322d565b60c01c9392505050565b5f61083d7f00000000000000000000000000000000000000000000000000000000000000006001600160401b03841661325b565b5f611d66848461201d565b509092915050565b6060611d7d8260288186612e87565b8080601f0160208091040260200160405190810160405280939291908181526020018383808284375f92019190915250929695505050505050565b606084848484604051602001611dd19493929190613272565b6040516020818303038152906040529050949350505050565b5f7f0000000000000000000000000000000000000000000000000000000000000000611e1681846132c0565b61083d919061325b565b5f61083d7f0000000000000000000000000000000000000000000000000000000000000000836132c0565b8051606090151580611e94578484604051602001611e8092919091825260c01b6001600160c01b031916602082015260280190565b604051602081830303815290604052611ebb565b84843385604051602001611eab94939291906132df565b6040516020818303038152906040525b9150935093915050565b5f80611ed28585856118ed565b909250905061192833836120dc565b305f908152600560205260408120548190611efd9085856118ed565b9092509050611f0c30836120dc565b9250929050565b5f813414611f36576040516304fb820960e51b815234600482015260240161088a565b5090565b5f7f00000000000000000000000000000000000000000000000000000000000000006001600160a01b031663e4fe1d946040518163ffffffff1660e01b8152600401602060405180830381865afa158015611f97573d5f803e3d5ffd5b505050506040513d601f19601f82011682018060405250810190611fbb9190613321565b90506001600160a01b038116611fe4576040516329b99a9560e11b815260040160405180910390fd5b6120196001600160a01b038216337f00000000000000000000000000000000000000000000000000000000000000008561220e565b5050565b6001600160a01b0382166120735760405162461bcd60e51b815260206004820152601f60248201527f45524332303a206d696e7420746f20746865207a65726f206164647265737300604482015260640161088a565b8060075f8282546120849190612b4e565b90915550506001600160a01b0382165f818152600560209081526040808320805486019055518481527fddf252ad1be2c89b69c2b068fc378daa952ba7f163c4a11628f55a4df523b3ef910160405180910390a35050565b6001600160a01b03821661213c5760405162461bcd60e51b815260206004820152602160248201527f45524332303a206275726e2066726f6d20746865207a65726f206164647265736044820152607360f81b606482015260840161088a565b6001600160a01b0382165f90815260056020526040902054818110156121af5760405162461bcd60e51b815260206004820152602260248201527f45524332303a206275726e20616d6f756e7420657863656564732062616c616e604482015261636560f01b606482015260840161088a565b6001600160a01b0383165f8181526005602090815260408083208686039055600780548790039055518581529192917fddf252ad1be2c89b69c2b068fc378daa952ba7f163c4a11628f55a4df523b3ef910160405180910390a3505050565b604080516001600160a01b038581166024830152848116604483015260648083018590528351808403909101815260849092018352602080830180516001600160e01b03166323b872dd60e01b17905283518085019094528084527f5361666545524332303a206c6f772d6c6576656c2063616c6c206661696c6564908401526116e5928792915f916122a5918516908490612324565b905080515f14806122c55750808060200190518101906122c591906130a0565b611ce95760405162461bcd60e51b815260206004820152602a60248201527f5361666545524332303a204552433230206f7065726174696f6e20646964206e6044820152691bdd081cdd58d8d9595960b21b606482015260840161088a565b6060610f9284845f85855f80866001600160a01b03168587604051612349919061333c565b5f6040518083038185875af1925050503d805f8114612383576040519150601f19603f3d011682016040523d82523d5f602084013e612388565b606091505b5091509150611c4e87838387606083156124025782515f036123fb576001600160a01b0385163b6123fb5760405162461bcd60e51b815260206004820152601d60248201527f416464726573733a2063616c6c20746f206e6f6e2d636f6e7472616374000000604482015260640161088a565b5081610f92565b610f9283838151156124175781518083602001fd5b8060405162461bcd60e51b815260040161088a91906124c1565b60405180606001604052805f80191681526020015f6001600160401b0316815260200161246f60405180604001604052805f81526020015f81525090565b905290565b5f5b8381101561248e578181015183820152602001612476565b50505f910152565b5f81518084526124ad816020860160208601612474565b601f01601f19169290920160200192915050565b602081525f6109216020830184612496565b6001600160a01b038116811461138c575f80fd5b80356124f2816124d3565b919050565b5f8060408385031215612508575f80fd5b8235612513816124d3565b946020939093013593505050565b5f60608284031215612531575f80fd5b50919050565b5f8083601f840112612547575f80fd5b5081356001600160401b0381111561255d575f80fd5b602083019150836020828501011115611f0c575f80fd5b5f805f805f805f60e0888a03121561258a575f80fd5b6125948989612521565b96506060880135955060808801356001600160401b03808211156125b6575f80fd5b6125c28b838c01612537565b909750955060a08a013591506125d7826124d3565b90935060c089013590808211156125ec575f80fd5b506125f98a828b01612537565b989b979a50959850939692959293505050565b5f805f6060848603121561261e575f80fd5b8335612629816124d3565b92506020840135612639816124d3565b929592945050506040919091013590565b803563ffffffff811681146124f2575f80fd5b5f806040838503121561266e575f80fd5b6125138361264a565b5f60808284031215612531575f80fd5b801515811461138c575f80fd5b5f805f805f805f80610100898b0312156126ac575f80fd5b6126b68a8a612677565b975060808901356001600160401b03808211156126d1575f80fd5b6126dd8c838d01612537565b909950975060a08b013591506126f282612687565b90955060c08a01359080821115612707575f80fd5b6127138c838d01612537565b909650945060e08b013591508082111561272b575f80fd5b506127388b828c01612537565b999c989b5096995094979396929594505050565b81518152602080830151908201526040810161083d565b5f805f805f805f805f898b0361014081121561277d575f80fd5b6127878c8c612677565b995060808b01356001600160401b03808211156127a2575f80fd5b6127ae8e838f01612537565b909b5099508991506040609f19840112156127c7575f80fd5b60a08d0198506127d960e08e016124e7565b97506101008d01359250808311156127ef575f80fd5b6127fb8e848f01612537565b90975095506101208d0135925086915080831115612817575f80fd5b50506128258c828d01612537565b915080935050809150509295985092959850929598565b5f60c082019050835182526001600160401b0360208501511660208301526040840151612876604084018280518252602090810151910152565b5082516080830152602083015160a0830152610921565b803561ffff811681146124f2575f80fd5b5f80604083850312156128af575f80fd5b6128b88361264a565b91506128c66020840161288d565b90509250929050565b5f602082840312156128df575f80fd5b8135610921816124d3565b5f8083601f8401126128fa575f80fd5b5081356001600160401b03811115612910575f80fd5b6020830191508360208260051b8501011115611f0c575f80fd5b5f806020838503121561293b575f80fd5b82356001600160401b03811115612950575f80fd5b611b47858286016128ea565b5f6020828403121561296c575f80fd5b6109218261264a565b5f805f8060608587031215612988575f80fd5b6129918561264a565b935061299f6020860161288d565b925060408501356001600160401b038111156129b9575f80fd5b6129c587828801612537565b95989497509550505050565b5f805f60a084860312156129e3575f80fd5b6129ed8585612677565b925060808401356001600160401b03811115612a07575f80fd5b612a1386828701612537565b9497909650939450505050565b83518152602080850151908201525f60a08201604060a0604085015281865180845260c08601915060c08160051b870101935060208089015f5b83811015612a995788870360bf19018552815180518852830151838801879052612a8687890182612496565b9750509382019390820190600101612a5a565b50508751606088015250505060208501516080850152509050610f92565b5f8060408385031215612ac8575f80fd5b8235612ad3816124d3565b91506020830135612ae3816124d3565b809150509250929050565b5f60608284031215612afe575f80fd5b6109218383612521565b600181811c90821680612b1c57607f821691505b60208210810361253157634e487b7160e01b5f52602260045260245ffd5b634e487b7160e01b5f52601160045260245ffd5b8082018082111561083d5761083d612b3a565b634e487b7160e01b5f52604160045260245ffd5b604080519081016001600160401b0381118282101715612b9757612b97612b61565b60405290565b5f60408284031215612bad575f80fd5b612bb5612b75565b82358152602083013560208201528091505092915050565b81835281816020850137505f828201602090810191909152601f909101601f19169091010190565b848152836020820152606060408201525f612c14606083018486612bcd565b9695505050505050565b634e487b7160e01b5f52603260045260245ffd5b5f8235605e19833603018112612c46575f80fd5b9190910192915050565b5f808335601e19843603018112612c65575f80fd5b8301803591506001600160401b03821115612c7e575f80fd5b602001915036819003821315611f0c575f80fd5b5f60208284031215612ca2575f80fd5b6109218261288d565b601f821115611ce957805f5260205f20601f840160051c81016020851015612cd05750805b601f840160051c820191505b81811015611260575f8155600101612cdc565b6001600160401b03831115612d0657612d06612b61565b612d1a83612d148354612b08565b83612cab565b5f601f841160018114612d4b575f8515612d345750838201355b5f19600387901b1c1916600186901b178355611260565b5f83815260208120601f198716915b82811015612d7a5786850135825560209485019460019092019101612d5a565b5086821015612d96575f1960f88860031b161c19848701351681555b505060018560011b0183555050505050565b60208082528181018390525f906040808401600586901b8501820187855b88811015612e7957878303603f190184528135368b9003605e19018112612deb575f80fd5b8a01606063ffffffff612dfd8361264a565b16855261ffff612e0e89840161288d565b168886015286820135601e19833603018112612e28575f80fd5b9091018781019190356001600160401b03811115612e44575f80fd5b803603831315612e52575f80fd5b8188870152612e648287018285612bcd565b96890196955050509186019150600101612dc6565b509098975050505050505050565b5f8085851115612e95575f80fd5b83861115612ea1575f80fd5b5050820193919092039150565b5f8451612ebf818460208901612474565b8201838582375f930192835250909392505050565b602081525f610f92602083018486612bcd565b5f823561013e19833603018112612c46575f80fd5b6001600160401b038116811461138c575f80fd5b63ffffffff612f1e8961264a565b168152602088013560208201525f6040890135612f3a81612efc565b6001600160401b03811660408401525087606083015260e06080830152612f6560e083018789612bcd565b6001600160a01b03861660a084015282810360c0840152612f87818587612bcd565b9a9950505050505050505050565b5f60208284031215612fa5575f80fd5b81516001600160401b0380821115612fbb575f80fd5b818401915084601f830112612fce575f80fd5b815181811115612fe057612fe0612b61565b604051601f8201601f19908116603f0116810190838211818310171561300857613008612b61565b81604052828152876020848701011115613020575f80fd5b611c4e836020830160208801612474565b5f60208284031215613041575f80fd5b813561092181612efc565b60018060a01b038516815283602082015261ffff83166040820152608060608201525f612c146080830184612496565b604081525f61308e6040830185612496565b8281036020840152611b178185612496565b5f602082840312156130b0575f80fd5b815161092181612687565b6040815263ffffffff8351166040820152602083015160608201525f604084015160a060808401526130f060e0840182612496565b90506060850151603f198483030160a085015261310d8282612496565b60809690960151151560c08501525050506001600160a01b039190911660209091015290565b5f60408284031215613143575f80fd5b61314b612b75565b9050815181526020820151602082015292915050565b5f60408284031215613171575f80fd5b6109218383613133565b5f6080828403121561318b575f80fd5b604051606081018181106001600160401b03821117156131ad576131ad612b61565b6040528251815260208301516131c281612efc565b60208201526131d48460408501613133565b60408201529392505050565b6001600160f01b031981358181169160028510156132085780818660020360031b1b83161692505b505092915050565b8035602083101561083d575f19602084900360031b1b1692915050565b6001600160c01b031981358181169160088510156132085760089490940360031b84901b1690921692915050565b808202811582820484141761083d5761083d612b3a565b6001600160401b0360c01b8560c01b16815263ffffffff60e01b8460e01b16600882015282600c8201525f82516132b081602c850160208701612474565b91909101602c0195945050505050565b5f826132da57634e487b7160e01b5f52601260045260245ffd5b500490565b8481526001600160401b0360c01b8460c01b1660208201528260288201525f8251613311816048850160208701612474565b9190910160480195945050505050565b5f60208284031215613331575f80fd5b8151610921816124d3565b5f8251612c4681846020870161247456fea264697066735822122042123d38dcf7813e27cb497f3a67fa4cb25ca55311ea2aeacad0cc430908703264736f6c63430008160033",
			"opcodes": "PUSH1 0xC0 PUSH1 0x40 MSTORE CALLVALUE DUP1 ISZERO PUSH3 0x10 JUMPI PUSH0 DUP1 REVERT JUMPDEST POP PUSH1 0x40 MLOAD PUSH3 0x397A CODESIZE SUB DUP1 PUSH3 0x397A DUP4 CODECOPY DUP2 ADD PUSH1 0x40 DUP2 SWAP1 MSTORE PUSH3 0x33 SWAP2 PUSH3 0x269 JUMP JUMPDEST DUP4 DUP4 PUSH1 0x12 DUP5 DUP5 DUP2 DUP2 DUP2 DUP2 PUSH3 0x48 CALLER PUSH3 0x138 JUMP JUMPDEST PUSH3 0x53 DUP2 PUSH3 0x138 JUMP JUMPDEST PUSH1 0x1 PUSH1 0x1 PUSH1 0xA0 SHL SUB DUP3 DUP2 AND PUSH1 0x80 DUP2 SWAP1 MSTORE PUSH1 0x40 MLOAD PUSH4 0xCA5EB5E1 PUSH1 0xE0 SHL DUP2 MSTORE SWAP2 DUP4 AND PUSH1 0x4 DUP4 ADD MSTORE SWAP1 PUSH4 0xCA5EB5E1 SWAP1 PUSH1 0x24 ADD PUSH0 PUSH1 0x40 MLOAD DUP1 DUP4 SUB DUP2 PUSH0 DUP8 DUP1 EXTCODESIZE ISZERO DUP1 ISZERO PUSH3 0x9A JUMPI PUSH0 DUP1 REVERT JUMPDEST POP GAS CALL ISZERO DUP1 ISZERO PUSH3 0xAD JUMPI RETURNDATASIZE PUSH0 DUP1 RETURNDATACOPY RETURNDATASIZE PUSH0 REVERT JUMPDEST POP POP POP POP POP POP POP POP PUSH3 0xC5 PUSH3 0x187 PUSH1 0x20 SHL PUSH1 0x20 SHR JUMP JUMPDEST PUSH1 0xFF AND DUP4 PUSH1 0xFF AND LT ISZERO PUSH3 0xEC JUMPI PUSH1 0x40 MLOAD PUSH4 0x1E9714B PUSH1 0xE4 SHL DUP2 MSTORE PUSH1 0x4 ADD PUSH1 0x40 MLOAD DUP1 SWAP2 SUB SWAP1 REVERT JUMPDEST PUSH3 0xF9 PUSH1 0x6 DUP5 PUSH3 0x307 JUMP JUMPDEST PUSH3 0x106 SWAP1 PUSH1 0xA PUSH3 0x422 JUMP JUMPDEST PUSH1 0xA0 MSTORE POP PUSH1 0x8 SWAP2 POP PUSH3 0x11C SWAP1 POP DUP4 DUP3 PUSH3 0x4C3 JUMP JUMPDEST POP PUSH1 0x9 PUSH3 0x12B DUP3 DUP3 PUSH3 0x4C3 JUMP JUMPDEST POP POP POP POP POP POP POP PUSH3 0x58F JUMP JUMPDEST PUSH0 DUP1 SLOAD PUSH1 0x1 PUSH1 0x1 PUSH1 0xA0 SHL SUB DUP4 DUP2 AND PUSH1 0x1 PUSH1 0x1 PUSH1 0xA0 SHL SUB NOT DUP4 AND DUP2 OR DUP5 SSTORE PUSH1 0x40 MLOAD SWAP2 SWAP1 SWAP3 AND SWAP3 DUP4 SWAP2 PUSH32 0x8BE0079C531659141344CD1FD0A4F28419497F9722A3DAAFE3B4186F6B6457E0 SWAP2 SWAP1 LOG3 POP POP JUMP JUMPDEST PUSH1 0x6 SWAP1 JUMP JUMPDEST PUSH4 0x4E487B71 PUSH1 0xE0 SHL PUSH0 MSTORE PUSH1 0x41 PUSH1 0x4 MSTORE PUSH1 0x24 PUSH0 REVERT JUMPDEST PUSH0 DUP3 PUSH1 0x1F DUP4 ADD SLT PUSH3 0x1B0 JUMPI PUSH0 DUP1 REVERT JUMPDEST DUP2 MLOAD PUSH1 0x1 PUSH1 0x1 PUSH1 0x40 SHL SUB DUP1 DUP3 GT ISZERO PUSH3 0x1CD JUMPI PUSH3 0x1CD PUSH3 0x18C JUMP JUMPDEST PUSH1 0x40 MLOAD PUSH1 0x1F DUP4 ADD PUSH1 0x1F NOT SWAP1 DUP2 AND PUSH1 0x3F ADD AND DUP2 ADD SWAP1 DUP3 DUP3 GT DUP2 DUP4 LT OR ISZERO PUSH3 0x1F8 JUMPI PUSH3 0x1F8 PUSH3 0x18C JUMP JUMPDEST DUP2 PUSH1 0x40 MSTORE DUP4 DUP2 MSTORE PUSH1 0x20 SWAP3 POP DUP7 PUSH1 0x20 DUP6 DUP9 ADD ADD GT ISZERO PUSH3 0x215 JUMPI PUSH0 DUP1 REVERT JUMPDEST PUSH0 SWAP2 POP JUMPDEST DUP4 DUP3 LT ISZERO PUSH3 0x238 JUMPI DUP6 DUP3 ADD DUP4 ADD MLOAD DUP2 DUP4 ADD DUP5 ADD MSTORE SWAP1 DUP3 ADD SWAP1 PUSH3 0x219 JUMP JUMPDEST PUSH0 PUSH1 0x20 DUP6 DUP4 ADD ADD MSTORE DUP1 SWAP5 POP POP POP POP POP SWAP3 SWAP2 POP POP JUMP JUMPDEST DUP1 MLOAD PUSH1 0x1 PUSH1 0x1 PUSH1 0xA0 SHL SUB DUP2 AND DUP2 EQ PUSH3 0x264 JUMPI PUSH0 DUP1 REVERT JUMPDEST SWAP2 SWAP1 POP JUMP JUMPDEST PUSH0 DUP1 PUSH0 DUP1 PUSH1 0x80 DUP6 DUP8 SUB SLT ISZERO PUSH3 0x27D JUMPI PUSH0 DUP1 REVERT JUMPDEST DUP5 MLOAD PUSH1 0x1 PUSH1 0x1 PUSH1 0x40 SHL SUB DUP1 DUP3 GT ISZERO PUSH3 0x294 JUMPI PUSH0 DUP1 REVERT JUMPDEST PUSH3 0x2A2 DUP9 DUP4 DUP10 ADD PUSH3 0x1A0 JUMP JUMPDEST SWAP6 POP PUSH1 0x20 DUP8 ADD MLOAD SWAP2 POP DUP1 DUP3 GT ISZERO PUSH3 0x2B8 JUMPI PUSH0 DUP1 REVERT JUMPDEST POP PUSH3 0x2C7 DUP8 DUP3 DUP9 ADD PUSH3 0x1A0 JUMP JUMPDEST SWAP4 POP POP PUSH3 0x2D8 PUSH1 0x40 DUP7 ADD PUSH3 0x24D JUMP JUMPDEST SWAP2 POP PUSH3 0x2E8 PUSH1 0x60 DUP7 ADD PUSH3 0x24D JUMP JUMPDEST SWAP1 POP SWAP3 SWAP6 SWAP2 SWAP5 POP SWAP3 POP JUMP JUMPDEST PUSH4 0x4E487B71 PUSH1 0xE0 SHL PUSH0 MSTORE PUSH1 0x11 PUSH1 0x4 MSTORE PUSH1 0x24 PUSH0 REVERT JUMPDEST PUSH1 0xFF DUP3 DUP2 AND DUP3 DUP3 AND SUB SWAP1 DUP2 GT ISZERO PUSH3 0x323 JUMPI PUSH3 0x323 PUSH3 0x2F3 JUMP JUMPDEST SWAP3 SWAP2 POP POP JUMP JUMPDEST PUSH1 0x1 DUP2 DUP2 JUMPDEST DUP1 DUP6 GT ISZERO PUSH3 0x369 JUMPI DUP2 PUSH0 NOT DIV DUP3 GT ISZERO PUSH3 0x34D JUMPI PUSH3 0x34D PUSH3 0x2F3 JUMP JUMPDEST DUP1 DUP6 AND ISZERO PUSH3 0x35B JUMPI SWAP2 DUP2 MUL SWAP2 JUMPDEST SWAP4 DUP5 SHR SWAP4 SWAP1 DUP1 MUL SWAP1 PUSH3 0x32E JUMP JUMPDEST POP SWAP3 POP SWAP3 SWAP1 POP JUMP JUMPDEST PUSH0 DUP3 PUSH3 0x381 JUMPI POP PUSH1 0x1 PUSH3 0x323 JUMP JUMPDEST DUP2 PUSH3 0x38F JUMPI POP PUSH0 PUSH3 0x323 JUMP JUMPDEST DUP2 PUSH1 0x1 DUP2 EQ PUSH3 0x3A8 JUMPI PUSH1 0x2 DUP2 EQ PUSH3 0x3B3 JUMPI PUSH3 0x3D3 JUMP JUMPDEST PUSH1 0x1 SWAP2 POP POP PUSH3 0x323 JUMP JUMPDEST PUSH1 0xFF DUP5 GT ISZERO PUSH3 0x3C7 JUMPI PUSH3 0x3C7 PUSH3 0x2F3 JUMP JUMPDEST POP POP PUSH1 0x1 DUP3 SHL PUSH3 0x323 JUMP JUMPDEST POP PUSH1 0x20 DUP4 LT PUSH2 0x133 DUP4 LT AND PUSH1 0x4E DUP5 LT PUSH1 0xB DUP5 LT AND OR ISZERO PUSH3 0x3F8 JUMPI POP DUP2 DUP2 EXP PUSH3 0x323 JUMP JUMPDEST PUSH3 0x404 DUP4 DUP4 PUSH3 0x329 JUMP JUMPDEST DUP1 PUSH0 NOT DIV DUP3 GT ISZERO PUSH3 0x41A JUMPI PUSH3 0x41A PUSH3 0x2F3 JUMP JUMPDEST MUL SWAP4 SWAP3 POP POP POP JUMP JUMPDEST PUSH0 PUSH3 0x432 PUSH1 0xFF DUP5 AND DUP4 PUSH3 0x371 JUMP JUMPDEST SWAP4 SWAP3 POP POP POP JUMP JUMPDEST PUSH1 0x1 DUP2 DUP2 SHR SWAP1 DUP3 AND DUP1 PUSH3 0x44E JUMPI PUSH1 0x7F DUP3 AND SWAP2 POP JUMPDEST PUSH1 0x20 DUP3 LT DUP2 SUB PUSH3 0x46D JUMPI PUSH4 0x4E487B71 PUSH1 0xE0 SHL PUSH0 MSTORE PUSH1 0x22 PUSH1 0x4 MSTORE PUSH1 0x24 PUSH0 REVERT JUMPDEST POP SWAP2 SWAP1 POP JUMP JUMPDEST PUSH1 0x1F DUP3 GT ISZERO PUSH3 0x4BE JUMPI DUP1 PUSH0 MSTORE PUSH1 0x20 PUSH0 KECCAK256 PUSH1 0x1F DUP5 ADD PUSH1 0x5 SHR DUP2 ADD PUSH1 0x20 DUP6 LT ISZERO PUSH3 0x49A JUMPI POP DUP1 JUMPDEST PUSH1 0x1F DUP5 ADD PUSH1 0x5 SHR DUP3 ADD SWAP2 POP JUMPDEST DUP2 DUP2 LT ISZERO PUSH3 0x4BB JUMPI PUSH0 DUP2 SSTORE PUSH1 0x1 ADD PUSH3 0x4A6 JUMP JUMPDEST POP POP JUMPDEST POP POP POP JUMP JUMPDEST DUP2 MLOAD PUSH1 0x1 PUSH1 0x1 PUSH1 0x40 SHL SUB DUP2 GT ISZERO PUSH3 0x4DF JUMPI PUSH3 0x4DF PUSH3 0x18C JUMP JUMPDEST PUSH3 0x4F7 DUP2 PUSH3 0x4F0 DUP5 SLOAD PUSH3 0x439 JUMP JUMPDEST DUP5 PUSH3 0x473 JUMP JUMPDEST PUSH1 0x20 DUP1 PUSH1 0x1F DUP4 GT PUSH1 0x1 DUP2 EQ PUSH3 0x52D JUMPI PUSH0 DUP5 ISZERO PUSH3 0x515 JUMPI POP DUP6 DUP4 ADD MLOAD JUMPDEST PUSH0 NOT PUSH1 0x3 DUP7 SWAP1 SHL SHR NOT AND PUSH1 0x1 DUP6 SWAP1 SHL OR DUP6 SSTORE PUSH3 0x587 JUMP JUMPDEST PUSH0 DUP6 DUP2 MSTORE PUSH1 0x20 DUP2 KECCAK256 PUSH1 0x1F NOT DUP7 AND SWAP2 JUMPDEST DUP3 DUP2 LT ISZERO PUSH3 0x55D JUMPI DUP9 DUP7 ADD MLOAD DUP3 SSTORE SWAP5 DUP5 ADD SWAP5 PUSH1 0x1 SWAP1 SWAP2 ADD SWAP1 DUP5 ADD PUSH3 0x53C JUMP JUMPDEST POP DUP6 DUP3 LT ISZERO PUSH3 0x57B JUMPI DUP8 DUP6 ADD MLOAD PUSH0 NOT PUSH1 0x3 DUP9 SWAP1 SHL PUSH1 0xF8 AND SHR NOT AND DUP2 SSTORE JUMPDEST POP POP PUSH1 0x1 DUP5 PUSH1 0x1 SHL ADD DUP6 SSTORE JUMPDEST POP POP POP POP POP POP JUMP JUMPDEST PUSH1 0x80 MLOAD PUSH1 0xA0 MLOAD PUSH2 0x3383 PUSH3 0x5F7 PUSH0 CODECOPY PUSH0 DUP2 DUP2 PUSH2 0x5C3 ADD MSTORE DUP2 DUP2 PUSH2 0x1D2D ADD MSTORE DUP2 DUP2 PUSH2 0x1DED ADD MSTORE PUSH2 0x1E26 ADD MSTORE PUSH0 DUP2 DUP2 PUSH2 0x4AD ADD MSTORE DUP2 DUP2 PUSH2 0x845 ADD MSTORE DUP2 DUP2 PUSH2 0x120D ADD MSTORE DUP2 DUP2 PUSH2 0x15B7 ADD MSTORE DUP2 DUP2 PUSH2 0x1A57 ADD MSTORE DUP2 DUP2 PUSH2 0x1B84 ADD MSTORE DUP2 DUP2 PUSH2 0x1F3D ADD MSTORE PUSH2 0x1FF4 ADD MSTORE PUSH2 0x3383 PUSH0 RETURN INVALID PUSH1 0x80 PUSH1 0x40 MSTORE PUSH1 0x4 CALLDATASIZE LT PUSH2 0x249 JUMPI PUSH0 CALLDATALOAD PUSH1 0xE0 SHR DUP1 PUSH4 0x715018A6 GT PUSH2 0x134 JUMPI DUP1 PUSH4 0xBB0B6A53 GT PUSH2 0xB3 JUMPI DUP1 PUSH4 0xD045A0DC GT PUSH2 0x78 JUMPI DUP1 PUSH4 0xD045A0DC EQ PUSH2 0x70B JUMPI DUP1 PUSH4 0xD4243885 EQ PUSH2 0x71E JUMPI DUP1 PUSH4 0xDD62ED3E EQ PUSH2 0x73D JUMPI DUP1 PUSH4 0xF2FDE38B EQ PUSH2 0x75C JUMPI DUP1 PUSH4 0xFC0C546A EQ PUSH2 0x436 JUMPI DUP1 PUSH4 0xFF7BD03D EQ PUSH2 0x77B JUMPI PUSH0 DUP1 REVERT JUMPDEST DUP1 PUSH4 0xBB0B6A53 EQ PUSH2 0x661 JUMPI DUP1 PUSH4 0xBC70B354 EQ PUSH2 0x68C JUMPI DUP1 PUSH4 0xBD815DB0 EQ PUSH2 0x6AB JUMPI DUP1 PUSH4 0xC1E36500 EQ PUSH2 0x6BE JUMPI DUP1 PUSH4 0xCA5EB5E1 EQ PUSH2 0x6EC JUMPI PUSH0 DUP1 REVERT JUMPDEST DUP1 PUSH4 0x963EFCAA GT PUSH2 0xF9 JUMPI DUP1 PUSH4 0x963EFCAA EQ PUSH2 0x5B2 JUMPI DUP1 PUSH4 0xA457C2D7 EQ PUSH2 0x5E5 JUMPI DUP1 PUSH4 0xA9059CBB EQ PUSH2 0x604 JUMPI DUP1 PUSH4 0xB731EA0A EQ PUSH2 0x623 JUMPI DUP1 PUSH4 0xB98BD070 EQ PUSH2 0x642 JUMPI PUSH0 DUP1 REVERT JUMPDEST DUP1 PUSH4 0x715018A6 EQ PUSH2 0x522 JUMPI DUP1 PUSH4 0x7D25A05E EQ PUSH2 0x536 JUMPI DUP1 PUSH4 0x857749B0 EQ PUSH2 0x56F JUMPI DUP1 PUSH4 0x8DA5CB5B EQ PUSH2 0x582 JUMPI DUP1 PUSH4 0x95D89B41 EQ PUSH2 0x59E JUMPI PUSH0 DUP1 REVERT JUMPDEST DUP1 PUSH4 0x313CE567 GT PUSH2 0x1CB JUMPI DUP1 PUSH4 0x52AE2879 GT PUSH2 0x190 JUMPI DUP1 PUSH4 0x52AE2879 EQ PUSH2 0x436 JUMPI DUP1 PUSH4 0x5535D461 EQ PUSH2 0x448 JUMPI DUP1 PUSH4 0x5A0DFE4D EQ PUSH2 0x467 JUMPI DUP1 PUSH4 0x5E280F11 EQ PUSH2 0x49C JUMPI DUP1 PUSH4 0x6FC1B31E EQ PUSH2 0x4CF JUMPI DUP1 PUSH4 0x70A08231 EQ PUSH2 0x4EE JUMPI PUSH0 DUP1 REVERT JUMPDEST DUP1 PUSH4 0x313CE567 EQ PUSH2 0x38A JUMPI DUP1 PUSH4 0x3400288B EQ PUSH2 0x3AB JUMPI DUP1 PUSH4 0x39509351 EQ PUSH2 0x3CA JUMPI DUP1 PUSH4 0x46A40F75 EQ PUSH2 0x3E9 JUMPI DUP1 PUSH4 0x49E46017 EQ PUSH2 0x415 JUMPI PUSH0 DUP1 REVERT JUMPDEST DUP1 PUSH4 0x156A0D0F GT PUSH2 0x211 JUMPI DUP1 PUSH4 0x156A0D0F EQ PUSH2 0x319 JUMPI DUP1 PUSH4 0x17442B70 EQ PUSH2 0x319 JUMPI DUP1 PUSH4 0x18160DDD EQ PUSH2 0x339 JUMPI DUP1 PUSH4 0x1F5E1334 EQ PUSH2 0x357 JUMPI DUP1 PUSH4 0x23B872DD EQ PUSH2 0x36B JUMPI PUSH0 DUP1 REVERT JUMPDEST DUP1 PUSH4 0x6FDDE03 EQ PUSH2 0x24D JUMPI DUP1 PUSH4 0x95EA7B3 EQ PUSH2 0x277 JUMPI DUP1 PUSH4 0x111ECDAD EQ PUSH2 0x2A6 JUMPI DUP1 PUSH4 0x13137D65 EQ PUSH2 0x2DD JUMPI DUP1 PUSH4 0x134D4F25 EQ PUSH2 0x2F2 JUMPI JUMPDEST PUSH0 DUP1 REVERT JUMPDEST CALLVALUE DUP1 ISZERO PUSH2 0x258 JUMPI PUSH0 DUP1 REVERT JUMPDEST POP PUSH2 0x261 PUSH2 0x79A JUMP JUMPDEST PUSH1 0x40 MLOAD PUSH2 0x26E SWAP2 SWAP1 PUSH2 0x24C1 JUMP JUMPDEST PUSH1 0x40 MLOAD DUP1 SWAP2 SUB SWAP1 RETURN JUMPDEST CALLVALUE DUP1 ISZERO PUSH2 0x282 JUMPI PUSH0 DUP1 REVERT JUMPDEST POP PUSH2 0x296 PUSH2 0x291 CALLDATASIZE PUSH1 0x4 PUSH2 0x24F7 JUMP JUMPDEST PUSH2 0x82A JUMP JUMPDEST PUSH1 0x40 MLOAD SWAP1 ISZERO ISZERO DUP2 MSTORE PUSH1 0x20 ADD PUSH2 0x26E JUMP JUMPDEST CALLVALUE DUP1 ISZERO PUSH2 0x2B1 JUMPI PUSH0 DUP1 REVERT JUMPDEST POP PUSH1 0x4 SLOAD PUSH2 0x2C5 SWAP1 PUSH1 0x1 PUSH1 0x1 PUSH1 0xA0 SHL SUB AND DUP2 JUMP JUMPDEST PUSH1 0x40 MLOAD PUSH1 0x1 PUSH1 0x1 PUSH1 0xA0 SHL SUB SWAP1 SWAP2 AND DUP2 MSTORE PUSH1 0x20 ADD PUSH2 0x26E JUMP JUMPDEST PUSH2 0x2F0 PUSH2 0x2EB CALLDATASIZE PUSH1 0x4 PUSH2 0x2574 JUMP JUMPDEST PUSH2 0x843 JUMP JUMPDEST STOP JUMPDEST CALLVALUE DUP1 ISZERO PUSH2 0x2FD JUMPI PUSH0 DUP1 REVERT JUMPDEST POP PUSH2 0x306 PUSH1 0x2 DUP2 JUMP JUMPDEST PUSH1 0x40 MLOAD PUSH2 0xFFFF SWAP1 SWAP2 AND DUP2 MSTORE PUSH1 0x20 ADD PUSH2 0x26E JUMP JUMPDEST CALLVALUE DUP1 ISZERO PUSH2 0x324 JUMPI PUSH0 DUP1 REVERT JUMPDEST POP PUSH1 0x40 DUP1 MLOAD PUSH1 0x1 DUP1 DUP3 MSTORE PUSH1 0x20 DUP3 ADD MSTORE ADD PUSH2 0x26E JUMP JUMPDEST CALLVALUE DUP1 ISZERO PUSH2 0x344 JUMPI PUSH0 DUP1 REVERT JUMPDEST POP PUSH1 0x7 SLOAD JUMPDEST PUSH1 0x40 MLOAD SWAP1 DUP2 MSTORE PUSH1 0x20 ADD PUSH2 0x26E JUMP JUMPDEST CALLVALUE DUP1 ISZERO PUSH2 0x362 JUMPI PUSH0 DUP1 REVERT JUMPDEST POP PUSH2 0x306 PUSH1 0x1 DUP2 JUMP JUMPDEST CALLVALUE DUP1 ISZERO PUSH2 0x376 JUMPI PUSH0 DUP1 REVERT JUMPDEST POP PUSH2 0x296 PUSH2 0x385 CALLDATASIZE PUSH1 0x4 PUSH2 0x260C JUMP JUMPDEST PUSH2 0x903 JUMP JUMPDEST CALLVALUE DUP1 ISZERO PUSH2 0x395 JUMPI PUSH0 DUP1 REVERT JUMPDEST POP PUSH1 0x12 JUMPDEST PUSH1 0x40 MLOAD PUSH1 0xFF SWAP1 SWAP2 AND DUP2 MSTORE PUSH1 0x20 ADD PUSH2 0x26E JUMP JUMPDEST CALLVALUE DUP1 ISZERO PUSH2 0x3B6 JUMPI PUSH0 DUP1 REVERT JUMPDEST POP PUSH2 0x2F0 PUSH2 0x3C5 CALLDATASIZE PUSH1 0x4 PUSH2 0x265D JUMP JUMPDEST PUSH2 0x928 JUMP JUMPDEST CALLVALUE DUP1 ISZERO PUSH2 0x3D5 JUMPI PUSH0 DUP1 REVERT JUMPDEST POP PUSH2 0x296 PUSH2 0x3E4 CALLDATASIZE PUSH1 0x4 PUSH2 0x24F7 JUMP JUMPDEST PUSH2 0x985 JUMP JUMPDEST CALLVALUE DUP1 ISZERO PUSH2 0x3F4 JUMPI PUSH0 DUP1 REVERT JUMPDEST POP PUSH2 0x408 PUSH2 0x403 CALLDATASIZE PUSH1 0x4 PUSH2 0x2694 JUMP JUMPDEST PUSH2 0x9A6 JUMP JUMPDEST PUSH1 0x40 MLOAD PUSH2 0x26E SWAP2 SWAP1 PUSH2 0x274C JUMP JUMPDEST PUSH2 0x428 PUSH2 0x423 CALLDATASIZE PUSH1 0x4 PUSH2 0x2763 JUMP JUMPDEST PUSH2 0xA19 JUMP JUMPDEST PUSH1 0x40 MLOAD PUSH2 0x26E SWAP3 SWAP2 SWAP1 PUSH2 0x283C JUMP JUMPDEST CALLVALUE DUP1 ISZERO PUSH2 0x441 JUMPI PUSH0 DUP1 REVERT JUMPDEST POP ADDRESS PUSH2 0x2C5 JUMP JUMPDEST CALLVALUE DUP1 ISZERO PUSH2 0x453 JUMPI PUSH0 DUP1 REVERT JUMPDEST POP PUSH2 0x261 PUSH2 0x462 CALLDATASIZE PUSH1 0x4 PUSH2 0x289E JUMP JUMPDEST PUSH2 0xB16 JUMP JUMPDEST CALLVALUE DUP1 ISZERO PUSH2 0x472 JUMPI PUSH0 DUP1 REVERT JUMPDEST POP PUSH2 0x296 PUSH2 0x481 CALLDATASIZE PUSH1 0x4 PUSH2 0x265D JUMP JUMPDEST PUSH4 0xFFFFFFFF SWAP2 SWAP1 SWAP2 AND PUSH0 SWAP1 DUP2 MSTORE PUSH1 0x1 PUSH1 0x20 MSTORE PUSH1 0x40 SWAP1 KECCAK256 SLOAD EQ SWAP1 JUMP JUMPDEST CALLVALUE DUP1 ISZERO PUSH2 0x4A7 JUMPI PUSH0 DUP1 REVERT JUMPDEST POP PUSH2 0x2C5 PUSH32 0x0 DUP2 JUMP JUMPDEST CALLVALUE DUP1 ISZERO PUSH2 0x4DA JUMPI PUSH0 DUP1 REVERT JUMPDEST POP PUSH2 0x2F0 PUSH2 0x4E9 CALLDATASIZE PUSH1 0x4 PUSH2 0x28CF JUMP JUMPDEST PUSH2 0xBB8 JUMP JUMPDEST CALLVALUE DUP1 ISZERO PUSH2 0x4F9 JUMPI PUSH0 DUP1 REVERT JUMPDEST POP PUSH2 0x349 PUSH2 0x508 CALLDATASIZE PUSH1 0x4 PUSH2 0x28CF JUMP JUMPDEST PUSH1 0x1 PUSH1 0x1 PUSH1 0xA0 SHL SUB AND PUSH0 SWAP1 DUP2 MSTORE PUSH1 0x5 PUSH1 0x20 MSTORE PUSH1 0x40 SWAP1 KECCAK256 SLOAD SWAP1 JUMP JUMPDEST CALLVALUE DUP1 ISZERO PUSH2 0x52D JUMPI PUSH0 DUP1 REVERT JUMPDEST POP PUSH2 0x2F0 PUSH2 0xC15 JUMP JUMPDEST CALLVALUE DUP1 ISZERO PUSH2 0x541 JUMPI PUSH0 DUP1 REVERT JUMPDEST POP PUSH2 0x557 PUSH2 0x550 CALLDATASIZE PUSH1 0x4 PUSH2 0x265D JUMP JUMPDEST PUSH0 SWAP3 SWAP2 POP POP JUMP JUMPDEST PUSH1 0x40 MLOAD PUSH1 0x1 PUSH1 0x1 PUSH1 0x40 SHL SUB SWAP1 SWAP2 AND DUP2 MSTORE PUSH1 0x20 ADD PUSH2 0x26E JUMP JUMPDEST CALLVALUE DUP1 ISZERO PUSH2 0x57A JUMPI PUSH0 DUP1 REVERT JUMPDEST POP PUSH1 0x6 PUSH2 0x399 JUMP JUMPDEST CALLVALUE DUP1 ISZERO PUSH2 0x58D JUMPI PUSH0 DUP1 REVERT JUMPDEST POP PUSH0 SLOAD PUSH1 0x1 PUSH1 0x1 PUSH1 0xA0 SHL SUB AND PUSH2 0x2C5 JUMP JUMPDEST CALLVALUE DUP1 ISZERO PUSH2 0x5A9 JUMPI PUSH0 DUP1 REVERT JUMPDEST POP PUSH2 0x261 PUSH2 0xC28 JUMP JUMPDEST CALLVALUE DUP1 ISZERO PUSH2 0x5BD JUMPI PUSH0 DUP1 REVERT JUMPDEST POP PUSH2 0x349 PUSH32 0x0 DUP2 JUMP JUMPDEST CALLVALUE DUP1 ISZERO PUSH2 0x5F0 JUMPI PUSH0 DUP1 REVERT JUMPDEST POP PUSH2 0x296 PUSH2 0x5FF CALLDATASIZE PUSH1 0x4 PUSH2 0x24F7 JUMP JUMPDEST PUSH2 0xC37 JUMP JUMPDEST CALLVALUE DUP1 ISZERO PUSH2 0x60F JUMPI PUSH0 DUP1 REVERT JUMPDEST POP PUSH2 0x296 PUSH2 0x61E CALLDATASIZE PUSH1 0x4 PUSH2 0x24F7 JUMP JUMPDEST PUSH2 0xCBC JUMP JUMPDEST CALLVALUE DUP1 ISZERO PUSH2 0x62E JUMPI PUSH0 DUP1 REVERT JUMPDEST POP PUSH1 0x2 SLOAD PUSH2 0x2C5 SWAP1 PUSH1 0x1 PUSH1 0x1 PUSH1 0xA0 SHL SUB AND DUP2 JUMP JUMPDEST CALLVALUE DUP1 ISZERO PUSH2 0x64D JUMPI PUSH0 DUP1 REVERT JUMPDEST POP PUSH2 0x2F0 PUSH2 0x65C CALLDATASIZE PUSH1 0x4 PUSH2 0x292A JUMP JUMPDEST PUSH2 0xCC9 JUMP JUMPDEST CALLVALUE DUP1 ISZERO PUSH2 0x66C JUMPI PUSH0 DUP1 REVERT JUMPDEST POP PUSH2 0x349 PUSH2 0x67B CALLDATASIZE PUSH1 0x4 PUSH2 0x295C JUMP JUMPDEST PUSH1 0x1 PUSH1 0x20 MSTORE PUSH0 SWAP1 DUP2 MSTORE PUSH1 0x40 SWAP1 KECCAK256 SLOAD DUP2 JUMP JUMPDEST CALLVALUE DUP1 ISZERO PUSH2 0x697 JUMPI PUSH0 DUP1 REVERT JUMPDEST POP PUSH2 0x261 PUSH2 0x6A6 CALLDATASIZE PUSH1 0x4 PUSH2 0x2975 JUMP JUMPDEST PUSH2 0xE25 JUMP JUMPDEST PUSH2 0x2F0 PUSH2 0x6B9 CALLDATASIZE PUSH1 0x4 PUSH2 0x292A JUMP JUMPDEST PUSH2 0xF9A JUMP JUMPDEST CALLVALUE DUP1 ISZERO PUSH2 0x6C9 JUMPI PUSH0 DUP1 REVERT JUMPDEST POP PUSH2 0x6DD PUSH2 0x6D8 CALLDATASIZE PUSH1 0x4 PUSH2 0x29D1 JUMP JUMPDEST PUSH2 0x111A JUMP JUMPDEST PUSH1 0x40 MLOAD PUSH2 0x26E SWAP4 SWAP3 SWAP2 SWAP1 PUSH2 0x2A20 JUMP JUMPDEST CALLVALUE DUP1 ISZERO PUSH2 0x6F7 JUMPI PUSH0 DUP1 REVERT JUMPDEST POP PUSH2 0x2F0 PUSH2 0x706 CALLDATASIZE PUSH1 0x4 PUSH2 0x28CF JUMP JUMPDEST PUSH2 0x11E6 JUMP JUMPDEST PUSH2 0x2F0 PUSH2 0x719 CALLDATASIZE PUSH1 0x4 PUSH2 0x2574 JUMP JUMPDEST PUSH2 0x1267 JUMP JUMPDEST CALLVALUE DUP1 ISZERO PUSH2 0x729 JUMPI PUSH0 DUP1 REVERT JUMPDEST POP PUSH2 0x2F0 PUSH2 0x738 CALLDATASIZE PUSH1 0x4 PUSH2 0x28CF JUMP JUMPDEST PUSH2 0x1296 JUMP JUMPDEST CALLVALUE DUP1 ISZERO PUSH2 0x748 JUMPI PUSH0 DUP1 REVERT JUMPDEST POP PUSH2 0x349 PUSH2 0x757 CALLDATASIZE PUSH1 0x4 PUSH2 0x2AB7 JUMP JUMPDEST PUSH2 0x12EC JUMP JUMPDEST CALLVALUE DUP1 ISZERO PUSH2 0x767 JUMPI PUSH0 DUP1 REVERT JUMPDEST POP PUSH2 0x2F0 PUSH2 0x776 CALLDATASIZE PUSH1 0x4 PUSH2 0x28CF JUMP JUMPDEST PUSH2 0x1316 JUMP JUMPDEST CALLVALUE DUP1 ISZERO PUSH2 0x786 JUMPI PUSH0 DUP1 REVERT JUMPDEST POP PUSH2 0x296 PUSH2 0x795 CALLDATASIZE PUSH1 0x4 PUSH2 0x2AEE JUMP JUMPDEST PUSH2 0x138F JUMP JUMPDEST PUSH1 0x60 PUSH1 0x8 DUP1 SLOAD PUSH2 0x7A9 SWAP1 PUSH2 0x2B08 JUMP JUMPDEST DUP1 PUSH1 0x1F ADD PUSH1 0x20 DUP1 SWAP2 DIV MUL PUSH1 0x20 ADD PUSH1 0x40 MLOAD SWAP1 DUP2 ADD PUSH1 0x40 MSTORE DUP1 SWAP3 SWAP2 SWAP1 DUP2 DUP2 MSTORE PUSH1 0x20 ADD DUP3 DUP1 SLOAD PUSH2 0x7D5 SWAP1 PUSH2 0x2B08 JUMP JUMPDEST DUP1 ISZERO PUSH2 0x820 JUMPI DUP1 PUSH1 0x1F LT PUSH2 0x7F7 JUMPI PUSH2 0x100 DUP1 DUP4 SLOAD DIV MUL DUP4 MSTORE SWAP2 PUSH1 0x20 ADD SWAP2 PUSH2 0x820 JUMP JUMPDEST DUP3 ADD SWAP2 SWAP1 PUSH0 MSTORE PUSH1 0x20 PUSH0 KECCAK256 SWAP1 JUMPDEST DUP2 SLOAD DUP2 MSTORE SWAP1 PUSH1 0x1 ADD SWAP1 PUSH1 0x20 ADD DUP1 DUP4 GT PUSH2 0x803 JUMPI DUP3 SWAP1 SUB PUSH1 0x1F AND DUP3 ADD SWAP2 JUMPDEST POP POP POP POP POP SWAP1 POP SWAP1 JUMP JUMPDEST PUSH0 CALLER PUSH2 0x837 DUP2 DUP6 DUP6 PUSH2 0x13C3 JUMP JUMPDEST PUSH1 0x1 SWAP2 POP POP JUMPDEST SWAP3 SWAP2 POP POP JUMP JUMPDEST PUSH32 0x0 PUSH1 0x1 PUSH1 0x1 PUSH1 0xA0 SHL SUB AND CALLER EQ PUSH2 0x893 JUMPI PUSH1 0x40 MLOAD PUSH4 0x91AC5E4F PUSH1 0xE0 SHL DUP2 MSTORE CALLER PUSH1 0x4 DUP3 ADD MSTORE PUSH1 0x24 ADD JUMPDEST PUSH1 0x40 MLOAD DUP1 SWAP2 SUB SWAP1 REVERT JUMPDEST PUSH1 0x20 DUP8 ADD DUP1 CALLDATALOAD SWAP1 PUSH2 0x8AD SWAP1 PUSH2 0x8A8 SWAP1 DUP11 PUSH2 0x295C JUMP JUMPDEST PUSH2 0x14E6 JUMP JUMPDEST EQ PUSH2 0x8EB JUMPI PUSH2 0x8BF PUSH1 0x20 DUP9 ADD DUP9 PUSH2 0x295C JUMP JUMPDEST PUSH1 0x40 MLOAD PUSH4 0x309AFAF3 PUSH1 0xE2 SHL DUP2 MSTORE PUSH4 0xFFFFFFFF SWAP1 SWAP2 AND PUSH1 0x4 DUP3 ADD MSTORE PUSH1 0x20 DUP9 ADD CALLDATALOAD PUSH1 0x24 DUP3 ADD MSTORE PUSH1 0x44 ADD PUSH2 0x88A JUMP JUMPDEST PUSH2 0x8FA DUP8 DUP8 DUP8 DUP8 DUP8 DUP8 DUP8 PUSH2 0x1521 JUMP JUMPDEST POP POP POP POP POP POP POP JUMP JUMPDEST PUSH0 CALLER PUSH2 0x910 DUP6 DUP3 DUP6 PUSH2 0x1673 JUMP JUMPDEST PUSH2 0x91B DUP6 DUP6 DUP6 PUSH2 0x16EB JUMP JUMPDEST PUSH1 0x1 SWAP2 POP POP JUMPDEST SWAP4 SWAP3 POP POP POP JUMP JUMPDEST PUSH2 0x930 PUSH2 0x1894 JUMP JUMPDEST PUSH4 0xFFFFFFFF DUP3 AND PUSH0 DUP2 DUP2 MSTORE PUSH1 0x1 PUSH1 0x20 SWAP1 DUP2 MSTORE PUSH1 0x40 SWAP2 DUP3 SWAP1 KECCAK256 DUP5 SWAP1 SSTORE DUP2 MLOAD SWAP3 DUP4 MSTORE DUP3 ADD DUP4 SWAP1 MSTORE PUSH32 0x238399D427B947898EDB290F5FF0F9109849B1C3BA196A42E35F00C50A54B98B SWAP2 ADD JUMPDEST PUSH1 0x40 MLOAD DUP1 SWAP2 SUB SWAP1 LOG1 POP POP JUMP JUMPDEST PUSH0 CALLER PUSH2 0x837 DUP2 DUP6 DUP6 PUSH2 0x997 DUP4 DUP4 PUSH2 0x12EC JUMP JUMPDEST PUSH2 0x9A1 SWAP2 SWAP1 PUSH2 0x2B4E JUMP JUMPDEST PUSH2 0x13C3 JUMP JUMPDEST PUSH1 0x40 DUP1 MLOAD DUP1 DUP3 ADD SWAP1 SWAP2 MSTORE PUSH0 DUP1 DUP3 MSTORE PUSH1 0x20 DUP3 ADD MSTORE PUSH0 PUSH2 0x9D9 PUSH1 0x40 DUP12 ADD CALLDATALOAD PUSH1 0x60 DUP13 ADD CALLDATALOAD PUSH2 0x9D4 PUSH1 0x20 DUP15 ADD DUP15 PUSH2 0x295C JUMP JUMPDEST PUSH2 0x18ED JUMP JUMPDEST SWAP2 POP POP PUSH0 DUP1 PUSH2 0x9EC DUP13 DUP13 DUP13 DUP12 DUP12 DUP9 PUSH2 0x1930 JUMP JUMPDEST SWAP1 SWAP3 POP SWAP1 POP PUSH2 0xA09 PUSH2 0xA01 PUSH1 0x20 DUP15 ADD DUP15 PUSH2 0x295C JUMP JUMPDEST DUP4 DUP4 DUP13 PUSH2 0x1A42 JUMP JUMPDEST SWAP13 SWAP12 POP POP POP POP POP POP POP POP POP POP POP POP JUMP JUMPDEST PUSH2 0xA21 PUSH2 0x2431 JUMP JUMPDEST PUSH1 0x40 DUP1 MLOAD DUP1 DUP3 ADD SWAP1 SWAP2 MSTORE PUSH0 DUP1 DUP3 MSTORE PUSH1 0x20 DUP3 ADD MSTORE PUSH0 DUP1 PUSH2 0xA5A DUP14 PUSH1 0x40 ADD CALLDATALOAD DUP15 PUSH1 0x60 ADD CALLDATALOAD DUP16 PUSH0 ADD PUSH1 0x20 DUP2 ADD SWAP1 PUSH2 0xA55 SWAP2 SWAP1 PUSH2 0x295C JUMP JUMPDEST PUSH2 0x1B20 JUMP JUMPDEST SWAP2 POP SWAP2 POP PUSH0 DUP1 PUSH2 0xA6E DUP16 DUP16 DUP16 DUP14 DUP14 DUP9 PUSH2 0x1930 JUMP JUMPDEST SWAP2 POP SWAP2 POP PUSH2 0xAA0 DUP16 PUSH0 ADD PUSH1 0x20 DUP2 ADD SWAP1 PUSH2 0xA87 SWAP2 SWAP1 PUSH2 0x295C JUMP JUMPDEST DUP4 DUP4 DUP16 DUP1 CALLDATASIZE SUB DUP2 ADD SWAP1 PUSH2 0xA9A SWAP2 SWAP1 PUSH2 0x2B9D JUMP JUMPDEST DUP16 PUSH2 0x1B53 JUMP JUMPDEST SWAP6 POP PUSH1 0x40 MLOAD DUP1 PUSH1 0x40 ADD PUSH1 0x40 MSTORE DUP1 DUP6 DUP2 MSTORE PUSH1 0x20 ADD DUP5 DUP2 MSTORE POP SWAP5 POP CALLER PUSH1 0x1 PUSH1 0x1 PUSH1 0xA0 SHL SUB AND DUP7 PUSH0 ADD MLOAD PUSH32 0xEE6B77E8CD280835AECC97812D736C35FAAD222D91B12DE19C7ED912E9AED71B DUP7 DUP7 DUP15 DUP15 PUSH1 0x40 MLOAD PUSH2 0xAFC SWAP5 SWAP4 SWAP3 SWAP2 SWAP1 PUSH2 0x2BF5 JUMP JUMPDEST PUSH1 0x40 MLOAD DUP1 SWAP2 SUB SWAP1 LOG3 POP POP POP POP SWAP10 POP SWAP10 SWAP8 POP POP POP POP POP POP POP POP JUMP JUMPDEST PUSH1 0x3 PUSH1 0x20 SWAP1 DUP2 MSTORE PUSH0 SWAP3 DUP4 MSTORE PUSH1 0x40 DUP1 DUP5 KECCAK256 SWAP1 SWAP2 MSTORE SWAP1 DUP3 MSTORE SWAP1 KECCAK256 DUP1 SLOAD PUSH2 0xB39 SWAP1 PUSH2 0x2B08 JUMP JUMPDEST DUP1 PUSH1 0x1F ADD PUSH1 0x20 DUP1 SWAP2 DIV MUL PUSH1 0x20 ADD PUSH1 0x40 MLOAD SWAP1 DUP2 ADD PUSH1 0x40 MSTORE DUP1 SWAP3 SWAP2 SWAP1 DUP2 DUP2 MSTORE PUSH1 0x20 ADD DUP3 DUP1 SLOAD PUSH2 0xB65 SWAP1 PUSH2 0x2B08 JUMP JUMPDEST DUP1 ISZERO PUSH2 0xBB0 JUMPI DUP1 PUSH1 0x1F LT PUSH2 0xB87 JUMPI PUSH2 0x100 DUP1 DUP4 SLOAD DIV MUL DUP4 MSTORE SWAP2 PUSH1 0x20 ADD SWAP2 PUSH2 0xBB0 JUMP JUMPDEST DUP3 ADD SWAP2 SWAP1 PUSH0 MSTORE PUSH1 0x20 PUSH0 KECCAK256 SWAP1 JUMPDEST DUP2 SLOAD DUP2 MSTORE SWAP1 PUSH1 0x1 ADD SWAP1 PUSH1 0x20 ADD DUP1 DUP4 GT PUSH2 0xB93 JUMPI DUP3 SWAP1 SUB PUSH1 0x1F AND DUP3 ADD SWAP2 JUMPDEST POP POP POP POP POP DUP2 JUMP JUMPDEST PUSH2 0xBC0 PUSH2 0x1894 JUMP JUMPDEST PUSH1 0x4 DUP1 SLOAD PUSH1 0x1 PUSH1 0x1 PUSH1 0xA0 SHL SUB NOT AND PUSH1 0x1 PUSH1 0x1 PUSH1 0xA0 SHL SUB DUP4 AND SWAP1 DUP2 OR SWAP1 SWAP2 SSTORE PUSH1 0x40 MLOAD SWAP1 DUP2 MSTORE PUSH32 0xF0BE4F1E87349231D80C36B33F9E8639658EEAF474014DEE15A3E6A4D4414197 SWAP1 PUSH1 0x20 ADD JUMPDEST PUSH1 0x40 MLOAD DUP1 SWAP2 SUB SWAP1 LOG1 POP JUMP JUMPDEST PUSH2 0xC1D PUSH2 0x1894 JUMP JUMPDEST PUSH2 0xC26 PUSH0 PUSH2 0x1C59 JUMP JUMPDEST JUMP JUMPDEST PUSH1 0x60 PUSH1 0x9 DUP1 SLOAD PUSH2 0x7A9 SWAP1 PUSH2 0x2B08 JUMP JUMPDEST PUSH0 CALLER DUP2 PUSH2 0xC44 DUP3 DUP7 PUSH2 0x12EC JUMP JUMPDEST SWAP1 POP DUP4 DUP2 LT ISZERO PUSH2 0xCA4 JUMPI PUSH1 0x40 MLOAD PUSH3 0x461BCD PUSH1 0xE5 SHL DUP2 MSTORE PUSH1 0x20 PUSH1 0x4 DUP3 ADD MSTORE PUSH1 0x25 PUSH1 0x24 DUP3 ADD MSTORE PUSH32 0x45524332303A2064656372656173656420616C6C6F77616E63652062656C6F77 PUSH1 0x44 DUP3 ADD MSTORE PUSH5 0x207A65726F PUSH1 0xD8 SHL PUSH1 0x64 DUP3 ADD MSTORE PUSH1 0x84 ADD PUSH2 0x88A JUMP JUMPDEST PUSH2 0xCB1 DUP3 DUP7 DUP7 DUP5 SUB PUSH2 0x13C3 JUMP JUMPDEST POP PUSH1 0x1 SWAP5 SWAP4 POP POP POP POP JUMP JUMPDEST PUSH0 CALLER PUSH2 0x837 DUP2 DUP6 DUP6 PUSH2 0x16EB JUMP JUMPDEST PUSH2 0xCD1 PUSH2 0x1894 JUMP JUMPDEST PUSH0 JUMPDEST DUP2 DUP2 LT ISZERO PUSH2 0xDF3 JUMPI PUSH2 0xD15 DUP4 DUP4 DUP4 DUP2 DUP2 LT PUSH2 0xCF0 JUMPI PUSH2 0xCF0 PUSH2 0x2C1E JUMP JUMPDEST SWAP1 POP PUSH1 0x20 MUL DUP2 ADD SWAP1 PUSH2 0xD02 SWAP2 SWAP1 PUSH2 0x2C32 JUMP JUMPDEST PUSH2 0xD10 SWAP1 PUSH1 0x40 DUP2 ADD SWAP1 PUSH2 0x2C50 JUMP JUMPDEST PUSH2 0x1CA8 JUMP JUMPDEST DUP3 DUP3 DUP3 DUP2 DUP2 LT PUSH2 0xD27 JUMPI PUSH2 0xD27 PUSH2 0x2C1E JUMP JUMPDEST SWAP1 POP PUSH1 0x20 MUL DUP2 ADD SWAP1 PUSH2 0xD39 SWAP2 SWAP1 PUSH2 0x2C32 JUMP JUMPDEST PUSH2 0xD47 SWAP1 PUSH1 0x40 DUP2 ADD SWAP1 PUSH2 0x2C50 JUMP JUMPDEST PUSH1 0x3 PUSH0 DUP7 DUP7 DUP7 DUP2 DUP2 LT PUSH2 0xD5C JUMPI PUSH2 0xD5C PUSH2 0x2C1E JUMP JUMPDEST SWAP1 POP PUSH1 0x20 MUL DUP2 ADD SWAP1 PUSH2 0xD6E SWAP2 SWAP1 PUSH2 0x2C32 JUMP JUMPDEST PUSH2 0xD7C SWAP1 PUSH1 0x20 DUP2 ADD SWAP1 PUSH2 0x295C JUMP JUMPDEST PUSH4 0xFFFFFFFF AND PUSH4 0xFFFFFFFF AND DUP2 MSTORE PUSH1 0x20 ADD SWAP1 DUP2 MSTORE PUSH1 0x20 ADD PUSH0 KECCAK256 PUSH0 DUP7 DUP7 DUP7 DUP2 DUP2 LT PUSH2 0xDA8 JUMPI PUSH2 0xDA8 PUSH2 0x2C1E JUMP JUMPDEST SWAP1 POP PUSH1 0x20 MUL DUP2 ADD SWAP1 PUSH2 0xDBA SWAP2 SWAP1 PUSH2 0x2C32 JUMP JUMPDEST PUSH2 0xDCB SWAP1 PUSH1 0x40 DUP2 ADD SWAP1 PUSH1 0x20 ADD PUSH2 0x2C92 JUMP JUMPDEST PUSH2 0xFFFF AND DUP2 MSTORE PUSH1 0x20 DUP2 ADD SWAP2 SWAP1 SWAP2 MSTORE PUSH1 0x40 ADD PUSH0 KECCAK256 SWAP2 PUSH2 0xDEA SWAP2 SWAP1 DUP4 PUSH2 0x2CEF JUMP JUMPDEST POP PUSH1 0x1 ADD PUSH2 0xCD3 JUMP JUMPDEST POP PUSH32 0xBE4864A8E820971C0247F5992E2DA559595F7BF076A21CB5928D443D2A13B674 DUP3 DUP3 PUSH1 0x40 MLOAD PUSH2 0x979 SWAP3 SWAP2 SWAP1 PUSH2 0x2DA8 JUMP JUMPDEST PUSH4 0xFFFFFFFF DUP5 AND PUSH0 SWAP1 DUP2 MSTORE PUSH1 0x3 PUSH1 0x20 SWAP1 DUP2 MSTORE PUSH1 0x40 DUP1 DUP4 KECCAK256 PUSH2 0xFFFF DUP8 AND DUP5 MSTORE SWAP1 SWAP2 MSTORE DUP2 KECCAK256 DUP1 SLOAD PUSH1 0x60 SWAP3 SWAP2 SWAP1 PUSH2 0xE58 SWAP1 PUSH2 0x2B08 JUMP JUMPDEST DUP1 PUSH1 0x1F ADD PUSH1 0x20 DUP1 SWAP2 DIV MUL PUSH1 0x20 ADD PUSH1 0x40 MLOAD SWAP1 DUP2 ADD PUSH1 0x40 MSTORE DUP1 SWAP3 SWAP2 SWAP1 DUP2 DUP2 MSTORE PUSH1 0x20 ADD DUP3 DUP1 SLOAD PUSH2 0xE84 SWAP1 PUSH2 0x2B08 JUMP JUMPDEST DUP1 ISZERO PUSH2 0xECF JUMPI DUP1 PUSH1 0x1F LT PUSH2 0xEA6 JUMPI PUSH2 0x100 DUP1 DUP4 SLOAD DIV MUL DUP4 MSTORE SWAP2 PUSH1 0x20 ADD SWAP2 PUSH2 0xECF JUMP JUMPDEST DUP3 ADD SWAP2 SWAP1 PUSH0 MSTORE PUSH1 0x20 PUSH0 KECCAK256 SWAP1 JUMPDEST DUP2 SLOAD DUP2 MSTORE SWAP1 PUSH1 0x1 ADD SWAP1 PUSH1 0x20 ADD DUP1 DUP4 GT PUSH2 0xEB2 JUMPI DUP3 SWAP1 SUB PUSH1 0x1F AND DUP3 ADD SWAP2 JUMPDEST POP POP POP POP POP SWAP1 POP DUP1 MLOAD PUSH0 SUB PUSH2 0xF1D JUMPI DUP4 DUP4 DUP1 DUP1 PUSH1 0x1F ADD PUSH1 0x20 DUP1 SWAP2 DIV MUL PUSH1 0x20 ADD PUSH1 0x40 MLOAD SWAP1 DUP2 ADD PUSH1 0x40 MSTORE DUP1 SWAP4 SWAP3 SWAP2 SWAP1 DUP2 DUP2 MSTORE PUSH1 0x20 ADD DUP4 DUP4 DUP1 DUP3 DUP5 CALLDATACOPY PUSH0 SWAP3 ADD SWAP2 SWAP1 SWAP2 MSTORE POP SWAP3 SWAP5 POP PUSH2 0xF92 SWAP4 POP POP POP POP JUMP JUMPDEST PUSH0 DUP4 SWAP1 SUB PUSH2 0xF2C JUMPI SWAP1 POP PUSH2 0xF92 JUMP JUMPDEST PUSH1 0x2 DUP4 LT PUSH2 0xF75 JUMPI PUSH2 0xF3E DUP5 DUP5 PUSH2 0x1CA8 JUMP JUMPDEST DUP1 PUSH2 0xF4C DUP5 PUSH1 0x2 DUP2 DUP9 PUSH2 0x2E87 JUMP JUMPDEST PUSH1 0x40 MLOAD PUSH1 0x20 ADD PUSH2 0xF5E SWAP4 SWAP3 SWAP2 SWAP1 PUSH2 0x2EAE JUMP JUMPDEST PUSH1 0x40 MLOAD PUSH1 0x20 DUP2 DUP4 SUB SUB DUP2 MSTORE SWAP1 PUSH1 0x40 MSTORE SWAP2 POP POP PUSH2 0xF92 JUMP JUMPDEST DUP4 DUP4 PUSH1 0x40 MLOAD PUSH4 0x9A6D49CD PUSH1 0xE0 SHL DUP2 MSTORE PUSH1 0x4 ADD PUSH2 0x88A SWAP3 SWAP2 SWAP1 PUSH2 0x2ED4 JUMP JUMPDEST SWAP5 SWAP4 POP POP POP POP JUMP JUMPDEST PUSH0 JUMPDEST DUP2 DUP2 LT ISZERO PUSH2 0x109D JUMPI CALLDATASIZE DUP4 DUP4 DUP4 DUP2 DUP2 LT PUSH2 0xFB7 JUMPI PUSH2 0xFB7 PUSH2 0x2C1E JUMP JUMPDEST SWAP1 POP PUSH1 0x20 MUL DUP2 ADD SWAP1 PUSH2 0xFC9 SWAP2 SWAP1 PUSH2 0x2EE7 JUMP JUMPDEST SWAP1 POP PUSH2 0xFFB PUSH2 0xFDB PUSH1 0x20 DUP4 ADD DUP4 PUSH2 0x295C JUMP JUMPDEST PUSH1 0x20 DUP4 ADD CALLDATALOAD PUSH4 0xFFFFFFFF SWAP2 SWAP1 SWAP2 AND PUSH0 SWAP1 DUP2 MSTORE PUSH1 0x1 PUSH1 0x20 MSTORE PUSH1 0x40 SWAP1 KECCAK256 SLOAD EQ SWAP1 JUMP JUMPDEST PUSH2 0x1005 JUMPI POP PUSH2 0x1095 JUMP JUMPDEST ADDRESS PUSH4 0xD045A0DC PUSH1 0xC0 DUP4 ADD CALLDATALOAD DUP4 PUSH1 0xA0 DUP2 ADD CALLDATALOAD PUSH2 0x1024 PUSH2 0x100 DUP4 ADD DUP4 PUSH2 0x2C50 JUMP JUMPDEST PUSH2 0x1035 PUSH2 0x100 DUP10 ADD PUSH1 0xE0 DUP11 ADD PUSH2 0x28CF JUMP JUMPDEST PUSH2 0x1043 PUSH2 0x120 DUP11 ADD DUP11 PUSH2 0x2C50 JUMP JUMPDEST PUSH1 0x40 MLOAD DUP10 PUSH4 0xFFFFFFFF AND PUSH1 0xE0 SHL DUP2 MSTORE PUSH1 0x4 ADD PUSH2 0x1065 SWAP8 SWAP7 SWAP6 SWAP5 SWAP4 SWAP3 SWAP2 SWAP1 PUSH2 0x2F10 JUMP JUMPDEST PUSH0 PUSH1 0x40 MLOAD DUP1 DUP4 SUB DUP2 DUP6 DUP9 DUP1 EXTCODESIZE ISZERO DUP1 ISZERO PUSH2 0x107C JUMPI PUSH0 DUP1 REVERT JUMPDEST POP GAS CALL ISZERO DUP1 ISZERO PUSH2 0x108E JUMPI RETURNDATASIZE PUSH0 DUP1 RETURNDATACOPY RETURNDATASIZE PUSH0 REVERT JUMPDEST POP POP POP POP POP POP JUMPDEST PUSH1 0x1 ADD PUSH2 0xF9C JUMP JUMPDEST POP CALLER PUSH1 0x1 PUSH1 0x1 PUSH1 0xA0 SHL SUB AND PUSH4 0x8E9E7099 PUSH1 0x40 MLOAD DUP2 PUSH4 0xFFFFFFFF AND PUSH1 0xE0 SHL DUP2 MSTORE PUSH1 0x4 ADD PUSH0 PUSH1 0x40 MLOAD DUP1 DUP4 SUB DUP2 DUP7 GAS STATICCALL ISZERO DUP1 ISZERO PUSH2 0x10D9 JUMPI RETURNDATASIZE PUSH0 DUP1 RETURNDATACOPY RETURNDATASIZE PUSH0 REVERT JUMPDEST POP POP POP POP PUSH1 0x40 MLOAD RETURNDATASIZE PUSH0 DUP3 RETURNDATACOPY PUSH1 0x1F RETURNDATASIZE SWAP1 DUP2 ADD PUSH1 0x1F NOT AND DUP3 ADD PUSH1 0x40 MSTORE PUSH2 0x1100 SWAP2 SWAP1 DUP2 ADD SWAP1 PUSH2 0x2F95 JUMP JUMPDEST PUSH1 0x40 MLOAD PUSH4 0x8351EEA7 PUSH1 0xE0 SHL DUP2 MSTORE PUSH1 0x4 ADD PUSH2 0x88A SWAP2 SWAP1 PUSH2 0x24C1 JUMP JUMPDEST PUSH1 0x40 DUP1 MLOAD DUP1 DUP3 ADD SWAP1 SWAP2 MSTORE PUSH0 DUP1 DUP3 MSTORE PUSH1 0x20 DUP3 ADD MSTORE PUSH1 0x60 PUSH2 0x114A PUSH1 0x40 MLOAD DUP1 PUSH1 0x40 ADD PUSH1 0x40 MSTORE DUP1 PUSH0 DUP2 MSTORE PUSH1 0x20 ADD PUSH0 DUP2 MSTORE POP SWAP1 JUMP JUMPDEST PUSH1 0x40 DUP1 MLOAD DUP1 DUP3 ADD DUP3 MSTORE PUSH0 DUP1 DUP3 MSTORE PUSH1 0x1 PUSH1 0x1 PUSH1 0x40 SHL SUB PUSH1 0x20 DUP1 DUP5 ADD DUP3 SWAP1 MSTORE DUP5 MLOAD DUP4 DUP2 MSTORE SWAP1 DUP2 ADD SWAP1 SWAP5 MSTORE SWAP2 SWAP6 POP SWAP2 DUP3 PUSH2 0x11A3 JUMP JUMPDEST PUSH1 0x40 DUP1 MLOAD DUP1 DUP3 ADD SWAP1 SWAP2 MSTORE PUSH0 DUP2 MSTORE PUSH1 0x60 PUSH1 0x20 DUP3 ADD MSTORE DUP2 MSTORE PUSH1 0x20 ADD SWAP1 PUSH1 0x1 SWAP1 SUB SWAP1 DUP2 PUSH2 0x117C JUMPI SWAP1 POP JUMPDEST POP SWAP4 POP PUSH0 DUP1 PUSH2 0x11C2 PUSH1 0x40 DUP12 ADD CALLDATALOAD PUSH1 0x60 DUP13 ADD CALLDATALOAD PUSH2 0x9D4 PUSH1 0x20 DUP15 ADD DUP15 PUSH2 0x295C JUMP JUMPDEST PUSH1 0x40 DUP1 MLOAD DUP1 DUP3 ADD SWAP1 SWAP2 MSTORE SWAP2 DUP3 MSTORE PUSH1 0x20 DUP3 ADD MSTORE SWAP7 SWAP11 SWAP6 SWAP10 POP SWAP6 SWAP8 POP SWAP4 SWAP6 POP POP POP POP POP POP JUMP JUMPDEST PUSH2 0x11EE PUSH2 0x1894 JUMP JUMPDEST PUSH1 0x40 MLOAD PUSH4 0xCA5EB5E1 PUSH1 0xE0 SHL DUP2 MSTORE PUSH1 0x1 PUSH1 0x1 PUSH1 0xA0 SHL SUB DUP3 DUP2 AND PUSH1 0x4 DUP4 ADD MSTORE PUSH32 0x0 AND SWAP1 PUSH4 0xCA5EB5E1 SWAP1 PUSH1 0x24 ADD PUSH0 PUSH1 0x40 MLOAD DUP1 DUP4 SUB DUP2 PUSH0 DUP8 DUP1 EXTCODESIZE ISZERO DUP1 ISZERO PUSH2 0x124E JUMPI PUSH0 DUP1 REVERT JUMPDEST POP GAS CALL ISZERO DUP1 ISZERO PUSH2 0x1260 JUMPI RETURNDATASIZE PUSH0 DUP1 RETURNDATACOPY RETURNDATASIZE PUSH0 REVERT JUMPDEST POP POP POP POP POP JUMP JUMPDEST CALLER ADDRESS EQ PUSH2 0x1287 JUMPI PUSH1 0x40 MLOAD PUSH4 0x29A949D PUSH1 0xE3 SHL DUP2 MSTORE PUSH1 0x4 ADD PUSH1 0x40 MLOAD DUP1 SWAP2 SUB SWAP1 REVERT JUMPDEST PUSH2 0x8FA DUP8 DUP8 DUP8 DUP8 DUP8 DUP8 DUP8 PUSH2 0x8EB JUMP JUMPDEST PUSH2 0x129E PUSH2 0x1894 JUMP JUMPDEST PUSH1 0x2 DUP1 SLOAD PUSH1 0x1 PUSH1 0x1 PUSH1 0xA0 SHL SUB NOT AND PUSH1 0x1 PUSH1 0x1 PUSH1 0xA0 SHL SUB DUP4 AND SWAP1 DUP2 OR SWAP1 SWAP2 SSTORE PUSH1 0x40 MLOAD SWAP1 DUP2 MSTORE PUSH32 0xD48D879CEF83A1C0BDDA516F27B13DDB1B3F8BBAC1C9E1511BB2A659C2427760 SWAP1 PUSH1 0x20 ADD PUSH2 0xC0A JUMP JUMPDEST PUSH1 0x1 PUSH1 0x1 PUSH1 0xA0 SHL SUB SWAP2 DUP3 AND PUSH0 SWAP1 DUP2 MSTORE PUSH1 0x6 PUSH1 0x20 SWAP1 DUP2 MSTORE PUSH1 0x40 DUP1 DUP4 KECCAK256 SWAP4 SWAP1 SWAP5 AND DUP3 MSTORE SWAP2 SWAP1 SWAP2 MSTORE KECCAK256 SLOAD SWAP1 JUMP JUMPDEST PUSH2 0x131E PUSH2 0x1894 JUMP JUMPDEST PUSH1 0x1 PUSH1 0x1 PUSH1 0xA0 SHL SUB DUP2 AND PUSH2 0x1383 JUMPI PUSH1 0x40 MLOAD PUSH3 0x461BCD PUSH1 0xE5 SHL DUP2 MSTORE PUSH1 0x20 PUSH1 0x4 DUP3 ADD MSTORE PUSH1 0x26 PUSH1 0x24 DUP3 ADD MSTORE PUSH32 0x4F776E61626C653A206E6577206F776E657220697320746865207A65726F2061 PUSH1 0x44 DUP3 ADD MSTORE PUSH6 0x646472657373 PUSH1 0xD0 SHL PUSH1 0x64 DUP3 ADD MSTORE PUSH1 0x84 ADD PUSH2 0x88A JUMP JUMPDEST PUSH2 0x138C DUP2 PUSH2 0x1C59 JUMP JUMPDEST POP JUMP JUMPDEST PUSH0 PUSH1 0x20 DUP3 ADD DUP1 CALLDATALOAD SWAP1 PUSH1 0x1 SWAP1 DUP4 SWAP1 PUSH2 0x13A6 SWAP1 DUP7 PUSH2 0x295C JUMP JUMPDEST PUSH4 0xFFFFFFFF AND DUP2 MSTORE PUSH1 0x20 DUP2 ADD SWAP2 SWAP1 SWAP2 MSTORE PUSH1 0x40 ADD PUSH0 KECCAK256 SLOAD EQ SWAP3 SWAP2 POP POP JUMP JUMPDEST PUSH1 0x1 PUSH1 0x1 PUSH1 0xA0 SHL SUB DUP4 AND PUSH2 0x1425 JUMPI PUSH1 0x40 MLOAD PUSH3 0x461BCD PUSH1 0xE5 SHL DUP2 MSTORE PUSH1 0x20 PUSH1 0x4 DUP3 ADD MSTORE PUSH1 0x24 DUP1 DUP3 ADD MSTORE PUSH32 0x45524332303A20617070726F76652066726F6D20746865207A65726F20616464 PUSH1 0x44 DUP3 ADD MSTORE PUSH4 0x72657373 PUSH1 0xE0 SHL PUSH1 0x64 DUP3 ADD MSTORE PUSH1 0x84 ADD PUSH2 0x88A JUMP JUMPDEST PUSH1 0x1 PUSH1 0x1 PUSH1 0xA0 SHL SUB DUP3 AND PUSH2 0x1486 JUMPI PUSH1 0x40 MLOAD PUSH3 0x461BCD PUSH1 0xE5 SHL DUP2 MSTORE PUSH1 0x20 PUSH1 0x4 DUP3 ADD MSTORE PUSH1 0x22 PUSH1 0x24 DUP3 ADD MSTORE PUSH32 0x45524332303A20617070726F766520746F20746865207A65726F206164647265 PUSH1 0x44 DUP3 ADD MSTORE PUSH2 0x7373 PUSH1 0xF0 SHL PUSH1 0x64 DUP3 ADD MSTORE PUSH1 0x84 ADD PUSH2 0x88A JUMP JUMPDEST PUSH1 0x1 PUSH1 0x1 PUSH1 0xA0 SHL SUB DUP4 DUP2 AND PUSH0 DUP2 DUP2 MSTORE PUSH1 0x6 PUSH1 0x20 SWAP1 DUP2 MSTORE PUSH1 0x40 DUP1 DUP4 KECCAK256 SWAP5 DUP8 AND DUP1 DUP5 MSTORE SWAP5 DUP3 MSTORE SWAP2 DUP3 SWAP1 KECCAK256 DUP6 SWAP1 SSTORE SWAP1 MLOAD DUP5 DUP2 MSTORE PUSH32 0x8C5BE1E5EBEC7D5BD14F71427D1E84F3DD0314C0F7B2291E5B200AC8C7C3B925 SWAP2 ADD PUSH1 0x40 MLOAD DUP1 SWAP2 SUB SWAP1 LOG3 POP POP POP JUMP JUMPDEST PUSH4 0xFFFFFFFF DUP2 AND PUSH0 SWAP1 DUP2 MSTORE PUSH1 0x1 PUSH1 0x20 MSTORE PUSH1 0x40 DUP2 KECCAK256 SLOAD DUP1 PUSH2 0x83D JUMPI PUSH1 0x40 MLOAD PUSH4 0xF6FF4FB7 PUSH1 0xE0 SHL DUP2 MSTORE PUSH4 0xFFFFFFFF DUP5 AND PUSH1 0x4 DUP3 ADD MSTORE PUSH1 0x24 ADD PUSH2 0x88A JUMP JUMPDEST PUSH0 PUSH2 0x1532 PUSH2 0x152F DUP8 DUP8 PUSH2 0x1CEE JUMP JUMPDEST SWAP1 JUMP JUMPDEST SWAP1 POP PUSH0 PUSH2 0x1547 PUSH2 0x1542 DUP9 DUP9 PUSH2 0x1D05 JUMP JUMPDEST PUSH2 0x1D27 JUMP JUMPDEST SWAP1 POP PUSH0 PUSH2 0x1561 DUP4 DUP4 PUSH2 0x155C PUSH1 0x20 DUP15 ADD DUP15 PUSH2 0x295C JUMP JUMPDEST PUSH2 0x1D5B JUMP JUMPDEST SWAP1 POP PUSH1 0x28 DUP8 GT ISZERO PUSH2 0x1621 JUMPI PUSH0 PUSH2 0x159D PUSH2 0x1580 PUSH1 0x60 DUP14 ADD PUSH1 0x40 DUP15 ADD PUSH2 0x3031 JUMP JUMPDEST PUSH2 0x158D PUSH1 0x20 DUP15 ADD DUP15 PUSH2 0x295C JUMP JUMPDEST DUP5 PUSH2 0x1598 DUP14 DUP14 PUSH2 0x1D6E JUMP JUMPDEST PUSH2 0x1DB8 JUMP JUMPDEST PUSH1 0x40 MLOAD PUSH4 0x3E5AC809 PUSH1 0xE1 SHL DUP2 MSTORE SWAP1 SWAP2 POP PUSH1 0x1 PUSH1 0x1 PUSH1 0xA0 SHL SUB PUSH32 0x0 AND SWAP1 PUSH4 0x7CB59012 SWAP1 PUSH2 0x15F2 SWAP1 DUP8 SWAP1 DUP15 SWAP1 PUSH0 SWAP1 DUP8 SWAP1 PUSH1 0x4 ADD PUSH2 0x304C JUMP JUMPDEST PUSH0 PUSH1 0x40 MLOAD DUP1 DUP4 SUB DUP2 PUSH0 DUP8 DUP1 EXTCODESIZE ISZERO DUP1 ISZERO PUSH2 0x1609 JUMPI PUSH0 DUP1 REVERT JUMPDEST POP GAS CALL ISZERO DUP1 ISZERO PUSH2 0x161B JUMPI RETURNDATASIZE PUSH0 DUP1 RETURNDATACOPY RETURNDATASIZE PUSH0 REVERT JUMPDEST POP POP POP POP POP JUMPDEST PUSH1 0x40 DUP1 MLOAD DUP4 DUP2 MSTORE PUSH1 0x20 DUP2 ADD DUP4 SWAP1 MSTORE PUSH1 0x1 PUSH1 0x1 PUSH1 0xA0 SHL SUB DUP6 AND SWAP2 DUP12 SWAP2 PUSH32 0x80A66CF84DC0B742C17C4672EE6687D7CB340AB0E5D367AC6B02BED1A6489F8D SWAP2 ADD PUSH1 0x40 MLOAD DUP1 SWAP2 SUB SWAP1 LOG3 POP POP POP POP POP POP POP POP POP POP JUMP JUMPDEST PUSH0 PUSH2 0x167E DUP5 DUP5 PUSH2 0x12EC JUMP JUMPDEST SWAP1 POP PUSH0 NOT DUP2 EQ PUSH2 0x16E5 JUMPI DUP2 DUP2 LT ISZERO PUSH2 0x16D8 JUMPI PUSH1 0x40 MLOAD PUSH3 0x461BCD PUSH1 0xE5 SHL DUP2 MSTORE PUSH1 0x20 PUSH1 0x4 DUP3 ADD MSTORE PUSH1 0x1D PUSH1 0x24 DUP3 ADD MSTORE PUSH32 0x45524332303A20696E73756666696369656E7420616C6C6F77616E6365000000 PUSH1 0x44 DUP3 ADD MSTORE PUSH1 0x64 ADD PUSH2 0x88A JUMP JUMPDEST PUSH2 0x16E5 DUP5 DUP5 DUP5 DUP5 SUB PUSH2 0x13C3 JUMP JUMPDEST POP POP POP POP JUMP JUMPDEST PUSH1 0x1 PUSH1 0x1 PUSH1 0xA0 SHL SUB DUP4 AND PUSH2 0x174F JUMPI PUSH1 0x40 MLOAD PUSH3 0x461BCD PUSH1 0xE5 SHL DUP2 MSTORE PUSH1 0x20 PUSH1 0x4 DUP3 ADD MSTORE PUSH1 0x25 PUSH1 0x24 DUP3 ADD MSTORE PUSH32 0x45524332303A207472616E736665722066726F6D20746865207A65726F206164 PUSH1 0x44 DUP3 ADD MSTORE PUSH5 0x6472657373 PUSH1 0xD8 SHL PUSH1 0x64 DUP3 ADD MSTORE PUSH1 0x84 ADD PUSH2 0x88A JUMP JUMPDEST PUSH1 0x1 PUSH1 0x1 PUSH1 0xA0 SHL SUB DUP3 AND PUSH2 0x17B1 JUMPI PUSH1 0x40 MLOAD PUSH3 0x461BCD PUSH1 0xE5 SHL DUP2 MSTORE PUSH1 0x20 PUSH1 0x4 DUP3 ADD MSTORE PUSH1 0x23 PUSH1 0x24 DUP3 ADD MSTORE PUSH32 0x45524332303A207472616E7366657220746F20746865207A65726F2061646472 PUSH1 0x44 DUP3 ADD MSTORE PUSH3 0x657373 PUSH1 0xE8 SHL PUSH1 0x64 DUP3 ADD MSTORE PUSH1 0x84 ADD PUSH2 0x88A JUMP JUMPDEST PUSH1 0x1 PUSH1 0x1 PUSH1 0xA0 SHL SUB DUP4 AND PUSH0 SWAP1 DUP2 MSTORE PUSH1 0x5 PUSH1 0x20 MSTORE PUSH1 0x40 SWAP1 KECCAK256 SLOAD DUP2 DUP2 LT ISZERO PUSH2 0x1828 JUMPI PUSH1 0x40 MLOAD PUSH3 0x461BCD PUSH1 0xE5 SHL DUP2 MSTORE PUSH1 0x20 PUSH1 0x4 DUP3 ADD MSTORE PUSH1 0x26 PUSH1 0x24 DUP3 ADD MSTORE PUSH32 0x45524332303A207472616E7366657220616D6F756E7420657863656564732062 PUSH1 0x44 DUP3 ADD MSTORE PUSH6 0x616C616E6365 PUSH1 0xD0 SHL PUSH1 0x64 DUP3 ADD MSTORE PUSH1 0x84 ADD PUSH2 0x88A JUMP JUMPDEST PUSH1 0x1 PUSH1 0x1 PUSH1 0xA0 SHL SUB DUP1 DUP6 AND PUSH0 DUP2 DUP2 MSTORE PUSH1 0x5 PUSH1 0x20 MSTORE PUSH1 0x40 DUP1 DUP3 KECCAK256 DUP7 DUP7 SUB SWAP1 SSTORE SWAP3 DUP7 AND DUP1 DUP3 MSTORE SWAP1 DUP4 SWAP1 KECCAK256 DUP1 SLOAD DUP7 ADD SWAP1 SSTORE SWAP2 MLOAD PUSH32 0xDDF252AD1BE2C89B69C2B068FC378DAA952BA7F163C4A11628F55A4DF523B3EF SWAP1 PUSH2 0x1887 SWAP1 DUP7 DUP2 MSTORE PUSH1 0x20 ADD SWAP1 JUMP JUMPDEST PUSH1 0x40 MLOAD DUP1 SWAP2 SUB SWAP1 LOG3 PUSH2 0x16E5 JUMP JUMPDEST PUSH0 SLOAD PUSH1 0x1 PUSH1 0x1 PUSH1 0xA0 SHL SUB AND CALLER EQ PUSH2 0xC26 JUMPI PUSH1 0x40 MLOAD PUSH3 0x461BCD PUSH1 0xE5 SHL DUP2 MSTORE PUSH1 0x20 PUSH1 0x4 DUP3 ADD DUP2 SWAP1 MSTORE PUSH1 0x24 DUP3 ADD MSTORE PUSH32 0x4F776E61626C653A2063616C6C6572206973206E6F7420746865206F776E6572 PUSH1 0x44 DUP3 ADD MSTORE PUSH1 0x64 ADD PUSH2 0x88A JUMP JUMPDEST PUSH0 DUP1 PUSH2 0x18F8 DUP6 PUSH2 0x1DEA JUMP JUMPDEST SWAP2 POP DUP2 SWAP1 POP DUP4 DUP2 LT ISZERO PUSH2 0x1928 JUMPI PUSH1 0x40 MLOAD PUSH4 0x71C4EFED PUSH1 0xE0 SHL DUP2 MSTORE PUSH1 0x4 DUP2 ADD DUP3 SWAP1 MSTORE PUSH1 0x24 DUP2 ADD DUP6 SWAP1 MSTORE PUSH1 0x44 ADD PUSH2 0x88A JUMP JUMPDEST SWAP4 POP SWAP4 SWAP2 POP POP JUMP JUMPDEST PUSH1 0x60 DUP1 PUSH0 PUSH2 0x1980 DUP10 PUSH1 0x20 ADD CALLDATALOAD PUSH2 0x1945 DUP7 PUSH2 0x1E20 JUMP JUMPDEST DUP9 DUP9 DUP1 DUP1 PUSH1 0x1F ADD PUSH1 0x20 DUP1 SWAP2 DIV MUL PUSH1 0x20 ADD PUSH1 0x40 MLOAD SWAP1 DUP2 ADD PUSH1 0x40 MSTORE DUP1 SWAP4 SWAP3 SWAP2 SWAP1 DUP2 DUP2 MSTORE PUSH1 0x20 ADD DUP4 DUP4 DUP1 DUP3 DUP5 CALLDATACOPY PUSH0 SWAP3 ADD SWAP2 SWAP1 SWAP2 MSTORE POP PUSH2 0x1E4B SWAP3 POP POP POP JUMP JUMPDEST SWAP1 SWAP4 POP SWAP1 POP PUSH0 DUP2 PUSH2 0x1992 JUMPI PUSH1 0x1 PUSH2 0x1995 JUMP JUMPDEST PUSH1 0x2 JUMPDEST SWAP1 POP PUSH2 0x19AF PUSH2 0x19A7 PUSH1 0x20 DUP13 ADD DUP13 PUSH2 0x295C JUMP JUMPDEST DUP3 DUP12 DUP12 PUSH2 0xE25 JUMP JUMPDEST PUSH1 0x4 SLOAD SWAP1 SWAP4 POP PUSH1 0x1 PUSH1 0x1 PUSH1 0xA0 SHL SUB AND ISZERO PUSH2 0x1A35 JUMPI PUSH1 0x4 DUP1 SLOAD PUSH1 0x40 MLOAD PUSH4 0x43A78EB PUSH1 0xE0 SHL DUP2 MSTORE PUSH1 0x1 PUSH1 0x1 PUSH1 0xA0 SHL SUB SWAP1 SWAP2 AND SWAP2 PUSH4 0x43A78EB SWAP2 PUSH2 0x19F4 SWAP2 DUP9 SWAP2 DUP9 SWAP2 ADD PUSH2 0x307C JUMP JUMPDEST PUSH1 0x20 PUSH1 0x40 MLOAD DUP1 DUP4 SUB DUP2 DUP7 GAS STATICCALL ISZERO DUP1 ISZERO PUSH2 0x1A0F JUMPI RETURNDATASIZE PUSH0 DUP1 RETURNDATACOPY RETURNDATASIZE PUSH0 REVERT JUMPDEST POP POP POP POP PUSH1 0x40 MLOAD RETURNDATASIZE PUSH1 0x1F NOT PUSH1 0x1F DUP3 ADD AND DUP3 ADD DUP1 PUSH1 0x40 MSTORE POP DUP2 ADD SWAP1 PUSH2 0x1A33 SWAP2 SWAP1 PUSH2 0x30A0 JUMP JUMPDEST POP JUMPDEST POP POP SWAP7 POP SWAP7 SWAP5 POP POP POP POP POP JUMP JUMPDEST PUSH1 0x40 DUP1 MLOAD DUP1 DUP3 ADD SWAP1 SWAP2 MSTORE PUSH0 DUP1 DUP3 MSTORE PUSH1 0x20 DUP3 ADD MSTORE PUSH32 0x0 PUSH1 0x1 PUSH1 0x1 PUSH1 0xA0 SHL SUB AND PUSH4 0xDDC28C58 PUSH1 0x40 MLOAD DUP1 PUSH1 0xA0 ADD PUSH1 0x40 MSTORE DUP1 DUP9 PUSH4 0xFFFFFFFF AND DUP2 MSTORE PUSH1 0x20 ADD PUSH2 0x1AA4 DUP10 PUSH2 0x14E6 JUMP JUMPDEST DUP2 MSTORE PUSH1 0x20 ADD DUP8 DUP2 MSTORE PUSH1 0x20 ADD DUP7 DUP2 MSTORE PUSH1 0x20 ADD DUP6 ISZERO ISZERO DUP2 MSTORE POP ADDRESS PUSH1 0x40 MLOAD DUP4 PUSH4 0xFFFFFFFF AND PUSH1 0xE0 SHL DUP2 MSTORE PUSH1 0x4 ADD PUSH2 0x1AD9 SWAP3 SWAP2 SWAP1 PUSH2 0x30BB JUMP JUMPDEST PUSH1 0x40 DUP1 MLOAD DUP1 DUP4 SUB DUP2 DUP7 GAS STATICCALL ISZERO DUP1 ISZERO PUSH2 0x1AF3 JUMPI RETURNDATASIZE PUSH0 DUP1 RETURNDATACOPY RETURNDATASIZE PUSH0 REVERT JUMPDEST POP POP POP POP PUSH1 0x40 MLOAD RETURNDATASIZE PUSH1 0x1F NOT PUSH1 0x1F DUP3 ADD AND DUP3 ADD DUP1 PUSH1 0x40 MSTORE POP DUP2 ADD SWAP1 PUSH2 0x1B17 SWAP2 SWAP1 PUSH2 0x3161 JUMP JUMPDEST SWAP6 SWAP5 POP POP POP POP POP JUMP JUMPDEST PUSH0 DUP1 DUP5 ISZERO PUSH2 0x1B3D JUMPI PUSH2 0x1B33 DUP6 DUP6 DUP6 PUSH2 0x1EC5 JUMP JUMPDEST SWAP1 SWAP3 POP SWAP1 POP PUSH2 0x1928 JUMP JUMPDEST PUSH2 0x1B47 DUP5 DUP5 PUSH2 0x1EE1 JUMP JUMPDEST SWAP1 SWAP7 SWAP1 SWAP6 POP SWAP4 POP POP POP POP JUMP JUMPDEST PUSH2 0x1B5B PUSH2 0x2431 JUMP JUMPDEST PUSH0 PUSH2 0x1B68 DUP5 PUSH0 ADD MLOAD PUSH2 0x1F13 JUMP JUMPDEST PUSH1 0x20 DUP6 ADD MLOAD SWAP1 SWAP2 POP ISZERO PUSH2 0x1B82 JUMPI PUSH2 0x1B82 DUP5 PUSH1 0x20 ADD MLOAD PUSH2 0x1F3A JUMP JUMPDEST PUSH32 0x0 PUSH1 0x1 PUSH1 0x1 PUSH1 0xA0 SHL SUB AND PUSH4 0x2637A450 DUP3 PUSH1 0x40 MLOAD DUP1 PUSH1 0xA0 ADD PUSH1 0x40 MSTORE DUP1 DUP12 PUSH4 0xFFFFFFFF AND DUP2 MSTORE PUSH1 0x20 ADD PUSH2 0x1BD2 DUP13 PUSH2 0x14E6 JUMP JUMPDEST DUP2 MSTORE PUSH1 0x20 ADD DUP11 DUP2 MSTORE PUSH1 0x20 ADD DUP10 DUP2 MSTORE PUSH1 0x20 ADD PUSH0 DUP10 PUSH1 0x20 ADD MLOAD GT ISZERO ISZERO DUP2 MSTORE POP DUP7 PUSH1 0x40 MLOAD DUP5 PUSH4 0xFFFFFFFF AND PUSH1 0xE0 SHL DUP2 MSTORE PUSH1 0x4 ADD PUSH2 0x1C0D SWAP3 SWAP2 SWAP1 PUSH2 0x30BB JUMP JUMPDEST PUSH1 0x80 PUSH1 0x40 MLOAD DUP1 DUP4 SUB DUP2 DUP6 DUP9 GAS CALL ISZERO DUP1 ISZERO PUSH2 0x1C29 JUMPI RETURNDATASIZE PUSH0 DUP1 RETURNDATACOPY RETURNDATASIZE PUSH0 REVERT JUMPDEST POP POP POP POP POP PUSH1 0x40 MLOAD RETURNDATASIZE PUSH1 0x1F NOT PUSH1 0x1F DUP3 ADD AND DUP3 ADD DUP1 PUSH1 0x40 MSTORE POP DUP2 ADD SWAP1 PUSH2 0x1C4E SWAP2 SWAP1 PUSH2 0x317B JUMP JUMPDEST SWAP8 SWAP7 POP POP POP POP POP POP POP JUMP JUMPDEST PUSH0 DUP1 SLOAD PUSH1 0x1 PUSH1 0x1 PUSH1 0xA0 SHL SUB DUP4 DUP2 AND PUSH1 0x1 PUSH1 0x1 PUSH1 0xA0 SHL SUB NOT DUP4 AND DUP2 OR DUP5 SSTORE PUSH1 0x40 MLOAD SWAP2 SWAP1 SWAP3 AND SWAP3 DUP4 SWAP2 PUSH32 0x8BE0079C531659141344CD1FD0A4F28419497F9722A3DAAFE3B4186F6B6457E0 SWAP2 SWAP1 LOG3 POP POP JUMP JUMPDEST PUSH0 PUSH2 0x1CB6 PUSH1 0x2 DUP3 DUP5 DUP7 PUSH2 0x2E87 JUMP JUMPDEST PUSH2 0x1CBF SWAP2 PUSH2 0x31E0 JUMP JUMPDEST PUSH1 0xF0 SHR SWAP1 POP PUSH1 0x3 DUP2 EQ PUSH2 0x1CE9 JUMPI DUP3 DUP3 PUSH1 0x40 MLOAD PUSH4 0x9A6D49CD PUSH1 0xE0 SHL DUP2 MSTORE PUSH1 0x4 ADD PUSH2 0x88A SWAP3 SWAP2 SWAP1 PUSH2 0x2ED4 JUMP JUMPDEST POP POP POP JUMP JUMPDEST PUSH0 PUSH2 0x1CFC PUSH1 0x20 DUP3 DUP5 DUP7 PUSH2 0x2E87 JUMP JUMPDEST PUSH2 0x921 SWAP2 PUSH2 0x3210 JUMP JUMPDEST PUSH0 PUSH2 0x1D14 PUSH1 0x28 PUSH1 0x20 DUP5 DUP7 PUSH2 0x2E87 JUMP JUMPDEST PUSH2 0x1D1D SWAP2 PUSH2 0x322D JUMP JUMPDEST PUSH1 0xC0 SHR SWAP4 SWAP3 POP POP POP JUMP JUMPDEST PUSH0 PUSH2 0x83D PUSH32 0x0 PUSH1 0x1 PUSH1 0x1 PUSH1 0x40 SHL SUB DUP5 AND PUSH2 0x325B JUMP JUMPDEST PUSH0 PUSH2 0x1D66 DUP5 DUP5 PUSH2 0x201D JUMP JUMPDEST POP SWAP1 SWAP3 SWAP2 POP POP JUMP JUMPDEST PUSH1 0x60 PUSH2 0x1D7D DUP3 PUSH1 0x28 DUP2 DUP7 PUSH2 0x2E87 JUMP JUMPDEST DUP1 DUP1 PUSH1 0x1F ADD PUSH1 0x20 DUP1 SWAP2 DIV MUL PUSH1 0x20 ADD PUSH1 0x40 MLOAD SWAP1 DUP2 ADD PUSH1 0x40 MSTORE DUP1 SWAP4 SWAP3 SWAP2 SWAP1 DUP2 DUP2 MSTORE PUSH1 0x20 ADD DUP4 DUP4 DUP1 DUP3 DUP5 CALLDATACOPY PUSH0 SWAP3 ADD SWAP2 SWAP1 SWAP2 MSTORE POP SWAP3 SWAP7 SWAP6 POP POP POP POP POP POP JUMP JUMPDEST PUSH1 0x60 DUP5 DUP5 DUP5 DUP5 PUSH1 0x40 MLOAD PUSH1 0x20 ADD PUSH2 0x1DD1 SWAP5 SWAP4 SWAP3 SWAP2 SWAP1 PUSH2 0x3272 JUMP JUMPDEST PUSH1 0x40 MLOAD PUSH1 0x20 DUP2 DUP4 SUB SUB DUP2 MSTORE SWAP1 PUSH1 0x40 MSTORE SWAP1 POP SWAP5 SWAP4 POP POP POP POP JUMP JUMPDEST PUSH0 PUSH32 0x0 PUSH2 0x1E16 DUP2 DUP5 PUSH2 0x32C0 JUMP JUMPDEST PUSH2 0x83D SWAP2 SWAP1 PUSH2 0x325B JUMP JUMPDEST PUSH0 PUSH2 0x83D PUSH32 0x0 DUP4 PUSH2 0x32C0 JUMP JUMPDEST DUP1 MLOAD PUSH1 0x60 SWAP1 ISZERO ISZERO DUP1 PUSH2 0x1E94 JUMPI DUP5 DUP5 PUSH1 0x40 MLOAD PUSH1 0x20 ADD PUSH2 0x1E80 SWAP3 SWAP2 SWAP1 SWAP2 DUP3 MSTORE PUSH1 0xC0 SHL PUSH1 0x1 PUSH1 0x1 PUSH1 0xC0 SHL SUB NOT AND PUSH1 0x20 DUP3 ADD MSTORE PUSH1 0x28 ADD SWAP1 JUMP JUMPDEST PUSH1 0x40 MLOAD PUSH1 0x20 DUP2 DUP4 SUB SUB DUP2 MSTORE SWAP1 PUSH1 0x40 MSTORE PUSH2 0x1EBB JUMP JUMPDEST DUP5 DUP5 CALLER DUP6 PUSH1 0x40 MLOAD PUSH1 0x20 ADD PUSH2 0x1EAB SWAP5 SWAP4 SWAP3 SWAP2 SWAP1 PUSH2 0x32DF JUMP JUMPDEST PUSH1 0x40 MLOAD PUSH1 0x20 DUP2 DUP4 SUB SUB DUP2 MSTORE SWAP1 PUSH1 0x40 MSTORE JUMPDEST SWAP2 POP SWAP4 POP SWAP4 SWAP2 POP POP JUMP JUMPDEST PUSH0 DUP1 PUSH2 0x1ED2 DUP6 DUP6 DUP6 PUSH2 0x18ED JUMP JUMPDEST SWAP1 SWAP3 POP SWAP1 POP PUSH2 0x1928 CALLER DUP4 PUSH2 0x20DC JUMP JUMPDEST ADDRESS PUSH0 SWAP1 DUP2 MSTORE PUSH1 0x5 PUSH1 0x20 MSTORE PUSH1 0x40 DUP2 KECCAK256 SLOAD DUP2 SWAP1 PUSH2 0x1EFD SWAP1 DUP6 DUP6 PUSH2 0x18ED JUMP JUMPDEST SWAP1 SWAP3 POP SWAP1 POP PUSH2 0x1F0C ADDRESS DUP4 PUSH2 0x20DC JUMP JUMPDEST SWAP3 POP SWAP3 SWAP1 POP JUMP JUMPDEST PUSH0 DUP2 CALLVALUE EQ PUSH2 0x1F36 JUMPI PUSH1 0x40 MLOAD PUSH4 0x4FB8209 PUSH1 0xE5 SHL DUP2 MSTORE CALLVALUE PUSH1 0x4 DUP3 ADD MSTORE PUSH1 0x24 ADD PUSH2 0x88A JUMP JUMPDEST POP SWAP1 JUMP JUMPDEST PUSH0 PUSH32 0x0 PUSH1 0x1 PUSH1 0x1 PUSH1 0xA0 SHL SUB AND PUSH4 0xE4FE1D94 PUSH1 0x40 MLOAD DUP2 PUSH4 0xFFFFFFFF AND PUSH1 0xE0 SHL DUP2 MSTORE PUSH1 0x4 ADD PUSH1 0x20 PUSH1 0x40 MLOAD DUP1 DUP4 SUB DUP2 DUP7 GAS STATICCALL ISZERO DUP1 ISZERO PUSH2 0x1F97 JUMPI RETURNDATASIZE PUSH0 DUP1 RETURNDATACOPY RETURNDATASIZE PUSH0 REVERT JUMPDEST POP POP POP POP PUSH1 0x40 MLOAD RETURNDATASIZE PUSH1 0x1F NOT PUSH1 0x1F DUP3 ADD AND DUP3 ADD DUP1 PUSH1 0x40 MSTORE POP DUP2 ADD SWAP1 PUSH2 0x1FBB SWAP2 SWAP1 PUSH2 0x3321 JUMP JUMPDEST SWAP1 POP PUSH1 0x1 PUSH1 0x1 PUSH1 0xA0 SHL SUB DUP2 AND PUSH2 0x1FE4 JUMPI PUSH1 0x40 MLOAD PUSH4 0x29B99A95 PUSH1 0xE1 SHL DUP2 MSTORE PUSH1 0x4 ADD PUSH1 0x40 MLOAD DUP1 SWAP2 SUB SWAP1 REVERT JUMPDEST PUSH2 0x2019 PUSH1 0x1 PUSH1 0x1 PUSH1 0xA0 SHL SUB DUP3 AND CALLER PUSH32 0x0 DUP6 PUSH2 0x220E JUMP JUMPDEST POP POP JUMP JUMPDEST PUSH1 0x1 PUSH1 0x1 PUSH1 0xA0 SHL SUB DUP3 AND PUSH2 0x2073 JUMPI PUSH1 0x40 MLOAD PUSH3 0x461BCD PUSH1 0xE5 SHL DUP2 MSTORE PUSH1 0x20 PUSH1 0x4 DUP3 ADD MSTORE PUSH1 0x1F PUSH1 0x24 DUP3 ADD MSTORE PUSH32 0x45524332303A206D696E7420746F20746865207A65726F206164647265737300 PUSH1 0x44 DUP3 ADD MSTORE PUSH1 0x64 ADD PUSH2 0x88A JUMP JUMPDEST DUP1 PUSH1 0x7 PUSH0 DUP3 DUP3 SLOAD PUSH2 0x2084 SWAP2 SWAP1 PUSH2 0x2B4E JUMP JUMPDEST SWAP1 SWAP2 SSTORE POP POP PUSH1 0x1 PUSH1 0x1 PUSH1 0xA0 SHL SUB DUP3 AND PUSH0 DUP2 DUP2 MSTORE PUSH1 0x5 PUSH1 0x20 SWAP1 DUP2 MSTORE PUSH1 0x40 DUP1 DUP4 KECCAK256 DUP1 SLOAD DUP7 ADD SWAP1 SSTORE MLOAD DUP5 DUP2 MSTORE PUSH32 0xDDF252AD1BE2C89B69C2B068FC378DAA952BA7F163C4A11628F55A4DF523B3EF SWAP2 ADD PUSH1 0x40 MLOAD DUP1 SWAP2 SUB SWAP1 LOG3 POP POP JUMP JUMPDEST PUSH1 0x1 PUSH1 0x1 PUSH1 0xA0 SHL SUB DUP3 AND PUSH2 0x213C JUMPI PUSH1 0x40 MLOAD PUSH3 0x461BCD PUSH1 0xE5 SHL DUP2 MSTORE PUSH1 0x20 PUSH1 0x4 DUP3 ADD MSTORE PUSH1 0x21 PUSH1 0x24 DUP3 ADD MSTORE PUSH32 0x45524332303A206275726E2066726F6D20746865207A65726F20616464726573 PUSH1 0x44 DUP3 ADD MSTORE PUSH1 0x73 PUSH1 0xF8 SHL PUSH1 0x64 DUP3 ADD MSTORE PUSH1 0x84 ADD PUSH2 0x88A JUMP JUMPDEST PUSH1 0x1 PUSH1 0x1 PUSH1 0xA0 SHL SUB DUP3 AND PUSH0 SWAP1 DUP2 MSTORE PUSH1 0x5 PUSH1 0x20 MSTORE PUSH1 0x40 SWAP1 KECCAK256 SLOAD DUP2 DUP2 LT ISZERO PUSH2 0x21AF JUMPI PUSH1 0x40 MLOAD PUSH3 0x461BCD PUSH1 0xE5 SHL DUP2 MSTORE PUSH1 0x20 PUSH1 0x4 DUP3 ADD MSTORE PUSH1 0x22 PUSH1 0x24 DUP3 ADD MSTORE PUSH32 0x45524332303A206275726E20616D6F756E7420657863656564732062616C616E PUSH1 0x44 DUP3 ADD MSTORE PUSH2 0x6365 PUSH1 0xF0 SHL PUSH1 0x64 DUP3 ADD MSTORE PUSH1 0x84 ADD PUSH2 0x88A JUMP JUMPDEST PUSH1 0x1 PUSH1 0x1 PUSH1 0xA0 SHL SUB DUP4 AND PUSH0 DUP2 DUP2 MSTORE PUSH1 0x5 PUSH1 0x20 SWAP1 DUP2 MSTORE PUSH1 0x40 DUP1 DUP4 KECCAK256 DUP7 DUP7 SUB SWAP1 SSTORE PUSH1 0x7 DUP1 SLOAD DUP8 SWAP1 SUB SWAP1 SSTORE MLOAD DUP6 DUP2 MSTORE SWAP2 SWAP3 SWAP2 PUSH32 0xDDF252AD1BE2C89B69C2B068FC378DAA952BA7F163C4A11628F55A4DF523B3EF SWAP2 ADD PUSH1 0x40 MLOAD DUP1 SWAP2 SUB SWAP1 LOG3 POP POP POP JUMP JUMPDEST PUSH1 0x40 DUP1 MLOAD PUSH1 0x1 PUSH1 0x1 PUSH1 0xA0 SHL SUB DUP6 DUP2 AND PUSH1 0x24 DUP4 ADD MSTORE DUP5 DUP2 AND PUSH1 0x44 DUP4 ADD MSTORE PUSH1 0x64 DUP1 DUP4 ADD DUP6 SWAP1 MSTORE DUP4 MLOAD DUP1 DUP5 SUB SWAP1 SWAP2 ADD DUP2 MSTORE PUSH1 0x84 SWAP1 SWAP3 ADD DUP4 MSTORE PUSH1 0x20 DUP1 DUP4 ADD DUP1 MLOAD PUSH1 0x1 PUSH1 0x1 PUSH1 0xE0 SHL SUB AND PUSH4 0x23B872DD PUSH1 0xE0 SHL OR SWAP1 MSTORE DUP4 MLOAD DUP1 DUP6 ADD SWAP1 SWAP5 MSTORE DUP1 DUP5 MSTORE PUSH32 0x5361666545524332303A206C6F772D6C6576656C2063616C6C206661696C6564 SWAP1 DUP5 ADD MSTORE PUSH2 0x16E5 SWAP3 DUP8 SWAP3 SWAP2 PUSH0 SWAP2 PUSH2 0x22A5 SWAP2 DUP6 AND SWAP1 DUP5 SWAP1 PUSH2 0x2324 JUMP JUMPDEST SWAP1 POP DUP1 MLOAD PUSH0 EQ DUP1 PUSH2 0x22C5 JUMPI POP DUP1 DUP1 PUSH1 0x20 ADD SWAP1 MLOAD DUP2 ADD SWAP1 PUSH2 0x22C5 SWAP2 SWAP1 PUSH2 0x30A0 JUMP JUMPDEST PUSH2 0x1CE9 JUMPI PUSH1 0x40 MLOAD PUSH3 0x461BCD PUSH1 0xE5 SHL DUP2 MSTORE PUSH1 0x20 PUSH1 0x4 DUP3 ADD MSTORE PUSH1 0x2A PUSH1 0x24 DUP3 ADD MSTORE PUSH32 0x5361666545524332303A204552433230206F7065726174696F6E20646964206E PUSH1 0x44 DUP3 ADD MSTORE PUSH10 0x1BDD081CDD58D8D95959 PUSH1 0xB2 SHL PUSH1 0x64 DUP3 ADD MSTORE PUSH1 0x84 ADD PUSH2 0x88A JUMP JUMPDEST PUSH1 0x60 PUSH2 0xF92 DUP5 DUP5 PUSH0 DUP6 DUP6 PUSH0 DUP1 DUP7 PUSH1 0x1 PUSH1 0x1 PUSH1 0xA0 SHL SUB AND DUP6 DUP8 PUSH1 0x40 MLOAD PUSH2 0x2349 SWAP2 SWAP1 PUSH2 0x333C JUMP JUMPDEST PUSH0 PUSH1 0x40 MLOAD DUP1 DUP4 SUB DUP2 DUP6 DUP8 GAS CALL SWAP3 POP POP POP RETURNDATASIZE DUP1 PUSH0 DUP2 EQ PUSH2 0x2383 JUMPI PUSH1 0x40 MLOAD SWAP2 POP PUSH1 0x1F NOT PUSH1 0x3F RETURNDATASIZE ADD AND DUP3 ADD PUSH1 0x40 MSTORE RETURNDATASIZE DUP3 MSTORE RETURNDATASIZE PUSH0 PUSH1 0x20 DUP5 ADD RETURNDATACOPY PUSH2 0x2388 JUMP JUMPDEST PUSH1 0x60 SWAP2 POP JUMPDEST POP SWAP2 POP SWAP2 POP PUSH2 0x1C4E DUP8 DUP4 DUP4 DUP8 PUSH1 0x60 DUP4 ISZERO PUSH2 0x2402 JUMPI DUP3 MLOAD PUSH0 SUB PUSH2 0x23FB JUMPI PUSH1 0x1 PUSH1 0x1 PUSH1 0xA0 SHL SUB DUP6 AND EXTCODESIZE PUSH2 0x23FB JUMPI PUSH1 0x40 MLOAD PUSH3 0x461BCD PUSH1 0xE5 SHL DUP2 MSTORE PUSH1 0x20 PUSH1 0x4 DUP3 ADD MSTORE PUSH1 0x1D PUSH1 0x24 DUP3 ADD MSTORE PUSH32 0x416464726573733A2063616C6C20746F206E6F6E2D636F6E7472616374000000 PUSH1 0x44 DUP3 ADD MSTORE PUSH1 0x64 ADD PUSH2 0x88A JUMP JUMPDEST POP DUP2 PUSH2 0xF92 JUMP JUMPDEST PUSH2 0xF92 DUP4 DUP4 DUP2 MLOAD ISZERO PUSH2 0x2417 JUMPI DUP2 MLOAD DUP1 DUP4 PUSH1 0x20 ADD REVERT JUMPDEST DUP1 PUSH1 0x40 MLOAD PUSH3 0x461BCD PUSH1 0xE5 SHL DUP2 MSTORE PUSH1 0x4 ADD PUSH2 0x88A SWAP2 SWAP1 PUSH2 0x24C1 JUMP JUMPDEST PUSH1 0x40 MLOAD DUP1 PUSH1 0x60 ADD PUSH1 0x40 MSTORE DUP1 PUSH0 DUP1 NOT AND DUP2 MSTORE PUSH1 0x20 ADD PUSH0 PUSH1 0x1 PUSH1 0x1 PUSH1 0x40 SHL SUB AND DUP2 MSTORE PUSH1 0x20 ADD PUSH2 0x246F PUSH1 0x40 MLOAD DUP1 PUSH1 0x40 ADD PUSH1 0x40 MSTORE DUP1 PUSH0 DUP2 MSTORE PUSH1 0x20 ADD PUSH0 DUP2 MSTORE POP SWAP1 JUMP JUMPDEST SWAP1 MSTORE SWAP1 JUMP JUMPDEST PUSH0 JUMPDEST DUP4 DUP2 LT ISZERO PUSH2 0x248E JUMPI DUP2 DUP2 ADD MLOAD DUP4 DUP3 ADD MSTORE PUSH1 0x20 ADD PUSH2 0x2476 JUMP JUMPDEST POP POP PUSH0 SWAP2 ADD MSTORE JUMP JUMPDEST PUSH0 DUP2 MLOAD DUP1 DUP5 MSTORE PUSH2 0x24AD DUP2 PUSH1 0x20 DUP7 ADD PUSH1 0x20 DUP7 ADD PUSH2 0x2474 JUMP JUMPDEST PUSH1 0x1F ADD PUSH1 0x1F NOT AND SWAP3 SWAP1 SWAP3 ADD PUSH1 0x20 ADD SWAP3 SWAP2 POP POP JUMP JUMPDEST PUSH1 0x20 DUP2 MSTORE PUSH0 PUSH2 0x921 PUSH1 0x20 DUP4 ADD DUP5 PUSH2 0x2496 JUMP JUMPDEST PUSH1 0x1 PUSH1 0x1 PUSH1 0xA0 SHL SUB DUP2 AND DUP2 EQ PUSH2 0x138C JUMPI PUSH0 DUP1 REVERT JUMPDEST DUP1 CALLDATALOAD PUSH2 0x24F2 DUP2 PUSH2 0x24D3 JUMP JUMPDEST SWAP2 SWAP1 POP JUMP JUMPDEST PUSH0 DUP1 PUSH1 0x40 DUP4 DUP6 SUB SLT ISZERO PUSH2 0x2508 JUMPI PUSH0 DUP1 REVERT JUMPDEST DUP3 CALLDATALOAD PUSH2 0x2513 DUP2 PUSH2 0x24D3 JUMP JUMPDEST SWAP5 PUSH1 0x20 SWAP4 SWAP1 SWAP4 ADD CALLDATALOAD SWAP4 POP POP POP JUMP JUMPDEST PUSH0 PUSH1 0x60 DUP3 DUP5 SUB SLT ISZERO PUSH2 0x2531 JUMPI PUSH0 DUP1 REVERT JUMPDEST POP SWAP2 SWAP1 POP JUMP JUMPDEST PUSH0 DUP1 DUP4 PUSH1 0x1F DUP5 ADD SLT PUSH2 0x2547 JUMPI PUSH0 DUP1 REVERT JUMPDEST POP DUP2 CALLDATALOAD PUSH1 0x1 PUSH1 0x1 PUSH1 0x40 SHL SUB DUP2 GT ISZERO PUSH2 0x255D JUMPI PUSH0 DUP1 REVERT JUMPDEST PUSH1 0x20 DUP4 ADD SWAP2 POP DUP4 PUSH1 0x20 DUP3 DUP6 ADD ADD GT ISZERO PUSH2 0x1F0C JUMPI PUSH0 DUP1 REVERT JUMPDEST PUSH0 DUP1 PUSH0 DUP1 PUSH0 DUP1 PUSH0 PUSH1 0xE0 DUP9 DUP11 SUB SLT ISZERO PUSH2 0x258A JUMPI PUSH0 DUP1 REVERT JUMPDEST PUSH2 0x2594 DUP10 DUP10 PUSH2 0x2521 JUMP JUMPDEST SWAP7 POP PUSH1 0x60 DUP9 ADD CALLDATALOAD SWAP6 POP PUSH1 0x80 DUP9 ADD CALLDATALOAD PUSH1 0x1 PUSH1 0x1 PUSH1 0x40 SHL SUB DUP1 DUP3 GT ISZERO PUSH2 0x25B6 JUMPI PUSH0 DUP1 REVERT JUMPDEST PUSH2 0x25C2 DUP12 DUP4 DUP13 ADD PUSH2 0x2537 JUMP JUMPDEST SWAP1 SWAP8 POP SWAP6 POP PUSH1 0xA0 DUP11 ADD CALLDATALOAD SWAP2 POP PUSH2 0x25D7 DUP3 PUSH2 0x24D3 JUMP JUMPDEST SWAP1 SWAP4 POP PUSH1 0xC0 DUP10 ADD CALLDATALOAD SWAP1 DUP1 DUP3 GT ISZERO PUSH2 0x25EC JUMPI PUSH0 DUP1 REVERT JUMPDEST POP PUSH2 0x25F9 DUP11 DUP3 DUP12 ADD PUSH2 0x2537 JUMP JUMPDEST SWAP9 SWAP12 SWAP8 SWAP11 POP SWAP6 SWAP9 POP SWAP4 SWAP7 SWAP3 SWAP6 SWAP3 SWAP4 POP POP POP JUMP JUMPDEST PUSH0 DUP1 PUSH0 PUSH1 0x60 DUP5 DUP7 SUB SLT ISZERO PUSH2 0x261E JUMPI PUSH0 DUP1 REVERT JUMPDEST DUP4 CALLDATALOAD PUSH2 0x2629 DUP2 PUSH2 0x24D3 JUMP JUMPDEST SWAP3 POP PUSH1 0x20 DUP5 ADD CALLDATALOAD PUSH2 0x2639 DUP2 PUSH2 0x24D3 JUMP JUMPDEST SWAP3 SWAP6 SWAP3 SWAP5 POP POP POP PUSH1 0x40 SWAP2 SWAP1 SWAP2 ADD CALLDATALOAD SWAP1 JUMP JUMPDEST DUP1 CALLDATALOAD PUSH4 0xFFFFFFFF DUP2 AND DUP2 EQ PUSH2 0x24F2 JUMPI PUSH0 DUP1 REVERT JUMPDEST PUSH0 DUP1 PUSH1 0x40 DUP4 DUP6 SUB SLT ISZERO PUSH2 0x266E JUMPI PUSH0 DUP1 REVERT JUMPDEST PUSH2 0x2513 DUP4 PUSH2 0x264A JUMP JUMPDEST PUSH0 PUSH1 0x80 DUP3 DUP5 SUB SLT ISZERO PUSH2 0x2531 JUMPI PUSH0 DUP1 REVERT JUMPDEST DUP1 ISZERO ISZERO DUP2 EQ PUSH2 0x138C JUMPI PUSH0 DUP1 REVERT JUMPDEST PUSH0 DUP1 PUSH0 DUP1 PUSH0 DUP1 PUSH0 DUP1 PUSH2 0x100 DUP10 DUP12 SUB SLT ISZERO PUSH2 0x26AC JUMPI PUSH0 DUP1 REVERT JUMPDEST PUSH2 0x26B6 DUP11 DUP11 PUSH2 0x2677 JUMP JUMPDEST SWAP8 POP PUSH1 0x80 DUP10 ADD CALLDATALOAD PUSH1 0x1 PUSH1 0x1 PUSH1 0x40 SHL SUB DUP1 DUP3 GT ISZERO PUSH2 0x26D1 JUMPI PUSH0 DUP1 REVERT JUMPDEST PUSH2 0x26DD DUP13 DUP4 DUP14 ADD PUSH2 0x2537 JUMP JUMPDEST SWAP1 SWAP10 POP SWAP8 POP PUSH1 0xA0 DUP12 ADD CALLDATALOAD SWAP2 POP PUSH2 0x26F2 DUP3 PUSH2 0x2687 JUMP JUMPDEST SWAP1 SWAP6 POP PUSH1 0xC0 DUP11 ADD CALLDATALOAD SWAP1 DUP1 DUP3 GT ISZERO PUSH2 0x2707 JUMPI PUSH0 DUP1 REVERT JUMPDEST PUSH2 0x2713 DUP13 DUP4 DUP14 ADD PUSH2 0x2537 JUMP JUMPDEST SWAP1 SWAP7 POP SWAP5 POP PUSH1 0xE0 DUP12 ADD CALLDATALOAD SWAP2 POP DUP1 DUP3 GT ISZERO PUSH2 0x272B JUMPI PUSH0 DUP1 REVERT JUMPDEST POP PUSH2 0x2738 DUP12 DUP3 DUP13 ADD PUSH2 0x2537 JUMP JUMPDEST SWAP10 SWAP13 SWAP9 SWAP12 POP SWAP7 SWAP10 POP SWAP5 SWAP8 SWAP4 SWAP7 SWAP3 SWAP6 SWAP5 POP POP POP JUMP JUMPDEST DUP2 MLOAD DUP2 MSTORE PUSH1 0x20 DUP1 DUP4 ADD MLOAD SWAP1 DUP3 ADD MSTORE PUSH1 0x40 DUP2 ADD PUSH2 0x83D JUMP JUMPDEST PUSH0 DUP1 PUSH0 DUP1 PUSH0 DUP1 PUSH0 DUP1 PUSH0 DUP10 DUP12 SUB PUSH2 0x140 DUP2 SLT ISZERO PUSH2 0x277D JUMPI PUSH0 DUP1 REVERT JUMPDEST PUSH2 0x2787 DUP13 DUP13 PUSH2 0x2677 JUMP JUMPDEST SWAP10 POP PUSH1 0x80 DUP12 ADD CALLDATALOAD PUSH1 0x1 PUSH1 0x1 PUSH1 0x40 SHL SUB DUP1 DUP3 GT ISZERO PUSH2 0x27A2 JUMPI PUSH0 DUP1 REVERT JUMPDEST PUSH2 0x27AE DUP15 DUP4 DUP16 ADD PUSH2 0x2537 JUMP JUMPDEST SWAP1 SWAP12 POP SWAP10 POP DUP10 SWAP2 POP PUSH1 0x40 PUSH1 0x9F NOT DUP5 ADD SLT ISZERO PUSH2 0x27C7 JUMPI PUSH0 DUP1 REVERT JUMPDEST PUSH1 0xA0 DUP14 ADD SWAP9 POP PUSH2 0x27D9 PUSH1 0xE0 DUP15 ADD PUSH2 0x24E7 JUMP JUMPDEST SWAP8 POP PUSH2 0x100 DUP14 ADD CALLDATALOAD SWAP3 POP DUP1 DUP4 GT ISZERO PUSH2 0x27EF JUMPI PUSH0 DUP1 REVERT JUMPDEST PUSH2 0x27FB DUP15 DUP5 DUP16 ADD PUSH2 0x2537 JUMP JUMPDEST SWAP1 SWAP8 POP SWAP6 POP PUSH2 0x120 DUP14 ADD CALLDATALOAD SWAP3 POP DUP7 SWAP2 POP DUP1 DUP4 GT ISZERO PUSH2 0x2817 JUMPI PUSH0 DUP1 REVERT JUMPDEST POP POP PUSH2 0x2825 DUP13 DUP3 DUP14 ADD PUSH2 0x2537 JUMP JUMPDEST SWAP2 POP DUP1 SWAP4 POP POP DUP1 SWAP2 POP POP SWAP3 SWAP6 SWAP9 POP SWAP3 SWAP6 SWAP9 POP SWAP3 SWAP6 SWAP9 JUMP JUMPDEST PUSH0 PUSH1 0xC0 DUP3 ADD SWAP1 POP DUP4 MLOAD DUP3 MSTORE PUSH1 0x1 PUSH1 0x1 PUSH1 0x40 SHL SUB PUSH1 0x20 DUP6 ADD MLOAD AND PUSH1 0x20 DUP4 ADD MSTORE PUSH1 0x40 DUP5 ADD MLOAD PUSH2 0x2876 PUSH1 0x40 DUP5 ADD DUP3 DUP1 MLOAD DUP3 MSTORE PUSH1 0x20 SWAP1 DUP2 ADD MLOAD SWAP2 ADD MSTORE JUMP JUMPDEST POP DUP3 MLOAD PUSH1 0x80 DUP4 ADD MSTORE PUSH1 0x20 DUP4 ADD MLOAD PUSH1 0xA0 DUP4 ADD MSTORE PUSH2 0x921 JUMP JUMPDEST DUP1 CALLDATALOAD PUSH2 0xFFFF DUP2 AND DUP2 EQ PUSH2 0x24F2 JUMPI PUSH0 DUP1 REVERT JUMPDEST PUSH0 DUP1 PUSH1 0x40 DUP4 DUP6 SUB SLT ISZERO PUSH2 0x28AF JUMPI PUSH0 DUP1 REVERT JUMPDEST PUSH2 0x28B8 DUP4 PUSH2 0x264A JUMP JUMPDEST SWAP2 POP PUSH2 0x28C6 PUSH1 0x20 DUP5 ADD PUSH2 0x288D JUMP JUMPDEST SWAP1 POP SWAP3 POP SWAP3 SWAP1 POP JUMP JUMPDEST PUSH0 PUSH1 0x20 DUP3 DUP5 SUB SLT ISZERO PUSH2 0x28DF JUMPI PUSH0 DUP1 REVERT JUMPDEST DUP2 CALLDATALOAD PUSH2 0x921 DUP2 PUSH2 0x24D3 JUMP JUMPDEST PUSH0 DUP1 DUP4 PUSH1 0x1F DUP5 ADD SLT PUSH2 0x28FA JUMPI PUSH0 DUP1 REVERT JUMPDEST POP DUP2 CALLDATALOAD PUSH1 0x1 PUSH1 0x1 PUSH1 0x40 SHL SUB DUP2 GT ISZERO PUSH2 0x2910 JUMPI PUSH0 DUP1 REVERT JUMPDEST PUSH1 0x20 DUP4 ADD SWAP2 POP DUP4 PUSH1 0x20 DUP3 PUSH1 0x5 SHL DUP6 ADD ADD GT ISZERO PUSH2 0x1F0C JUMPI PUSH0 DUP1 REVERT JUMPDEST PUSH0 DUP1 PUSH1 0x20 DUP4 DUP6 SUB SLT ISZERO PUSH2 0x293B JUMPI PUSH0 DUP1 REVERT JUMPDEST DUP3 CALLDATALOAD PUSH1 0x1 PUSH1 0x1 PUSH1 0x40 SHL SUB DUP2 GT ISZERO PUSH2 0x2950 JUMPI PUSH0 DUP1 REVERT JUMPDEST PUSH2 0x1B47 DUP6 DUP3 DUP7 ADD PUSH2 0x28EA JUMP JUMPDEST PUSH0 PUSH1 0x20 DUP3 DUP5 SUB SLT ISZERO PUSH2 0x296C JUMPI PUSH0 DUP1 REVERT JUMPDEST PUSH2 0x921 DUP3 PUSH2 0x264A JUMP JUMPDEST PUSH0 DUP1 PUSH0 DUP1 PUSH1 0x60 DUP6 DUP8 SUB SLT ISZERO PUSH2 0x2988 JUMPI PUSH0 DUP1 REVERT JUMPDEST PUSH2 0x2991 DUP6 PUSH2 0x264A JUMP JUMPDEST SWAP4 POP PUSH2 0x299F PUSH1 0x20 DUP7 ADD PUSH2 0x288D JUMP JUMPDEST SWAP3 POP PUSH1 0x40 DUP6 ADD CALLDATALOAD PUSH1 0x1 PUSH1 0x1 PUSH1 0x40 SHL SUB DUP2 GT ISZERO PUSH2 0x29B9 JUMPI PUSH0 DUP1 REVERT JUMPDEST PUSH2 0x29C5 DUP8 DUP3 DUP9 ADD PUSH2 0x2537 JUMP JUMPDEST SWAP6 SWAP9 SWAP5 SWAP8 POP SWAP6 POP POP POP POP JUMP JUMPDEST PUSH0 DUP1 PUSH0 PUSH1 0xA0 DUP5 DUP7 SUB SLT ISZERO PUSH2 0x29E3 JUMPI PUSH0 DUP1 REVERT JUMPDEST PUSH2 0x29ED DUP6 DUP6 PUSH2 0x2677 JUMP JUMPDEST SWAP3 POP PUSH1 0x80 DUP5 ADD CALLDATALOAD PUSH1 0x1 PUSH1 0x1 PUSH1 0x40 SHL SUB DUP2 GT ISZERO PUSH2 0x2A07 JUMPI PUSH0 DUP1 REVERT JUMPDEST PUSH2 0x2A13 DUP7 DUP3 DUP8 ADD PUSH2 0x2537 JUMP JUMPDEST SWAP5 SWAP8 SWAP1 SWAP7 POP SWAP4 SWAP5 POP POP POP POP JUMP JUMPDEST DUP4 MLOAD DUP2 MSTORE PUSH1 0x20 DUP1 DUP6 ADD MLOAD SWAP1 DUP3 ADD MSTORE PUSH0 PUSH1 0xA0 DUP3 ADD PUSH1 0x40 PUSH1 0xA0 PUSH1 0x40 DUP6 ADD MSTORE DUP2 DUP7 MLOAD DUP1 DUP5 MSTORE PUSH1 0xC0 DUP7 ADD SWAP2 POP PUSH1 0xC0 DUP2 PUSH1 0x5 SHL DUP8 ADD ADD SWAP4 POP PUSH1 0x20 DUP1 DUP10 ADD PUSH0 JUMPDEST DUP4 DUP2 LT ISZERO PUSH2 0x2A99 JUMPI DUP9 DUP8 SUB PUSH1 0xBF NOT ADD DUP6 MSTORE DUP2 MLOAD DUP1 MLOAD DUP9 MSTORE DUP4 ADD MLOAD DUP4 DUP9 ADD DUP8 SWAP1 MSTORE PUSH2 0x2A86 DUP8 DUP10 ADD DUP3 PUSH2 0x2496 JUMP JUMPDEST SWAP8 POP POP SWAP4 DUP3 ADD SWAP4 SWAP1 DUP3 ADD SWAP1 PUSH1 0x1 ADD PUSH2 0x2A5A JUMP JUMPDEST POP POP DUP8 MLOAD PUSH1 0x60 DUP9 ADD MSTORE POP POP POP PUSH1 0x20 DUP6 ADD MLOAD PUSH1 0x80 DUP6 ADD MSTORE POP SWAP1 POP PUSH2 0xF92 JUMP JUMPDEST PUSH0 DUP1 PUSH1 0x40 DUP4 DUP6 SUB SLT ISZERO PUSH2 0x2AC8 JUMPI PUSH0 DUP1 REVERT JUMPDEST DUP3 CALLDATALOAD PUSH2 0x2AD3 DUP2 PUSH2 0x24D3 JUMP JUMPDEST SWAP2 POP PUSH1 0x20 DUP4 ADD CALLDATALOAD PUSH2 0x2AE3 DUP2 PUSH2 0x24D3 JUMP JUMPDEST DUP1 SWAP2 POP POP SWAP3 POP SWAP3 SWAP1 POP JUMP JUMPDEST PUSH0 PUSH1 0x60 DUP3 DUP5 SUB SLT ISZERO PUSH2 0x2AFE JUMPI PUSH0 DUP1 REVERT JUMPDEST PUSH2 0x921 DUP4 DUP4 PUSH2 0x2521 JUMP JUMPDEST PUSH1 0x1 DUP2 DUP2 SHR SWAP1 DUP3 AND DUP1 PUSH2 0x2B1C JUMPI PUSH1 0x7F DUP3 AND SWAP2 POP JUMPDEST PUSH1 0x20 DUP3 LT DUP2 SUB PUSH2 0x2531 JUMPI PUSH4 0x4E487B71 PUSH1 0xE0 SHL PUSH0 MSTORE PUSH1 0x22 PUSH1 0x4 MSTORE PUSH1 0x24 PUSH0 REVERT JUMPDEST PUSH4 0x4E487B71 PUSH1 0xE0 SHL PUSH0 MSTORE PUSH1 0x11 PUSH1 0x4 MSTORE PUSH1 0x24 PUSH0 REVERT JUMPDEST DUP1 DUP3 ADD DUP1 DUP3 GT ISZERO PUSH2 0x83D JUMPI PUSH2 0x83D PUSH2 0x2B3A JUMP JUMPDEST PUSH4 0x4E487B71 PUSH1 0xE0 SHL PUSH0 MSTORE PUSH1 0x41 PUSH1 0x4 MSTORE PUSH1 0x24 PUSH0 REVERT JUMPDEST PUSH1 0x40 DUP1 MLOAD SWAP1 DUP2 ADD PUSH1 0x1 PUSH1 0x1 PUSH1 0x40 SHL SUB DUP2 GT DUP3 DUP3 LT OR ISZERO PUSH2 0x2B97 JUMPI PUSH2 0x2B97 PUSH2 0x2B61 JUMP JUMPDEST PUSH1 0x40 MSTORE SWAP1 JUMP JUMPDEST PUSH0 PUSH1 0x40 DUP3 DUP5 SUB SLT ISZERO PUSH2 0x2BAD JUMPI PUSH0 DUP1 REVERT JUMPDEST PUSH2 0x2BB5 PUSH2 0x2B75 JUMP JUMPDEST DUP3 CALLDATALOAD DUP2 MSTORE PUSH1 0x20 DUP4 ADD CALLDATALOAD PUSH1 0x20 DUP3 ADD MSTORE DUP1 SWAP2 POP POP SWAP3 SWAP2 POP POP JUMP JUMPDEST DUP2 DUP4 MSTORE DUP2 DUP2 PUSH1 0x20 DUP6 ADD CALLDATACOPY POP PUSH0 DUP3 DUP3 ADD PUSH1 0x20 SWAP1 DUP2 ADD SWAP2 SWAP1 SWAP2 MSTORE PUSH1 0x1F SWAP1 SWAP2 ADD PUSH1 0x1F NOT AND SWAP1 SWAP2 ADD ADD SWAP1 JUMP JUMPDEST DUP5 DUP2 MSTORE DUP4 PUSH1 0x20 DUP3 ADD MSTORE PUSH1 0x60 PUSH1 0x40 DUP3 ADD MSTORE PUSH0 PUSH2 0x2C14 PUSH1 0x60 DUP4 ADD DUP5 DUP7 PUSH2 0x2BCD JUMP JUMPDEST SWAP7 SWAP6 POP POP POP POP POP POP JUMP JUMPDEST PUSH4 0x4E487B71 PUSH1 0xE0 SHL PUSH0 MSTORE PUSH1 0x32 PUSH1 0x4 MSTORE PUSH1 0x24 PUSH0 REVERT JUMPDEST PUSH0 DUP3 CALLDATALOAD PUSH1 0x5E NOT DUP4 CALLDATASIZE SUB ADD DUP2 SLT PUSH2 0x2C46 JUMPI PUSH0 DUP1 REVERT JUMPDEST SWAP2 SWAP1 SWAP2 ADD SWAP3 SWAP2 POP POP JUMP JUMPDEST PUSH0 DUP1 DUP4 CALLDATALOAD PUSH1 0x1E NOT DUP5 CALLDATASIZE SUB ADD DUP2 SLT PUSH2 0x2C65 JUMPI PUSH0 DUP1 REVERT JUMPDEST DUP4 ADD DUP1 CALLDATALOAD SWAP2 POP PUSH1 0x1 PUSH1 0x1 PUSH1 0x40 SHL SUB DUP3 GT ISZERO PUSH2 0x2C7E JUMPI PUSH0 DUP1 REVERT JUMPDEST PUSH1 0x20 ADD SWAP2 POP CALLDATASIZE DUP2 SWAP1 SUB DUP3 SGT ISZERO PUSH2 0x1F0C JUMPI PUSH0 DUP1 REVERT JUMPDEST PUSH0 PUSH1 0x20 DUP3 DUP5 SUB SLT ISZERO PUSH2 0x2CA2 JUMPI PUSH0 DUP1 REVERT JUMPDEST PUSH2 0x921 DUP3 PUSH2 0x288D JUMP JUMPDEST PUSH1 0x1F DUP3 GT ISZERO PUSH2 0x1CE9 JUMPI DUP1 PUSH0 MSTORE PUSH1 0x20 PUSH0 KECCAK256 PUSH1 0x1F DUP5 ADD PUSH1 0x5 SHR DUP2 ADD PUSH1 0x20 DUP6 LT ISZERO PUSH2 0x2CD0 JUMPI POP DUP1 JUMPDEST PUSH1 0x1F DUP5 ADD PUSH1 0x5 SHR DUP3 ADD SWAP2 POP JUMPDEST DUP2 DUP2 LT ISZERO PUSH2 0x1260 JUMPI PUSH0 DUP2 SSTORE PUSH1 0x1 ADD PUSH2 0x2CDC JUMP JUMPDEST PUSH1 0x1 PUSH1 0x1 PUSH1 0x40 SHL SUB DUP4 GT ISZERO PUSH2 0x2D06 JUMPI PUSH2 0x2D06 PUSH2 0x2B61 JUMP JUMPDEST PUSH2 0x2D1A DUP4 PUSH2 0x2D14 DUP4 SLOAD PUSH2 0x2B08 JUMP JUMPDEST DUP4 PUSH2 0x2CAB JUMP JUMPDEST PUSH0 PUSH1 0x1F DUP5 GT PUSH1 0x1 DUP2 EQ PUSH2 0x2D4B JUMPI PUSH0 DUP6 ISZERO PUSH2 0x2D34 JUMPI POP DUP4 DUP3 ADD CALLDATALOAD JUMPDEST PUSH0 NOT PUSH1 0x3 DUP8 SWAP1 SHL SHR NOT AND PUSH1 0x1 DUP7 SWAP1 SHL OR DUP4 SSTORE PUSH2 0x1260 JUMP JUMPDEST PUSH0 DUP4 DUP2 MSTORE PUSH1 0x20 DUP2 KECCAK256 PUSH1 0x1F NOT DUP8 AND SWAP2 JUMPDEST DUP3 DUP2 LT ISZERO PUSH2 0x2D7A JUMPI DUP7 DUP6 ADD CALLDATALOAD DUP3 SSTORE PUSH1 0x20 SWAP5 DUP6 ADD SWAP5 PUSH1 0x1 SWAP1 SWAP3 ADD SWAP2 ADD PUSH2 0x2D5A JUMP JUMPDEST POP DUP7 DUP3 LT ISZERO PUSH2 0x2D96 JUMPI PUSH0 NOT PUSH1 0xF8 DUP9 PUSH1 0x3 SHL AND SHR NOT DUP5 DUP8 ADD CALLDATALOAD AND DUP2 SSTORE JUMPDEST POP POP PUSH1 0x1 DUP6 PUSH1 0x1 SHL ADD DUP4 SSTORE POP POP POP POP POP JUMP JUMPDEST PUSH1 0x20 DUP1 DUP3 MSTORE DUP2 DUP2 ADD DUP4 SWAP1 MSTORE PUSH0 SWAP1 PUSH1 0x40 DUP1 DUP5 ADD PUSH1 0x5 DUP7 SWAP1 SHL DUP6 ADD DUP3 ADD DUP8 DUP6 JUMPDEST DUP9 DUP2 LT ISZERO PUSH2 0x2E79 JUMPI DUP8 DUP4 SUB PUSH1 0x3F NOT ADD DUP5 MSTORE DUP2 CALLDATALOAD CALLDATASIZE DUP12 SWAP1 SUB PUSH1 0x5E NOT ADD DUP2 SLT PUSH2 0x2DEB JUMPI PUSH0 DUP1 REVERT JUMPDEST DUP11 ADD PUSH1 0x60 PUSH4 0xFFFFFFFF PUSH2 0x2DFD DUP4 PUSH2 0x264A JUMP JUMPDEST AND DUP6 MSTORE PUSH2 0xFFFF PUSH2 0x2E0E DUP10 DUP5 ADD PUSH2 0x288D JUMP JUMPDEST AND DUP9 DUP7 ADD MSTORE DUP7 DUP3 ADD CALLDATALOAD PUSH1 0x1E NOT DUP4 CALLDATASIZE SUB ADD DUP2 SLT PUSH2 0x2E28 JUMPI PUSH0 DUP1 REVERT JUMPDEST SWAP1 SWAP2 ADD DUP8 DUP2 ADD SWAP2 SWAP1 CALLDATALOAD PUSH1 0x1 PUSH1 0x1 PUSH1 0x40 SHL SUB DUP2 GT ISZERO PUSH2 0x2E44 JUMPI PUSH0 DUP1 REVERT JUMPDEST DUP1 CALLDATASIZE SUB DUP4 SGT ISZERO PUSH2 0x2E52 JUMPI PUSH0 DUP1 REVERT JUMPDEST DUP2 DUP9 DUP8 ADD MSTORE PUSH2 0x2E64 DUP3 DUP8 ADD DUP3 DUP6 PUSH2 0x2BCD JUMP JUMPDEST SWAP7 DUP10 ADD SWAP7 SWAP6 POP POP POP SWAP2 DUP7 ADD SWAP2 POP PUSH1 0x1 ADD PUSH2 0x2DC6 JUMP JUMPDEST POP SWAP1 SWAP9 SWAP8 POP POP POP POP POP POP POP POP JUMP JUMPDEST PUSH0 DUP1 DUP6 DUP6 GT ISZERO PUSH2 0x2E95 JUMPI PUSH0 DUP1 REVERT JUMPDEST DUP4 DUP7 GT ISZERO PUSH2 0x2EA1 JUMPI PUSH0 DUP1 REVERT JUMPDEST POP POP DUP3 ADD SWAP4 SWAP2 SWAP1 SWAP3 SUB SWAP2 POP JUMP JUMPDEST PUSH0 DUP5 MLOAD PUSH2 0x2EBF DUP2 DUP5 PUSH1 0x20 DUP10 ADD PUSH2 0x2474 JUMP JUMPDEST DUP3 ADD DUP4 DUP6 DUP3 CALLDATACOPY PUSH0 SWAP4 ADD SWAP3 DUP4 MSTORE POP SWAP1 SWAP4 SWAP3 POP POP POP JUMP JUMPDEST PUSH1 0x20 DUP2 MSTORE PUSH0 PUSH2 0xF92 PUSH1 0x20 DUP4 ADD DUP5 DUP7 PUSH2 0x2BCD JUMP JUMPDEST PUSH0 DUP3 CALLDATALOAD PUSH2 0x13E NOT DUP4 CALLDATASIZE SUB ADD DUP2 SLT PUSH2 0x2C46 JUMPI PUSH0 DUP1 REVERT JUMPDEST PUSH1 0x1 PUSH1 0x1 PUSH1 0x40 SHL SUB DUP2 AND DUP2 EQ PUSH2 0x138C JUMPI PUSH0 DUP1 REVERT JUMPDEST PUSH4 0xFFFFFFFF PUSH2 0x2F1E DUP10 PUSH2 0x264A JUMP JUMPDEST AND DUP2 MSTORE PUSH1 0x20 DUP9 ADD CALLDATALOAD PUSH1 0x20 DUP3 ADD MSTORE PUSH0 PUSH1 0x40 DUP10 ADD CALLDATALOAD PUSH2 0x2F3A DUP2 PUSH2 0x2EFC JUMP JUMPDEST PUSH1 0x1 PUSH1 0x1 PUSH1 0x40 SHL SUB DUP2 AND PUSH1 0x40 DUP5 ADD MSTORE POP DUP8 PUSH1 0x60 DUP4 ADD MSTORE PUSH1 0xE0 PUSH1 0x80 DUP4 ADD MSTORE PUSH2 0x2F65 PUSH1 0xE0 DUP4 ADD DUP8 DUP10 PUSH2 0x2BCD JUMP JUMPDEST PUSH1 0x1 PUSH1 0x1 PUSH1 0xA0 SHL SUB DUP7 AND PUSH1 0xA0 DUP5 ADD MSTORE DUP3 DUP2 SUB PUSH1 0xC0 DUP5 ADD MSTORE PUSH2 0x2F87 DUP2 DUP6 DUP8 PUSH2 0x2BCD JUMP JUMPDEST SWAP11 SWAP10 POP POP POP POP POP POP POP POP POP POP JUMP JUMPDEST PUSH0 PUSH1 0x20 DUP3 DUP5 SUB SLT ISZERO PUSH2 0x2FA5 JUMPI PUSH0 DUP1 REVERT JUMPDEST DUP2 MLOAD PUSH1 0x1 PUSH1 0x1 PUSH1 0x40 SHL SUB DUP1 DUP3 GT ISZERO PUSH2 0x2FBB JUMPI PUSH0 DUP1 REVERT JUMPDEST DUP2 DUP5 ADD SWAP2 POP DUP5 PUSH1 0x1F DUP4 ADD SLT PUSH2 0x2FCE JUMPI PUSH0 DUP1 REVERT JUMPDEST DUP2 MLOAD DUP2 DUP2 GT ISZERO PUSH2 0x2FE0 JUMPI PUSH2 0x2FE0 PUSH2 0x2B61 JUMP JUMPDEST PUSH1 0x40 MLOAD PUSH1 0x1F DUP3 ADD PUSH1 0x1F NOT SWAP1 DUP2 AND PUSH1 0x3F ADD AND DUP2 ADD SWAP1 DUP4 DUP3 GT DUP2 DUP4 LT OR ISZERO PUSH2 0x3008 JUMPI PUSH2 0x3008 PUSH2 0x2B61 JUMP JUMPDEST DUP2 PUSH1 0x40 MSTORE DUP3 DUP2 MSTORE DUP8 PUSH1 0x20 DUP5 DUP8 ADD ADD GT ISZERO PUSH2 0x3020 JUMPI PUSH0 DUP1 REVERT JUMPDEST PUSH2 0x1C4E DUP4 PUSH1 0x20 DUP4 ADD PUSH1 0x20 DUP9 ADD PUSH2 0x2474 JUMP JUMPDEST PUSH0 PUSH1 0x20 DUP3 DUP5 SUB SLT ISZERO PUSH2 0x3041 JUMPI PUSH0 DUP1 REVERT JUMPDEST DUP2 CALLDATALOAD PUSH2 0x921 DUP2 PUSH2 0x2EFC JUMP JUMPDEST PUSH1 0x1 DUP1 PUSH1 0xA0 SHL SUB DUP6 AND DUP2 MSTORE DUP4 PUSH1 0x20 DUP3 ADD MSTORE PUSH2 0xFFFF DUP4 AND PUSH1 0x40 DUP3 ADD MSTORE PUSH1 0x80 PUSH1 0x60 DUP3 ADD MSTORE PUSH0 PUSH2 0x2C14 PUSH1 0x80 DUP4 ADD DUP5 PUSH2 0x2496 JUMP JUMPDEST PUSH1 0x40 DUP2 MSTORE PUSH0 PUSH2 0x308E PUSH1 0x40 DUP4 ADD DUP6 PUSH2 0x2496 JUMP JUMPDEST DUP3 DUP2 SUB PUSH1 0x20 DUP5 ADD MSTORE PUSH2 0x1B17 DUP2 DUP6 PUSH2 0x2496 JUMP JUMPDEST PUSH0 PUSH1 0x20 DUP3 DUP5 SUB SLT ISZERO PUSH2 0x30B0 JUMPI PUSH0 DUP1 REVERT JUMPDEST DUP2 MLOAD PUSH2 0x921 DUP2 PUSH2 0x2687 JUMP JUMPDEST PUSH1 0x40 DUP2 MSTORE PUSH4 0xFFFFFFFF DUP4 MLOAD AND PUSH1 0x40 DUP3 ADD MSTORE PUSH1 0x20 DUP4 ADD MLOAD PUSH1 0x60 DUP3 ADD MSTORE PUSH0 PUSH1 0x40 DUP5 ADD MLOAD PUSH1 0xA0 PUSH1 0x80 DUP5 ADD MSTORE PUSH2 0x30F0 PUSH1 0xE0 DUP5 ADD DUP3 PUSH2 0x2496 JUMP JUMPDEST SWAP1 POP PUSH1 0x60 DUP6 ADD MLOAD PUSH1 0x3F NOT DUP5 DUP4 SUB ADD PUSH1 0xA0 DUP6 ADD MSTORE PUSH2 0x310D DUP3 DUP3 PUSH2 0x2496 JUMP JUMPDEST PUSH1 0x80 SWAP7 SWAP1 SWAP7 ADD MLOAD ISZERO ISZERO PUSH1 0xC0 DUP6 ADD MSTORE POP POP POP PUSH1 0x1 PUSH1 0x1 PUSH1 0xA0 SHL SUB SWAP2 SWAP1 SWAP2 AND PUSH1 0x20 SWAP1 SWAP2 ADD MSTORE SWAP1 JUMP JUMPDEST PUSH0 PUSH1 0x40 DUP3 DUP5 SUB SLT ISZERO PUSH2 0x3143 JUMPI PUSH0 DUP1 REVERT JUMPDEST PUSH2 0x314B PUSH2 0x2B75 JUMP JUMPDEST SWAP1 POP DUP2 MLOAD DUP2 MSTORE PUSH1 0x20 DUP3 ADD MLOAD PUSH1 0x20 DUP3 ADD MSTORE SWAP3 SWAP2 POP POP JUMP JUMPDEST PUSH0 PUSH1 0x40 DUP3 DUP5 SUB SLT ISZERO PUSH2 0x3171 JUMPI PUSH0 DUP1 REVERT JUMPDEST PUSH2 0x921 DUP4 DUP4 PUSH2 0x3133 JUMP JUMPDEST PUSH0 PUSH1 0x80 DUP3 DUP5 SUB SLT ISZERO PUSH2 0x318B JUMPI PUSH0 DUP1 REVERT JUMPDEST PUSH1 0x40 MLOAD PUSH1 0x60 DUP2 ADD DUP2 DUP2 LT PUSH1 0x1 PUSH1 0x1 PUSH1 0x40 SHL SUB DUP3 GT OR ISZERO PUSH2 0x31AD JUMPI PUSH2 0x31AD PUSH2 0x2B61 JUMP JUMPDEST PUSH1 0x40 MSTORE DUP3 MLOAD DUP2 MSTORE PUSH1 0x20 DUP4 ADD MLOAD PUSH2 0x31C2 DUP2 PUSH2 0x2EFC JUMP JUMPDEST PUSH1 0x20 DUP3 ADD MSTORE PUSH2 0x31D4 DUP5 PUSH1 0x40 DUP6 ADD PUSH2 0x3133 JUMP JUMPDEST PUSH1 0x40 DUP3 ADD MSTORE SWAP4 SWAP3 POP POP POP JUMP JUMPDEST PUSH1 0x1 PUSH1 0x1 PUSH1 0xF0 SHL SUB NOT DUP2 CALLDATALOAD DUP2 DUP2 AND SWAP2 PUSH1 0x2 DUP6 LT ISZERO PUSH2 0x3208 JUMPI DUP1 DUP2 DUP7 PUSH1 0x2 SUB PUSH1 0x3 SHL SHL DUP4 AND AND SWAP3 POP JUMPDEST POP POP SWAP3 SWAP2 POP POP JUMP JUMPDEST DUP1 CALLDATALOAD PUSH1 0x20 DUP4 LT ISZERO PUSH2 0x83D JUMPI PUSH0 NOT PUSH1 0x20 DUP5 SWAP1 SUB PUSH1 0x3 SHL SHL AND SWAP3 SWAP2 POP POP JUMP JUMPDEST PUSH1 0x1 PUSH1 0x1 PUSH1 0xC0 SHL SUB NOT DUP2 CALLDATALOAD DUP2 DUP2 AND SWAP2 PUSH1 0x8 DUP6 LT ISZERO PUSH2 0x3208 JUMPI PUSH1 0x8 SWAP5 SWAP1 SWAP5 SUB PUSH1 0x3 SHL DUP5 SWAP1 SHL AND SWAP1 SWAP3 AND SWAP3 SWAP2 POP POP JUMP JUMPDEST DUP1 DUP3 MUL DUP2 ISZERO DUP3 DUP3 DIV DUP5 EQ OR PUSH2 0x83D JUMPI PUSH2 0x83D PUSH2 0x2B3A JUMP JUMPDEST PUSH1 0x1 PUSH1 0x1 PUSH1 0x40 SHL SUB PUSH1 0xC0 SHL DUP6 PUSH1 0xC0 SHL AND DUP2 MSTORE PUSH4 0xFFFFFFFF PUSH1 0xE0 SHL DUP5 PUSH1 0xE0 SHL AND PUSH1 0x8 DUP3 ADD MSTORE DUP3 PUSH1 0xC DUP3 ADD MSTORE PUSH0 DUP3 MLOAD PUSH2 0x32B0 DUP2 PUSH1 0x2C DUP6 ADD PUSH1 0x20 DUP8 ADD PUSH2 0x2474 JUMP JUMPDEST SWAP2 SWAP1 SWAP2 ADD PUSH1 0x2C ADD SWAP6 SWAP5 POP POP POP POP POP JUMP JUMPDEST PUSH0 DUP3 PUSH2 0x32DA JUMPI PUSH4 0x4E487B71 PUSH1 0xE0 SHL PUSH0 MSTORE PUSH1 0x12 PUSH1 0x4 MSTORE PUSH1 0x24 PUSH0 REVERT JUMPDEST POP DIV SWAP1 JUMP JUMPDEST DUP5 DUP2 MSTORE PUSH1 0x1 PUSH1 0x1 PUSH1 0x40 SHL SUB PUSH1 0xC0 SHL DUP5 PUSH1 0xC0 SHL AND PUSH1 0x20 DUP3 ADD MSTORE DUP3 PUSH1 0x28 DUP3 ADD MSTORE PUSH0 DUP3 MLOAD PUSH2 0x3311 DUP2 PUSH1 0x48 DUP6 ADD PUSH1 0x20 DUP8 ADD PUSH2 0x2474 JUMP JUMPDEST SWAP2 SWAP1 SWAP2 ADD PUSH1 0x48 ADD SWAP6 SWAP5 POP POP POP POP POP JUMP JUMPDEST PUSH0 PUSH1 0x20 DUP3 DUP5 SUB SLT ISZERO PUSH2 0x3331 JUMPI PUSH0 DUP1 REVERT JUMPDEST DUP2 MLOAD PUSH2 0x921 DUP2 PUSH2 0x24D3 JUMP JUMPDEST PUSH0 DUP3 MLOAD PUSH2 0x2C46 DUP2 DUP5 PUSH1 0x20 DUP8 ADD PUSH2 0x2474 JUMP INVALID LOG2 PUSH5 0x6970667358 0x22 SLT KECCAK256 TIMESTAMP SLT RETURNDATASIZE CODESIZE 0xDC 0xF7 DUP2 RETURNDATACOPY 0x27 0xCB 0x49 PUSH32 0x3A67FA4CB25CA55311EA2AEACAD0CC430908703264736F6C6343000816003300 "
		},
		"gasEstimates": {
			"creation": {
				"codeDepositCost": "2637400",
				"executionCost": "infinite",
				"totalCost": "infinite"
			},
			"external": {
				"SEND()": "315",
				"SEND_AND_CALL()": "338",
				"allowInitializePath((uint32,bytes32,uint64))": "infinite",
				"allowance(address,address)": "infinite",
				"approve(address,uint256)": "24664",
				"balanceOf(address)": "2683",
				"combineOptions(uint32,uint16,bytes)": "infinite",
				"decimalConversionRate()": "infinite",
				"decimals()": "235",
				"decreaseAllowance(address,uint256)": "27006",
				"endpoint()": "infinite",
				"enforcedOptions(uint32,uint16)": "infinite",
				"increaseAllowance(address,uint256)": "infinite",
				"isPeer(uint32,bytes32)": "2638",
				"lzReceive((uint32,bytes32,uint64),bytes32,bytes,address,bytes)": "infinite",
				"lzReceiveAndRevert(((uint32,bytes32,uint64),uint32,address,bytes32,uint256,address,bytes,bytes)[])": "infinite",
				"lzReceiveSimulate((uint32,bytes32,uint64),bytes32,bytes,address,bytes)": "infinite",
				"msgInspector()": "2427",
				"name()": "infinite",
				"nextNonce(uint32,bytes32)": "455",
				"oApp()": "256",
				"oAppVersion()": "262",
				"oftVersion()": "240",
				"owner()": "2441",
				"peers(uint32)": "2549",
				"preCrime()": "2447",
				"quoteOFT((uint32,bytes32,uint256,uint256),bytes)": "infinite",
				"quoteSend((uint32,bytes32,uint256,uint256),bytes,bool,bytes,bytes)": "infinite",
				"renounceOwnership()": "infinite",
				"send((uint32,bytes32,uint256,uint256),bytes,(uint256,uint256),address,bytes,bytes)": "infinite",
				"setDelegate(address)": "infinite",
				"setEnforcedOptions((uint32,uint16,bytes)[])": "infinite",
				"setMsgInspector(address)": "27913",
				"setPeer(uint32,bytes32)": "26068",
				"setPreCrime(address)": "27857",
				"sharedDecimals()": "290",
				"symbol()": "infinite",
				"token()": "343",
				"totalSupply()": "2370",
				"transfer(address,uint256)": "51137",
				"transferFrom(address,address,uint256)": "infinite",
				"transferOwnership(address)": "infinite"
			},
			"internal": {
				"_credit(address,uint256,uint32)": "infinite",
				"_debitSender(uint256,uint256,uint32)": "infinite",
				"_debitThis(uint256,uint32)": "infinite"
			}
		},
		"methodIdentifiers": {
			"SEND()": "1f5e1334",
			"SEND_AND_CALL()": "134d4f25",
			"allowInitializePath((uint32,bytes32,uint64))": "ff7bd03d",
			"allowance(address,address)": "dd62ed3e",
			"approve(address,uint256)": "095ea7b3",
			"balanceOf(address)": "70a08231",
			"combineOptions(uint32,uint16,bytes)": "bc70b354",
			"decimalConversionRate()": "963efcaa",
			"decimals()": "313ce567",
			"decreaseAllowance(address,uint256)": "a457c2d7",
			"endpoint()": "5e280f11",
			"enforcedOptions(uint32,uint16)": "5535d461",
			"increaseAllowance(address,uint256)": "39509351",
			"isPeer(uint32,bytes32)": "5a0dfe4d",
			"lzReceive((uint32,bytes32,uint64),bytes32,bytes,address,bytes)": "13137d65",
			"lzReceiveAndRevert(((uint32,bytes32,uint64),uint32,address,bytes32,uint256,address,bytes,bytes)[])": "bd815db0",
			"lzReceiveSimulate((uint32,bytes32,uint64),bytes32,bytes,address,bytes)": "d045a0dc",
			"msgInspector()": "111ecdad",
			"name()": "06fdde03",
			"nextNonce(uint32,bytes32)": "7d25a05e",
			"oApp()": "52ae2879",
			"oAppVersion()": "17442b70",
			"oftVersion()": "156a0d0f",
			"owner()": "8da5cb5b",
			"peers(uint32)": "bb0b6a53",
			"preCrime()": "b731ea0a",
			"quoteOFT((uint32,bytes32,uint256,uint256),bytes)": "c1e36500",
			"quoteSend((uint32,bytes32,uint256,uint256),bytes,bool,bytes,bytes)": "46a40f75",
			"renounceOwnership()": "715018a6",
			"send((uint32,bytes32,uint256,uint256),bytes,(uint256,uint256),address,bytes,bytes)": "49e46017",
			"setDelegate(address)": "ca5eb5e1",
			"setEnforcedOptions((uint32,uint16,bytes)[])": "b98bd070",
			"setMsgInspector(address)": "6fc1b31e",
			"setPeer(uint32,bytes32)": "3400288b",
			"setPreCrime(address)": "d4243885",
			"sharedDecimals()": "857749b0",
			"symbol()": "95d89b41",
			"token()": "fc0c546a",
			"totalSupply()": "18160ddd",
			"transfer(address,uint256)": "a9059cbb",
			"transferFrom(address,address,uint256)": "23b872dd",
			"transferOwnership(address)": "f2fde38b"
		}
	},
	"abi": [
		{
			"inputs": [
				{
					"internalType": "string",
					"name": "_name",
					"type": "string"
				},
				{
					"internalType": "string",
					"name": "_symbol",
					"type": "string"
				},
				{
					"internalType": "address",
					"name": "_lzEndpoint",
					"type": "address"
				},
				{
					"internalType": "address",
					"name": "_owner",
					"type": "address"
				}
			],
			"stateMutability": "nonpayable",
			"type": "constructor"
		},
		{
			"inputs": [],
			"name": "InvalidEndpointCall",
			"type": "error"
		},
		{
			"inputs": [],
			"name": "InvalidLocalDecimals",
			"type": "error"
		},
		{
			"inputs": [
				{
					"internalType": "bytes",
					"name": "options",
					"type": "bytes"
				}
			],
			"name": "InvalidOptions",
			"type": "error"
		},
		{
			"inputs": [],
			"name": "LzTokenUnavailable",
			"type": "error"
		},
		{
			"inputs": [
				{
					"internalType": "uint32",
					"name": "eid",
					"type": "uint32"
				}
			],
			"name": "NoPeer",
			"type": "error"
		},
		{
			"inputs": [
				{
					"internalType": "uint256",
					"name": "msgValue",
					"type": "uint256"
				}
			],
			"name": "NotEnoughNative",
			"type": "error"
		},
		{
			"inputs": [
				{
					"internalType": "address",
					"name": "addr",
					"type": "address"
				}
			],
			"name": "OnlyEndpoint",
			"type": "error"
		},
		{
			"inputs": [
				{
					"internalType": "uint32",
					"name": "eid",
					"type": "uint32"
				},
				{
					"internalType": "bytes32",
					"name": "sender",
					"type": "bytes32"
				}
			],
			"name": "OnlyPeer",
			"type": "error"
		},
		{
			"inputs": [],
			"name": "OnlySelf",
			"type": "error"
		},
		{
			"inputs": [
				{
					"internalType": "bytes",
					"name": "result",
					"type": "bytes"
				}
			],
			"name": "SimulationResult",
			"type": "error"
		},
		{
			"inputs": [
				{
					"internalType": "uint256",
					"name": "amountToCreditLD",
					"type": "uint256"
				},
				{
					"internalType": "uint256",
					"name": "minAmountToCreditLD",
					"type": "uint256"
				}
			],
			"name": "SlippageExceeded",
			"type": "error"
		},
		{
			"anonymous": false,
			"inputs": [
				{
					"indexed": true,
					"internalType": "address",
					"name": "owner",
					"type": "address"
				},
				{
					"indexed": true,
					"internalType": "address",
					"name": "spender",
					"type": "address"
				},
				{
					"indexed": false,
					"internalType": "uint256",
					"name": "value",
					"type": "uint256"
				}
			],
			"name": "Approval",
			"type": "event"
		},
		{
			"anonymous": false,
			"inputs": [
				{
					"components": [
						{
							"internalType": "uint32",
							"name": "eid",
							"type": "uint32"
						},
						{
							"internalType": "uint16",
							"name": "msgType",
							"type": "uint16"
						},
						{
							"internalType": "bytes",
							"name": "options",
							"type": "bytes"
						}
					],
					"indexed": false,
					"internalType": "struct EnforcedOptionParam[]",
					"name": "_enforcedOptions",
					"type": "tuple[]"
				}
			],
			"name": "EnforcedOptionSet",
			"type": "event"
		},
		{
			"anonymous": false,
			"inputs": [
				{
					"indexed": false,
					"internalType": "address",
					"name": "inspector",
					"type": "address"
				}
			],
			"name": "MsgInspectorSet",
			"type": "event"
		},
		{
			"anonymous": false,
			"inputs": [
				{
					"indexed": true,
					"internalType": "bytes32",
					"name": "guid",
					"type": "bytes32"
				},
				{
					"indexed": true,
					"internalType": "address",
					"name": "toAddress",
					"type": "address"
				},
				{
					"indexed": false,
					"internalType": "uint256",
					"name": "amountToCreditLD",
					"type": "uint256"
				},
				{
					"indexed": false,
					"internalType": "uint256",
					"name": "amountReceivedLD",
					"type": "uint256"
				}
			],
			"name": "OFTReceived",
			"type": "event"
		},
		{
			"anonymous": false,
			"inputs": [
				{
					"indexed": true,
					"internalType": "bytes32",
					"name": "guid",
					"type": "bytes32"
				},
				{
					"indexed": true,
					"internalType": "address",
					"name": "fromAddress",
					"type": "address"
				},
				{
					"indexed": false,
					"internalType": "uint256",
					"name": "amountDebitedLD",
					"type": "uint256"
				},
				{
					"indexed": false,
					"internalType": "uint256",
					"name": "amountToCreditLD",
					"type": "uint256"
				},
				{
					"indexed": false,
					"internalType": "bytes",
					"name": "composeMsg",
					"type": "bytes"
				}
			],
			"name": "OFTSent",
			"type": "event"
		},
		{
			"anonymous": false,
			"inputs": [
				{
					"indexed": true,
					"internalType": "address",
					"name": "previousOwner",
					"type": "address"
				},
				{
					"indexed": true,
					"internalType": "address",
					"name": "newOwner",
					"type": "address"
				}
			],
			"name": "OwnershipTransferred",
			"type": "event"
		},
		{
			"anonymous": false,
			"inputs": [
				{
					"indexed": false,
					"internalType": "uint32",
					"name": "eid",
					"type": "uint32"
				},
				{
					"indexed": false,
					"internalType": "bytes32",
					"name": "peer",
					"type": "bytes32"
				}
			],
			"name": "PeerSet",
			"type": "event"
		},
		{
			"anonymous": false,
			"inputs": [
				{
					"indexed": false,
					"internalType": "address",
					"name": "preCrimeAddress",
					"type": "address"
				}
			],
			"name": "PreCrimeSet",
			"type": "event"
		},
		{
			"anonymous": false,
			"inputs": [
				{
					"indexed": true,
					"internalType": "address",
					"name": "from",
					"type": "address"
				},
				{
					"indexed": true,
					"internalType": "address",
					"name": "to",
					"type": "address"
				},
				{
					"indexed": false,
					"internalType": "uint256",
					"name": "value",
					"type": "uint256"
				}
			],
			"name": "Transfer",
			"type": "event"
		},
		{
			"inputs": [],
			"name": "SEND",
			"outputs": [
				{
					"internalType": "uint16",
					"name": "",
					"type": "uint16"
				}
			],
			"stateMutability": "view",
			"type": "function"
		},
		{
			"inputs": [],
			"name": "SEND_AND_CALL",
			"outputs": [
				{
					"internalType": "uint16",
					"name": "",
					"type": "uint16"
				}
			],
			"stateMutability": "view",
			"type": "function"
		},
		{
			"inputs": [
				{
					"components": [
						{
							"internalType": "uint32",
							"name": "srcEid",
							"type": "uint32"
						},
						{
							"internalType": "bytes32",
							"name": "sender",
							"type": "bytes32"
						},
						{
							"internalType": "uint64",
							"name": "nonce",
							"type": "uint64"
						}
					],
					"internalType": "struct Origin",
					"name": "origin",
					"type": "tuple"
				}
			],
			"name": "allowInitializePath",
			"outputs": [
				{
					"internalType": "bool",
					"name": "",
					"type": "bool"
				}
			],
			"stateMutability": "view",
			"type": "function"
		},
		{
			"inputs": [
				{
					"internalType": "address",
					"name": "owner",
					"type": "address"
				},
				{
					"internalType": "address",
					"name": "spender",
					"type": "address"
				}
			],
			"name": "allowance",
			"outputs": [
				{
					"internalType": "uint256",
					"name": "",
					"type": "uint256"
				}
			],
			"stateMutability": "view",
			"type": "function"
		},
		{
			"inputs": [
				{
					"internalType": "address",
					"name": "spender",
					"type": "address"
				},
				{
					"internalType": "uint256",
					"name": "amount",
					"type": "uint256"
				}
			],
			"name": "approve",
			"outputs": [
				{
					"internalType": "bool",
					"name": "",
					"type": "bool"
				}
			],
			"stateMutability": "nonpayable",
			"type": "function"
		},
		{
			"inputs": [
				{
					"internalType": "address",
					"name": "account",
					"type": "address"
				}
			],
			"name": "balanceOf",
			"outputs": [
				{
					"internalType": "uint256",
					"name": "",
					"type": "uint256"
				}
			],
			"stateMutability": "view",
			"type": "function"
		},
		{
			"inputs": [
				{
					"internalType": "uint32",
					"name": "_eid",
					"type": "uint32"
				},
				{
					"internalType": "uint16",
					"name": "_msgType",
					"type": "uint16"
				},
				{
					"internalType": "bytes",
					"name": "_extraOptions",
					"type": "bytes"
				}
			],
			"name": "combineOptions",
			"outputs": [
				{
					"internalType": "bytes",
					"name": "",
					"type": "bytes"
				}
			],
			"stateMutability": "view",
			"type": "function"
		},
		{
			"inputs": [],
			"name": "decimalConversionRate",
			"outputs": [
				{
					"internalType": "uint256",
					"name": "",
					"type": "uint256"
				}
			],
			"stateMutability": "view",
			"type": "function"
		},
		{
			"inputs": [],
			"name": "decimals",
			"outputs": [
				{
					"internalType": "uint8",
					"name": "",
					"type": "uint8"
				}
			],
			"stateMutability": "view",
			"type": "function"
		},
		{
			"inputs": [
				{
					"internalType": "address",
					"name": "spender",
					"type": "address"
				},
				{
					"internalType": "uint256",
					"name": "subtractedValue",
					"type": "uint256"
				}
			],
			"name": "decreaseAllowance",
			"outputs": [
				{
					"internalType": "bool",
					"name": "",
					"type": "bool"
				}
			],
			"stateMutability": "nonpayable",
			"type": "function"
		},
		{
			"inputs": [],
			"name": "endpoint",
			"outputs": [
				{
					"internalType": "contract ILayerZeroEndpointV2",
					"name": "",
					"type": "address"
				}
			],
			"stateMutability": "view",
			"type": "function"
		},
		{
			"inputs": [
				{
					"internalType": "uint32",
					"name": "eid",
					"type": "uint32"
				},
				{
					"internalType": "uint16",
					"name": "msgType",
					"type": "uint16"
				}
			],
			"name": "enforcedOptions",
			"outputs": [
				{
					"internalType": "bytes",
					"name": "enforcedOption",
					"type": "bytes"
				}
			],
			"stateMutability": "view",
			"type": "function"
		},
		{
			"inputs": [
				{
					"internalType": "address",
					"name": "spender",
					"type": "address"
				},
				{
					"internalType": "uint256",
					"name": "addedValue",
					"type": "uint256"
				}
			],
			"name": "increaseAllowance",
			"outputs": [
				{
					"internalType": "bool",
					"name": "",
					"type": "bool"
				}
			],
			"stateMutability": "nonpayable",
			"type": "function"
		},
		{
			"inputs": [
				{
					"internalType": "uint32",
					"name": "_eid",
					"type": "uint32"
				},
				{
					"internalType": "bytes32",
					"name": "_peer",
					"type": "bytes32"
				}
			],
			"name": "isPeer",
			"outputs": [
				{
					"internalType": "bool",
					"name": "",
					"type": "bool"
				}
			],
			"stateMutability": "view",
			"type": "function"
		},
		{
			"inputs": [
				{
					"components": [
						{
							"internalType": "uint32",
							"name": "srcEid",
							"type": "uint32"
						},
						{
							"internalType": "bytes32",
							"name": "sender",
							"type": "bytes32"
						},
						{
							"internalType": "uint64",
							"name": "nonce",
							"type": "uint64"
						}
					],
					"internalType": "struct Origin",
					"name": "_origin",
					"type": "tuple"
				},
				{
					"internalType": "bytes32",
					"name": "_guid",
					"type": "bytes32"
				},
				{
					"internalType": "bytes",
					"name": "_message",
					"type": "bytes"
				},
				{
					"internalType": "address",
					"name": "_executor",
					"type": "address"
				},
				{
					"internalType": "bytes",
					"name": "_extraData",
					"type": "bytes"
				}
			],
			"name": "lzReceive",
			"outputs": [],
			"stateMutability": "payable",
			"type": "function"
		},
		{
			"inputs": [
				{
					"components": [
						{
							"components": [
								{
									"internalType": "uint32",
									"name": "srcEid",
									"type": "uint32"
								},
								{
									"internalType": "bytes32",
									"name": "sender",
									"type": "bytes32"
								},
								{
									"internalType": "uint64",
									"name": "nonce",
									"type": "uint64"
								}
							],
							"internalType": "struct Origin",
							"name": "origin",
							"type": "tuple"
						},
						{
							"internalType": "uint32",
							"name": "dstEid",
							"type": "uint32"
						},
						{
							"internalType": "address",
							"name": "receiver",
							"type": "address"
						},
						{
							"internalType": "bytes32",
							"name": "guid",
							"type": "bytes32"
						},
						{
							"internalType": "uint256",
							"name": "value",
							"type": "uint256"
						},
						{
							"internalType": "address",
							"name": "executor",
							"type": "address"
						},
						{
							"internalType": "bytes",
							"name": "message",
							"type": "bytes"
						},
						{
							"internalType": "bytes",
							"name": "extraData",
							"type": "bytes"
						}
					],
					"internalType": "struct InboundPacket[]",
					"name": "_packets",
					"type": "tuple[]"
				}
			],
			"name": "lzReceiveAndRevert",
			"outputs": [],
			"stateMutability": "payable",
			"type": "function"
		},
		{
			"inputs": [
				{
					"components": [
						{
							"internalType": "uint32",
							"name": "srcEid",
							"type": "uint32"
						},
						{
							"internalType": "bytes32",
							"name": "sender",
							"type": "bytes32"
						},
						{
							"internalType": "uint64",
							"name": "nonce",
							"type": "uint64"
						}
					],
					"internalType": "struct Origin",
					"name": "_origin",
					"type": "tuple"
				},
				{
					"internalType": "bytes32",
					"name": "_guid",
					"type": "bytes32"
				},
				{
					"internalType": "bytes",
					"name": "_message",
					"type": "bytes"
				},
				{
					"internalType": "address",
					"name": "_executor",
					"type": "address"
				},
				{
					"internalType": "bytes",
					"name": "_extraData",
					"type": "bytes"
				}
			],
			"name": "lzReceiveSimulate",
			"outputs": [],
			"stateMutability": "payable",
			"type": "function"
		},
		{
			"inputs": [],
			"name": "msgInspector",
			"outputs": [
				{
					"internalType": "address",
					"name": "",
					"type": "address"
				}
			],
			"stateMutability": "view",
			"type": "function"
		},
		{
			"inputs": [],
			"name": "name",
			"outputs": [
				{
					"internalType": "string",
					"name": "",
					"type": "string"
				}
			],
			"stateMutability": "view",
			"type": "function"
		},
		{
			"inputs": [
				{
					"internalType": "uint32",
					"name": "",
					"type": "uint32"
				},
				{
					"internalType": "bytes32",
					"name": "",
					"type": "bytes32"
				}
			],
			"name": "nextNonce",
			"outputs": [
				{
					"internalType": "uint64",
					"name": "nonce",
					"type": "uint64"
				}
			],
			"stateMutability": "view",
			"type": "function"
		},
		{
			"inputs": [],
			"name": "oApp",
			"outputs": [
				{
					"internalType": "address",
					"name": "",
					"type": "address"
				}
			],
			"stateMutability": "view",
			"type": "function"
		},
		{
			"inputs": [],
			"name": "oAppVersion",
			"outputs": [
				{
					"internalType": "uint64",
					"name": "senderVersion",
					"type": "uint64"
				},
				{
					"internalType": "uint64",
					"name": "receiverVersion",
					"type": "uint64"
				}
			],
			"stateMutability": "pure",
			"type": "function"
		},
		{
			"inputs": [],
			"name": "oftVersion",
			"outputs": [
				{
					"internalType": "uint64",
					"name": "major",
					"type": "uint64"
				},
				{
					"internalType": "uint64",
					"name": "minor",
					"type": "uint64"
				}
			],
			"stateMutability": "pure",
			"type": "function"
		},
		{
			"inputs": [],
			"name": "owner",
			"outputs": [
				{
					"internalType": "address",
					"name": "",
					"type": "address"
				}
			],
			"stateMutability": "view",
			"type": "function"
		},
		{
			"inputs": [
				{
					"internalType": "uint32",
					"name": "eid",
					"type": "uint32"
				}
			],
			"name": "peers",
			"outputs": [
				{
					"internalType": "bytes32",
					"name": "peer",
					"type": "bytes32"
				}
			],
			"stateMutability": "view",
			"type": "function"
		},
		{
			"inputs": [],
			"name": "preCrime",
			"outputs": [
				{
					"internalType": "address",
					"name": "",
					"type": "address"
				}
			],
			"stateMutability": "view",
			"type": "function"
		},
		{
			"inputs": [
				{
					"components": [
						{
							"internalType": "uint32",
							"name": "dstEid",
							"type": "uint32"
						},
						{
							"internalType": "bytes32",
							"name": "to",
							"type": "bytes32"
						},
						{
							"internalType": "uint256",
							"name": "amountToSendLD",
							"type": "uint256"
						},
						{
							"internalType": "uint256",
							"name": "minAmountToCreditLD",
							"type": "uint256"
						}
					],
					"internalType": "struct SendParam",
					"name": "_sendParam",
					"type": "tuple"
				},
				{
					"internalType": "bytes",
					"name": "",
					"type": "bytes"
				}
			],
			"name": "quoteOFT",
			"outputs": [
				{
					"components": [
						{
							"internalType": "uint256",
							"name": "minAmountLD",
							"type": "uint256"
						},
						{
							"internalType": "uint256",
							"name": "maxAmountLD",
							"type": "uint256"
						}
					],
					"internalType": "struct OFTLimit",
					"name": "oftLimit",
					"type": "tuple"
				},
				{
					"components": [
						{
							"internalType": "uint256",
							"name": "feeAmountLD",
							"type": "uint256"
						},
						{
							"internalType": "string",
							"name": "description",
							"type": "string"
						}
					],
					"internalType": "struct OFTFeeDetail[]",
					"name": "oftFeeDetails",
					"type": "tuple[]"
				},
				{
					"components": [
						{
							"internalType": "uint256",
							"name": "amountDebitLD",
							"type": "uint256"
						},
						{
							"internalType": "uint256",
							"name": "amountCreditLD",
							"type": "uint256"
						}
					],
					"internalType": "struct OFTReceipt",
					"name": "oftReceipt",
					"type": "tuple"
				}
			],
			"stateMutability": "view",
			"type": "function"
		},
		{
			"inputs": [
				{
					"components": [
						{
							"internalType": "uint32",
							"name": "dstEid",
							"type": "uint32"
						},
						{
							"internalType": "bytes32",
							"name": "to",
							"type": "bytes32"
						},
						{
							"internalType": "uint256",
							"name": "amountToSendLD",
							"type": "uint256"
						},
						{
							"internalType": "uint256",
							"name": "minAmountToCreditLD",
							"type": "uint256"
						}
					],
					"internalType": "struct SendParam",
					"name": "_sendParam",
					"type": "tuple"
				},
				{
					"internalType": "bytes",
					"name": "_extraOptions",
					"type": "bytes"
				},
				{
					"internalType": "bool",
					"name": "_payInLzToken",
					"type": "bool"
				},
				{
					"internalType": "bytes",
					"name": "_composeMsg",
					"type": "bytes"
				},
				{
					"internalType": "bytes",
					"name": "",
					"type": "bytes"
				}
			],
			"name": "quoteSend",
			"outputs": [
				{
					"components": [
						{
							"internalType": "uint256",
							"name": "nativeFee",
							"type": "uint256"
						},
						{
							"internalType": "uint256",
							"name": "lzTokenFee",
							"type": "uint256"
						}
					],
					"internalType": "struct MessagingFee",
					"name": "msgFee",
					"type": "tuple"
				}
			],
			"stateMutability": "view",
			"type": "function"
		},
		{
			"inputs": [],
			"name": "renounceOwnership",
			"outputs": [],
			"stateMutability": "nonpayable",
			"type": "function"
		},
		{
			"inputs": [
				{
					"components": [
						{
							"internalType": "uint32",
							"name": "dstEid",
							"type": "uint32"
						},
						{
							"internalType": "bytes32",
							"name": "to",
							"type": "bytes32"
						},
						{
							"internalType": "uint256",
							"name": "amountToSendLD",
							"type": "uint256"
						},
						{
							"internalType": "uint256",
							"name": "minAmountToCreditLD",
							"type": "uint256"
						}
					],
					"internalType": "struct SendParam",
					"name": "_sendParam",
					"type": "tuple"
				},
				{
					"internalType": "bytes",
					"name": "_extraOptions",
					"type": "bytes"
				},
				{
					"components": [
						{
							"internalType": "uint256",
							"name": "nativeFee",
							"type": "uint256"
						},
						{
							"internalType": "uint256",
							"name": "lzTokenFee",
							"type": "uint256"
						}
					],
					"internalType": "struct MessagingFee",
					"name": "_fee",
					"type": "tuple"
				},
				{
					"internalType": "address",
					"name": "_refundAddress",
					"type": "address"
				},
				{
					"internalType": "bytes",
					"name": "_composeMsg",
					"type": "bytes"
				},
				{
					"internalType": "bytes",
					"name": "",
					"type": "bytes"
				}
			],
			"name": "send",
			"outputs": [
				{
					"components": [
						{
							"internalType": "bytes32",
							"name": "guid",
							"type": "bytes32"
						},
						{
							"internalType": "uint64",
							"name": "nonce",
							"type": "uint64"
						},
						{
							"components": [
								{
									"internalType": "uint256",
									"name": "nativeFee",
									"type": "uint256"
								},
								{
									"internalType": "uint256",
									"name": "lzTokenFee",
									"type": "uint256"
								}
							],
							"internalType": "struct MessagingFee",
							"name": "fee",
							"type": "tuple"
						}
					],
					"internalType": "struct MessagingReceipt",
					"name": "msgReceipt",
					"type": "tuple"
				},
				{
					"components": [
						{
							"internalType": "uint256",
							"name": "amountDebitLD",
							"type": "uint256"
						},
						{
							"internalType": "uint256",
							"name": "amountCreditLD",
							"type": "uint256"
						}
					],
					"internalType": "struct OFTReceipt",
					"name": "oftReceipt",
					"type": "tuple"
				}
			],
			"stateMutability": "payable",
			"type": "function"
		},
		{
			"inputs": [
				{
					"internalType": "address",
					"name": "_delegate",
					"type": "address"
				}
			],
			"name": "setDelegate",
			"outputs": [],
			"stateMutability": "nonpayable",
			"type": "function"
		},
		{
			"inputs": [
				{
					"components": [
						{
							"internalType": "uint32",
							"name": "eid",
							"type": "uint32"
						},
						{
							"internalType": "uint16",
							"name": "msgType",
							"type": "uint16"
						},
						{
							"internalType": "bytes",
							"name": "options",
							"type": "bytes"
						}
					],
					"internalType": "struct EnforcedOptionParam[]",
					"name": "_enforcedOptions",
					"type": "tuple[]"
				}
			],
			"name": "setEnforcedOptions",
			"outputs": [],
			"stateMutability": "nonpayable",
			"type": "function"
		},
		{
			"inputs": [
				{
					"internalType": "address",
					"name": "_msgInspector",
					"type": "address"
				}
			],
			"name": "setMsgInspector",
			"outputs": [],
			"stateMutability": "nonpayable",
			"type": "function"
		},
		{
			"inputs": [
				{
					"internalType": "uint32",
					"name": "_eid",
					"type": "uint32"
				},
				{
					"internalType": "bytes32",
					"name": "_peer",
					"type": "bytes32"
				}
			],
			"name": "setPeer",
			"outputs": [],
			"stateMutability": "nonpayable",
			"type": "function"
		},
		{
			"inputs": [
				{
					"internalType": "address",
					"name": "_preCrime",
					"type": "address"
				}
			],
			"name": "setPreCrime",
			"outputs": [],
			"stateMutability": "nonpayable",
			"type": "function"
		},
		{
			"inputs": [],
			"name": "sharedDecimals",
			"outputs": [
				{
					"internalType": "uint8",
					"name": "",
					"type": "uint8"
				}
			],
			"stateMutability": "pure",
			"type": "function"
		},
		{
			"inputs": [],
			"name": "symbol",
			"outputs": [
				{
					"internalType": "string",
					"name": "",
					"type": "string"
				}
			],
			"stateMutability": "view",
			"type": "function"
		},
		{
			"inputs": [],
			"name": "token",
			"outputs": [
				{
					"internalType": "address",
					"name": "",
					"type": "address"
				}
			],
			"stateMutability": "view",
			"type": "function"
		},
		{
			"inputs": [],
			"name": "totalSupply",
			"outputs": [
				{
					"internalType": "uint256",
					"name": "",
					"type": "uint256"
				}
			],
			"stateMutability": "view",
			"type": "function"
		},
		{
			"inputs": [
				{
					"internalType": "address",
					"name": "to",
					"type": "address"
				},
				{
					"internalType": "uint256",
					"name": "amount",
					"type": "uint256"
				}
			],
			"name": "transfer",
			"outputs": [
				{
					"internalType": "bool",
					"name": "",
					"type": "bool"
				}
			],
			"stateMutability": "nonpayable",
			"type": "function"
		},
		{
			"inputs": [
				{
					"internalType": "address",
					"name": "from",
					"type": "address"
				},
				{
					"internalType": "address",
					"name": "to",
					"type": "address"
				},
				{
					"internalType": "uint256",
					"name": "amount",
					"type": "uint256"
				}
			],
			"name": "transferFrom",
			"outputs": [
				{
					"internalType": "bool",
					"name": "",
					"type": "bool"
				}
			],
			"stateMutability": "nonpayable",
			"type": "function"
		},
		{
			"inputs": [
				{
					"internalType": "address",
					"name": "newOwner",
					"type": "address"
				}
			],
			"name": "transferOwnership",
			"outputs": [],
			"stateMutability": "nonpayable",
			"type": "function"
		}
	]
}