{"abi":[{"type":"constructor","inputs":[{"name":"_name","type":"string","internalType":"string"},{"name":"_symbol","type":"string","internalType":"string"},{"name":"_lzEndpoint","type":"address","internalType":"address"},{"name":"_owner","type":"address","internalType":"address"}],"stateMutability":"nonpayable"},{"type":"function","name":"SEND","inputs":[],"outputs":[{"name":"","type":"uint16","internalType":"uint16"}],"stateMutability":"view"},{"type":"function","name":"SEND_AND_CALL","inputs":[],"outputs":[{"name":"","type":"uint16","internalType":"uint16"}],"stateMutability":"view"},{"type":"function","name":"allowInitializePath","inputs":[{"name":"origin","type":"tuple","internalType":"struct Origin","components":[{"name":"srcEid","type":"uint32","internalType":"uint32"},{"name":"sender","type":"bytes32","internalType":"bytes32"},{"name":"nonce","type":"uint64","internalType":"uint64"}]}],"outputs":[{"name":"","type":"bool","internalType":"bool"}],"stateMutability":"view"},{"type":"function","name":"allowance","inputs":[{"name":"owner","type":"address","internalType":"address"},{"name":"spender","type":"address","internalType":"address"}],"outputs":[{"name":"","type":"uint256","internalType":"uint256"}],"stateMutability":"view"},{"type":"function","name":"approve","inputs":[{"name":"spender","type":"address","internalType":"address"},{"name":"amount","type":"uint256","internalType":"uint256"}],"outputs":[{"name":"","type":"bool","internalType":"bool"}],"stateMutability":"nonpayable"},{"type":"function","name":"balanceOf","inputs":[{"name":"account","type":"address","internalType":"address"}],"outputs":[{"name":"","type":"uint256","internalType":"uint256"}],"stateMutability":"view"},{"type":"function","name":"combineOptions","inputs":[{"name":"_eid","type":"uint32","internalType":"uint32"},{"name":"_msgType","type":"uint16","internalType":"uint16"},{"name":"_extraOptions","type":"bytes","internalType":"bytes"}],"outputs":[{"name":"","type":"bytes","internalType":"bytes"}],"stateMutability":"view"},{"type":"function","name":"decimalConversionRate","inputs":[],"outputs":[{"name":"","type":"uint256","internalType":"uint256"}],"stateMutability":"view"},{"type":"function","name":"decimals","inputs":[],"outputs":[{"name":"","type":"uint8","internalType":"uint8"}],"stateMutability":"view"},{"type":"function","name":"decreaseAllowance","inputs":[{"name":"spender","type":"address","internalType":"address"},{"name":"subtractedValue","type":"uint256","internalType":"uint256"}],"outputs":[{"name":"","type":"bool","internalType":"bool"}],"stateMutability":"nonpayable"},{"type":"function","name":"endpoint","inputs":[],"outputs":[{"name":"","type":"address","internalType":"contract ILayerZeroEndpointV2"}],"stateMutability":"view"},{"type":"function","name":"enforcedOptions","inputs":[{"name":"eid","type":"uint32","internalType":"uint32"},{"name":"msgType","type":"uint16","internalType":"uint16"}],"outputs":[{"name":"enforcedOption","type":"bytes","internalType":"bytes"}],"stateMutability":"view"},{"type":"function","name":"increaseAllowance","inputs":[{"name":"spender","type":"address","internalType":"address"},{"name":"addedValue","type":"uint256","internalType":"uint256"}],"outputs":[{"name":"","type":"bool","internalType":"bool"}],"stateMutability":"nonpayable"},{"type":"function","name":"isPeer","inputs":[{"name":"_eid","type":"uint32","internalType":"uint32"},{"name":"_peer","type":"bytes32","internalType":"bytes32"}],"outputs":[{"name":"","type":"bool","internalType":"bool"}],"stateMutability":"view"},{"type":"function","name":"lzReceive","inputs":[{"name":"_origin","type":"tuple","internalType":"struct Origin","components":[{"name":"srcEid","type":"uint32","internalType":"uint32"},{"name":"sender","type":"bytes32","internalType":"bytes32"},{"name":"nonce","type":"uint64","internalType":"uint64"}]},{"name":"_guid","type":"bytes32","internalType":"bytes32"},{"name":"_message","type":"bytes","internalType":"bytes"},{"name":"_executor","type":"address","internalType":"address"},{"name":"_extraData","type":"bytes","internalType":"bytes"}],"outputs":[],"stateMutability":"payable"},{"type":"function","name":"lzReceiveAndRevert","inputs":[{"name":"_packets","type":"tuple[]","internalType":"struct InboundPacket[]","components":[{"name":"origin","type":"tuple","internalType":"struct Origin","components":[{"name":"srcEid","type":"uint32","internalType":"uint32"},{"name":"sender","type":"bytes32","internalType":"bytes32"},{"name":"nonce","type":"uint64","internalType":"uint64"}]},{"name":"dstEid","type":"uint32","internalType":"uint32"},{"name":"receiver","type":"address","internalType":"address"},{"name":"guid","type":"bytes32","internalType":"bytes32"},{"name":"value","type":"uint256","internalType":"uint256"},{"name":"executor","type":"address","internalType":"address"},{"name":"message","type":"bytes","internalType":"bytes"},{"name":"extraData","type":"bytes","internalType":"bytes"}]}],"outputs":[],"stateMutability":"payable"},{"type":"function","name":"lzReceiveSimulate","inputs":[{"name":"_origin","type":"tuple","internalType":"struct Origin","components":[{"name":"srcEid","type":"uint32","internalType":"uint32"},{"name":"sender","type":"bytes32","internalType":"bytes32"},{"name":"nonce","type":"uint64","internalType":"uint64"}]},{"name":"_guid","type":"bytes32","internalType":"bytes32"},{"name":"_message","type":"bytes","internalType":"bytes"},{"name":"_executor","type":"address","internalType":"address"},{"name":"_extraData","type":"bytes","internalType":"bytes"}],"outputs":[],"stateMutability":"payable"},{"type":"function","name":"msgInspector","inputs":[],"outputs":[{"name":"","type":"address","internalType":"address"}],"stateMutability":"view"},{"type":"function","name":"name","inputs":[],"outputs":[{"name":"","type":"string","internalType":"string"}],"stateMutability":"view"},{"type":"function","name":"nextNonce","inputs":[{"name":"","type":"uint32","internalType":"uint32"},{"name":"","type":"bytes32","internalType":"bytes32"}],"outputs":[{"name":"nonce","type":"uint64","internalType":"uint64"}],"stateMutability":"view"},{"type":"function","name":"oApp","inputs":[],"outputs":[{"name":"","type":"address","internalType":"address"}],"stateMutability":"view"},{"type":"function","name":"oAppVersion","inputs":[],"outputs":[{"name":"senderVersion","type":"uint64","internalType":"uint64"},{"name":"receiverVersion","type":"uint64","internalType":"uint64"}],"stateMutability":"pure"},{"type":"function","name":"oftVersion","inputs":[],"outputs":[{"name":"major","type":"uint64","internalType":"uint64"},{"name":"minor","type":"uint64","internalType":"uint64"}],"stateMutability":"pure"},{"type":"function","name":"owner","inputs":[],"outputs":[{"name":"","type":"address","internalType":"address"}],"stateMutability":"view"},{"type":"function","name":"peers","inputs":[{"name":"eid","type":"uint32","internalType":"uint32"}],"outputs":[{"name":"peer","type":"bytes32","internalType":"bytes32"}],"stateMutability":"view"},{"type":"function","name":"preCrime","inputs":[],"outputs":[{"name":"","type":"address","internalType":"address"}],"stateMutability":"view"},{"type":"function","name":"quoteOFT","inputs":[{"name":"_sendParam","type":"tuple","internalType":"struct SendParam","components":[{"name":"dstEid","type":"uint32","internalType":"uint32"},{"name":"to","type":"bytes32","internalType":"bytes32"},{"name":"amountToSendLD","type":"uint256","internalType":"uint256"},{"name":"minAmountToCreditLD","type":"uint256","internalType":"uint256"}]},{"name":"","type":"bytes","internalType":"bytes"}],"outputs":[{"name":"oftLimit","type":"tuple","internalType":"struct OFTLimit","components":[{"name":"minAmountLD","type":"uint256","internalType":"uint256"},{"name":"maxAmountLD","type":"uint256","internalType":"uint256"}]},{"name":"oftFeeDetails","type":"tuple[]","internalType":"struct OFTFeeDetail[]","components":[{"name":"feeAmountLD","type":"uint256","internalType":"uint256"},{"name":"description","type":"string","internalType":"string"}]},{"name":"oftReceipt","type":"tuple","internalType":"struct OFTReceipt","components":[{"name":"amountDebitLD","type":"uint256","internalType":"uint256"},{"name":"amountCreditLD","type":"uint256","internalType":"uint256"}]}],"stateMutability":"view"},{"type":"function","name":"quoteSend","inputs":[{"name":"_sendParam","type":"tuple","internalType":"struct SendParam","components":[{"name":"dstEid","type":"uint32","internalType":"uint32"},{"name":"to","type":"bytes32","internalType":"bytes32"},{"name":"amountToSendLD","type":"uint256","internalType":"uint256"},{"name":"minAmountToCreditLD","type":"uint256","internalType":"uint256"}]},{"name":"_extraOptions","type":"bytes","internalType":"bytes"},{"name":"_payInLzToken","type":"bool","internalType":"bool"},{"name":"_composeMsg","type":"bytes","internalType":"bytes"},{"name":"","type":"bytes","internalType":"bytes"}],"outputs":[{"name":"msgFee","type":"tuple","internalType":"struct MessagingFee","components":[{"name":"nativeFee","type":"uint256","internalType":"uint256"},{"name":"lzTokenFee","type":"uint256","internalType":"uint256"}]}],"stateMutability":"view"},{"type":"function","name":"renounceOwnership","inputs":[],"outputs":[],"stateMutability":"nonpayable"},{"type":"function","name":"send","inputs":[{"name":"_sendParam","type":"tuple","internalType":"struct SendParam","components":[{"name":"dstEid","type":"uint32","internalType":"uint32"},{"name":"to","type":"bytes32","internalType":"bytes32"},{"name":"amountToSendLD","type":"uint256","internalType":"uint256"},{"name":"minAmountToCreditLD","type":"uint256","internalType":"uint256"}]},{"name":"_extraOptions","type":"bytes","internalType":"bytes"},{"name":"_fee","type":"tuple","internalType":"struct MessagingFee","components":[{"name":"nativeFee","type":"uint256","internalType":"uint256"},{"name":"lzTokenFee","type":"uint256","internalType":"uint256"}]},{"name":"_refundAddress","type":"address","internalType":"address"},{"name":"_composeMsg","type":"bytes","internalType":"bytes"},{"name":"","type":"bytes","internalType":"bytes"}],"outputs":[{"name":"msgReceipt","type":"tuple","internalType":"struct MessagingReceipt","components":[{"name":"guid","type":"bytes32","internalType":"bytes32"},{"name":"nonce","type":"uint64","internalType":"uint64"},{"name":"fee","type":"tuple","internalType":"struct MessagingFee","components":[{"name":"nativeFee","type":"uint256","internalType":"uint256"},{"name":"lzTokenFee","type":"uint256","internalType":"uint256"}]}]},{"name":"oftReceipt","type":"tuple","internalType":"struct OFTReceipt","components":[{"name":"amountDebitLD","type":"uint256","internalType":"uint256"},{"name":"amountCreditLD","type":"uint256","internalType":"uint256"}]}],"stateMutability":"payable"},{"type":"function","name":"setDelegate","inputs":[{"name":"_delegate","type":"address","internalType":"address"}],"outputs":[],"stateMutability":"nonpayable"},{"type":"function","name":"setEnforcedOptions","inputs":[{"name":"_enforcedOptions","type":"tuple[]","internalType":"struct EnforcedOptionParam[]","components":[{"name":"eid","type":"uint32","internalType":"uint32"},{"name":"msgType","type":"uint16","internalType":"uint16"},{"name":"options","type":"bytes","internalType":"bytes"}]}],"outputs":[],"stateMutability":"nonpayable"},{"type":"function","name":"setMsgInspector","inputs":[{"name":"_msgInspector","type":"address","internalType":"address"}],"outputs":[],"stateMutability":"nonpayable"},{"type":"function","name":"setPeer","inputs":[{"name":"_eid","type":"uint32","internalType":"uint32"},{"name":"_peer","type":"bytes32","internalType":"bytes32"}],"outputs":[],"stateMutability":"nonpayable"},{"type":"function","name":"setPreCrime","inputs":[{"name":"_preCrime","type":"address","internalType":"address"}],"outputs":[],"stateMutability":"nonpayable"},{"type":"function","name":"sharedDecimals","inputs":[],"outputs":[{"name":"","type":"uint8","internalType":"uint8"}],"stateMutability":"pure"},{"type":"function","name":"symbol","inputs":[],"outputs":[{"name":"","type":"string","internalType":"string"}],"stateMutability":"view"},{"type":"function","name":"token","inputs":[],"outputs":[{"name":"","type":"address","internalType":"address"}],"stateMutability":"view"},{"type":"function","name":"totalSupply","inputs":[],"outputs":[{"name":"","type":"uint256","internalType":"uint256"}],"stateMutability":"view"},{"type":"function","name":"transfer","inputs":[{"name":"to","type":"address","internalType":"address"},{"name":"amount","type":"uint256","internalType":"uint256"}],"outputs":[{"name":"","type":"bool","internalType":"bool"}],"stateMutability":"nonpayable"},{"type":"function","name":"transferFrom","inputs":[{"name":"from","type":"address","internalType":"address"},{"name":"to","type":"address","internalType":"address"},{"name":"amount","type":"uint256","internalType":"uint256"}],"outputs":[{"name":"","type":"bool","internalType":"bool"}],"stateMutability":"nonpayable"},{"type":"function","name":"transferOwnership","inputs":[{"name":"newOwner","type":"address","internalType":"address"}],"outputs":[],"stateMutability":"nonpayable"},{"type":"event","name":"Approval","inputs":[{"name":"owner","type":"address","indexed":true,"internalType":"address"},{"name":"spender","type":"address","indexed":true,"internalType":"address"},{"name":"value","type":"uint256","indexed":false,"internalType":"uint256"}],"anonymous":false},{"type":"event","name":"EnforcedOptionSet","inputs":[{"name":"_enforcedOptions","type":"tuple[]","indexed":false,"internalType":"struct EnforcedOptionParam[]","components":[{"name":"eid","type":"uint32","internalType":"uint32"},{"name":"msgType","type":"uint16","internalType":"uint16"},{"name":"options","type":"bytes","internalType":"bytes"}]}],"anonymous":false},{"type":"event","name":"MsgInspectorSet","inputs":[{"name":"inspector","type":"address","indexed":false,"internalType":"address"}],"anonymous":false},{"type":"event","name":"OFTReceived","inputs":[{"name":"guid","type":"bytes32","indexed":true,"internalType":"bytes32"},{"name":"toAddress","type":"address","indexed":true,"internalType":"address"},{"name":"amountToCreditLD","type":"uint256","indexed":false,"internalType":"uint256"},{"name":"amountReceivedLD","type":"uint256","indexed":false,"internalType":"uint256"}],"anonymous":false},{"type":"event","name":"OFTSent","inputs":[{"name":"guid","type":"bytes32","indexed":true,"internalType":"bytes32"},{"name":"fromAddress","type":"address","indexed":true,"internalType":"address"},{"name":"amountDebitedLD","type":"uint256","indexed":false,"internalType":"uint256"},{"name":"amountToCreditLD","type":"uint256","indexed":false,"internalType":"uint256"},{"name":"composeMsg","type":"bytes","indexed":false,"internalType":"bytes"}],"anonymous":false},{"type":"event","name":"OwnershipTransferred","inputs":[{"name":"previousOwner","type":"address","indexed":true,"internalType":"address"},{"name":"newOwner","type":"address","indexed":true,"internalType":"address"}],"anonymous":false},{"type":"event","name":"PeerSet","inputs":[{"name":"eid","type":"uint32","indexed":false,"internalType":"uint32"},{"name":"peer","type":"bytes32","indexed":false,"internalType":"bytes32"}],"anonymous":false},{"type":"event","name":"PreCrimeSet","inputs":[{"name":"preCrimeAddress","type":"address","indexed":false,"internalType":"address"}],"anonymous":false},{"type":"event","name":"Transfer","inputs":[{"name":"from","type":"address","indexed":true,"internalType":"address"},{"name":"to","type":"address","indexed":true,"internalType":"address"},{"name":"value","type":"uint256","indexed":false,"internalType":"uint256"}],"anonymous":false},{"type":"error","name":"InvalidEndpointCall","inputs":[]},{"type":"error","name":"InvalidLocalDecimals","inputs":[]},{"type":"error","name":"InvalidOptions","inputs":[{"name":"options","type":"bytes","internalType":"bytes"}]},{"type":"error","name":"LzTokenUnavailable","inputs":[]},{"type":"error","name":"NoPeer","inputs":[{"name":"eid","type":"uint32","internalType":"uint32"}]},{"type":"error","name":"NotEnoughNative","inputs":[{"name":"msgValue","type":"uint256","internalType":"uint256"}]},{"type":"error","name":"OnlyEndpoint","inputs":[{"name":"addr","type":"address","internalType":"address"}]},{"type":"error","name":"OnlyPeer","inputs":[{"name":"eid","type":"uint32","internalType":"uint32"},{"name":"sender","type":"bytes32","internalType":"bytes32"}]},{"type":"error","name":"OnlySelf","inputs":[]},{"type":"error","name":"SimulationResult","inputs":[{"name":"result","type":"bytes","internalType":"bytes"}]},{"type":"error","name":"SlippageExceeded","inputs":[{"name":"amountToCreditLD","type":"uint256","internalType":"uint256"},{"name":"minAmountToCreditLD","type":"uint256","internalType":"uint256"}]}],"bytecode":{"object":"0x60c06040523480156200001157600080fd5b506040516200457538038062004575833981016040819052620000349162000278565b8383601284848181818162000049336200013e565b62000054816200013e565b6001600160a01b03828116608081905260405163ca5eb5e160e01b815291831660048301529063ca5eb5e190602401600060405180830381600087803b1580156200009e57600080fd5b505af1158015620000b3573d6000803e3d6000fd5b5050505050505050620000cb6200018e60201b60201c565b60ff168360ff161015620000f2576040516301e9714b60e41b815260040160405180910390fd5b620000ff6006846200031d565b6200010c90600a6200043c565b60a05250600891506200012290508382620004e5565b506009620001318282620004e5565b50505050505050620005b1565b600080546001600160a01b038381166001600160a01b0319831681178455604051919092169283917f8be0079c531659141344cd1fd0a4f28419497f9722a3daafe3b4186f6b6457e09190a35050565b600690565b634e487b7160e01b600052604160045260246000fd5b600082601f830112620001bb57600080fd5b81516001600160401b0380821115620001d857620001d862000193565b604051601f8301601f19908116603f0116810190828211818310171562000203576200020362000193565b81604052838152602092508660208588010111156200022157600080fd5b600091505b8382101562000245578582018301518183018401529082019062000226565b6000602085830101528094505050505092915050565b80516001600160a01b03811681146200027357600080fd5b919050565b600080600080608085870312156200028f57600080fd5b84516001600160401b0380821115620002a757600080fd5b620002b588838901620001a9565b95506020870151915080821115620002cc57600080fd5b50620002db87828801620001a9565b935050620002ec604086016200025b565b9150620002fc606086016200025b565b905092959194509250565b634e487b7160e01b600052601160045260246000fd5b60ff828116828216039081111562000339576200033962000307565b92915050565b600181815b808511156200038057816000190482111562000364576200036462000307565b808516156200037257918102915b93841c939080029062000344565b509250929050565b600082620003995750600162000339565b81620003a85750600062000339565b8160018114620003c15760028114620003cc57620003ec565b600191505062000339565b60ff841115620003e057620003e062000307565b50506001821b62000339565b5060208310610133831016604e8410600b841016171562000411575081810a62000339565b6200041d83836200033f565b806000190482111562000434576200043462000307565b029392505050565b60006200044d60ff84168362000388565b9392505050565b600181811c908216806200046957607f821691505b6020821081036200048a57634e487b7160e01b600052602260045260246000fd5b50919050565b601f821115620004e0576000816000526020600020601f850160051c81016020861015620004bb5750805b601f850160051c820191505b81811015620004dc57828155600101620004c7565b5050505b505050565b81516001600160401b0381111562000501576200050162000193565b620005198162000512845462000454565b8462000490565b602080601f831160018114620005515760008415620005385750858301515b600019600386901b1c1916600185901b178555620004dc565b600085815260208120601f198616915b82811015620005825788860151825594840194600190910190840162000561565b5085821015620005a15787850151600019600388901b60f8161c191681555b5050505050600190811b01905550565b60805160a051613f586200061d6000396000818161069d015281816123450152818161240901526124430152600081816105610152818161096f015281816114d9015281816119b00152818161200a015281816121490152818161258f01526126880152613f586000f3fe6080604052600436106102d15760003560e01c8063715018a611610179578063bb0b6a53116100d6578063d045a0dc1161008a578063f2fde38b11610064578063f2fde38b14610881578063fc0c546a146104e5578063ff7bd03d146108a157600080fd5b8063d045a0dc146107fb578063d42438851461080e578063dd62ed3e1461082e57600080fd5b8063bd815db0116100bb578063bd815db014610799578063c1e36500146107ac578063ca5eb5e1146107db57600080fd5b8063bb0b6a531461074c578063bc70b3541461077957600080fd5b8063963efcaa1161012d578063a9059cbb11610112578063a9059cbb146106df578063b731ea0a146106ff578063b98bd0701461072c57600080fd5b8063963efcaa1461068b578063a457c2d7146106bf57600080fd5b8063857749b01161015e578063857749b0146106375780638da5cb5b1461064b57806395d89b411461067657600080fd5b8063715018a6146105e65780637d25a05e146105fb57600080fd5b8063313ce5671161023257806352ae2879116101e65780635e280f11116101c05780635e280f111461054f5780636fc1b31e1461058357806370a08231146105a357600080fd5b806352ae2879146104e55780635535d461146104f85780635a0dfe4d1461051857600080fd5b80633950935111610217578063395093511461047757806346a40f751461049757806349e46017146104c457600080fd5b8063313ce567146104355780633400288b1461045757600080fd5b8063156a0d0f1161028957806318160ddd1161026e57806318160ddd146103e15780631f5e13341461040057806323b872dd1461041557600080fd5b8063156a0d0f146103c057806317442b70146103c057600080fd5b8063111ecdad116102ba578063111ecdad1461033157806313137d6514610383578063134d4f251461039857600080fd5b806306fdde03146102d6578063095ea7b314610301575b600080fd5b3480156102e257600080fd5b506102eb6108c1565b6040516102f89190612d03565b60405180910390f35b34801561030d57600080fd5b5061032161031c366004612d48565b610953565b60405190151581526020016102f8565b34801561033d57600080fd5b5060045461035e9073ffffffffffffffffffffffffffffffffffffffff1681565b60405173ffffffffffffffffffffffffffffffffffffffff90911681526020016102f8565b610396610391366004612dce565b61096d565b005b3480156103a457600080fd5b506103ad600281565b60405161ffff90911681526020016102f8565b3480156103cc57600080fd5b506040805160018082526020820152016102f8565b3480156103ed57600080fd5b506007545b6040519081526020016102f8565b34801561040c57600080fd5b506103ad600181565b34801561042157600080fd5b50610321610430366004612e6e565b610a6c565b34801561044157600080fd5b5060125b60405160ff90911681526020016102f8565b34801561046357600080fd5b50610396610472366004612ec3565b610a92565b34801561048357600080fd5b50610321610492366004612d48565b610af0565b3480156104a357600080fd5b506104b76104b2366004612eff565b610b3c565b6040516102f89190612fc0565b6104d76104d2366004612fd7565b610bb2565b6040516102f89291906130d9565b3480156104f157600080fd5b503061035e565b34801561050457600080fd5b506102eb61051336600461313e565b610cc2565b34801561052457600080fd5b50610321610533366004612ec3565b63ffffffff919091166000908152600160205260409020541490565b34801561055b57600080fd5b5061035e7f000000000000000000000000000000000000000000000000000000000000000081565b34801561058f57600080fd5b5061039661059e366004613171565b610d67565b3480156105af57600080fd5b506103f26105be366004613171565b73ffffffffffffffffffffffffffffffffffffffff1660009081526005602052604090205490565b3480156105f257600080fd5b50610396610de9565b34801561060757600080fd5b5061061e610616366004612ec3565b600092915050565b60405167ffffffffffffffff90911681526020016102f8565b34801561064357600080fd5b506006610445565b34801561065757600080fd5b5060005473ffffffffffffffffffffffffffffffffffffffff1661035e565b34801561068257600080fd5b506102eb610dfd565b34801561069757600080fd5b506103f27f000000000000000000000000000000000000000000000000000000000000000081565b3480156106cb57600080fd5b506103216106da366004612d48565b610e0c565b3480156106eb57600080fd5b506103216106fa366004612d48565b610ee8565b34801561070b57600080fd5b5060025461035e9073ffffffffffffffffffffffffffffffffffffffff1681565b34801561073857600080fd5b506103966107473660046131d3565b610ef6565b34801561075857600080fd5b506103f2610767366004613209565b60016020526000908152604090205481565b34801561078557600080fd5b506102eb610794366004613224565b611057565b6103966107a73660046131d3565b6111eb565b3480156107b857600080fd5b506107cc6107c7366004613285565b6113b9565b6040516102f8939291906132d9565b3480156107e757600080fd5b506103966107f6366004613171565b61148c565b610396610809366004612dce565b611538565b34801561081a57600080fd5b50610396610829366004613171565b611580565b34801561083a57600080fd5b506103f2610849366004613390565b73ffffffffffffffffffffffffffffffffffffffff918216600090815260066020908152604080832093909416825291909152205490565b34801561088d57600080fd5b5061039661089c366004613171565b6115fb565b3480156108ad57600080fd5b506103216108bc3660046133c9565b6116b2565b6060600880546108d0906133e5565b80601f01602080910402602001604051908101604052809291908181526020018280546108fc906133e5565b80156109495780601f1061091e57610100808354040283529160200191610949565b820191906000526020600020905b81548152906001019060200180831161092c57829003601f168201915b5050505050905090565b6000336109618185856116e8565b60019150505b92915050565b7f000000000000000000000000000000000000000000000000000000000000000073ffffffffffffffffffffffffffffffffffffffff1633146109e3576040517f91ac5e4f0000000000000000000000000000000000000000000000000000000081523360048201526024015b60405180910390fd5b602087018035906109fd906109f8908a613209565b61189b565b14610a5457610a0f6020880188613209565b6040517fc26bebcc00000000000000000000000000000000000000000000000000000000815263ffffffff9091166004820152602088013560248201526044016109da565b610a63878787878787876118f0565b50505050505050565b600033610a7a858285611a7f565b610a85858585611b56565b60019150505b9392505050565b610a9a611dcc565b63ffffffff8216600081815260016020908152604091829020849055815192835282018390527f238399d427b947898edb290f5ff0f9109849b1c3ba196a42e35f00c50a54b98b91015b60405180910390a15050565b33600081815260066020908152604080832073ffffffffffffffffffffffffffffffffffffffff871684529091528120549091906109619082908690610b37908790613461565b6116e8565b60408051808201909152600080825260208201526000610b7160408b013560608c0135610b6c60208e018e613209565b611e4d565b915050600080610b858c8c8c8b8b88611eaa565b9092509050610ba2610b9a60208e018e613209565b83838c611ff4565b9c9b505050505050505050505050565b610bba612c4d565b6040805180820190915260008082526020820152600080610bf68d604001358e606001358f6000016020810190610bf19190613209565b6120e2565b91509150600080610c0b8f8f8f8d8d88611eaa565b91509150610c3e8f6000016020810190610c259190613209565b83838f803603810190610c3891906134cc565b8f612116565b955060405180604001604052808581526020018481525094503373ffffffffffffffffffffffffffffffffffffffff1686600001517fee6b77e8cd280835aecc97812d736c35faad222d91b12de19c7ed912e9aed71b86868e8e604051610ca89493929190613547565b60405180910390a350505050995099975050505050505050565b600360209081526000928352604080842090915290825290208054610ce6906133e5565b80601f0160208091040260200160405190810160405280929190818152602001828054610d12906133e5565b8015610d5f5780601f10610d3457610100808354040283529160200191610d5f565b820191906000526020600020905b815481529060010190602001808311610d4257829003601f168201915b505050505081565b610d6f611dcc565b600480547fffffffffffffffffffffffff00000000000000000000000000000000000000001673ffffffffffffffffffffffffffffffffffffffff83169081179091556040519081527ff0be4f1e87349231d80c36b33f9e8639658eeaf474014dee15a3e6a4d4414197906020015b60405180910390a150565b610df1611dcc565b610dfb600061222e565b565b6060600980546108d0906133e5565b33600081815260066020908152604080832073ffffffffffffffffffffffffffffffffffffffff8716845290915281205490919083811015610ed0576040517f08c379a000000000000000000000000000000000000000000000000000000000815260206004820152602560248201527f45524332303a2064656372656173656420616c6c6f77616e63652062656c6f7760448201527f207a65726f00000000000000000000000000000000000000000000000000000060648201526084016109da565b610edd82868684036116e8565b506001949350505050565b600033610961818585611b56565b610efe611dcc565b60005b8181101561102557610f43838383818110610f1e57610f1e613571565b9050602002810190610f3091906135a0565b610f3e9060408101906135de565b6122a3565b828282818110610f5557610f55613571565b9050602002810190610f6791906135a0565b610f759060408101906135de565b60036000868686818110610f8b57610f8b613571565b9050602002810190610f9d91906135a0565b610fab906020810190613209565b63ffffffff1663ffffffff1681526020019081526020016000206000868686818110610fd957610fd9613571565b9050602002810190610feb91906135a0565b610ffc906040810190602001613643565b61ffff16815260208101919091526040016000209161101c9190836136ae565b50600101610f01565b507fbe4864a8e820971c0247f5992e2da559595f7bf076a21cb5928d443d2a13b6748282604051610ae49291906137c8565b63ffffffff8416600090815260036020908152604080832061ffff8716845290915281208054606092919061108b906133e5565b80601f01602080910402602001604051908101604052809291908181526020018280546110b7906133e5565b80156111045780601f106110d957610100808354040283529160200191611104565b820191906000526020600020905b8154815290600101906020018083116110e757829003601f168201915b5050505050905080516000036111545783838080601f0160208091040260200160405190810160405280939291908181526020018383808284376000920191909152509294506111e39350505050565b60008390036111645790506111e3565b600283106111ad5761117684846122a3565b806111848460028188613906565b60405160200161119693929190613930565b6040516020818303038152906040529150506111e3565b83836040517f9a6d49cd0000000000000000000000000000000000000000000000000000000081526004016109da929190613958565b949350505050565b60005b818110156112f4573683838381811061120957611209613571565b905060200281019061121b919061396c565b905061124e61122d6020830183613209565b602083013563ffffffff919091166000908152600160205260409020541490565b61125857506112ec565b3063d045a0dc60c08301358360a08101356112776101008301836135de565b611288610100890160e08a01613171565b6112966101208a018a6135de565b6040518963ffffffff1660e01b81526004016112b897969594939291906139b6565b6000604051808303818588803b1580156112d157600080fd5b505af11580156112e5573d6000803e3d6000fd5b5050505050505b6001016111ee565b503373ffffffffffffffffffffffffffffffffffffffff16638e9e70996040518163ffffffff1660e01b8152600401600060405180830381865afa158015611340573d6000803e3d6000fd5b505050506040513d6000823e601f3d9081017fffffffffffffffffffffffffffffffffffffffffffffffffffffffffffffffe01682016040526113869190810190613a4a565b6040517f8351eea70000000000000000000000000000000000000000000000000000000081526004016109da9190612d03565b604080518082019091526000808252602082015260606113ec604051806040016040528060008152602001600081525090565b604080518082018252600080825267ffffffffffffffff602080840182905284518381529081019094529195509182611448565b6040805180820190915260008152606060208201528152602001906001900390816114205790505b50935060008061146860408b013560608c0135610b6c60208e018e613209565b604080518082019091529182526020820152969a9599509597509395505050505050565b611494611dcc565b6040517fca5eb5e100000000000000000000000000000000000000000000000000000000815273ffffffffffffffffffffffffffffffffffffffff82811660048301527f0000000000000000000000000000000000000000000000000000000000000000169063ca5eb5e190602401600060405180830381600087803b15801561151d57600080fd5b505af1158015611531573d6000803e3d6000fd5b5050505050565b333014611571576040517f14d4a4e800000000000000000000000000000000000000000000000000000000815260040160405180910390fd5b610a6387878787878787610a54565b611588611dcc565b600280547fffffffffffffffffffffffff00000000000000000000000000000000000000001673ffffffffffffffffffffffffffffffffffffffff83169081179091556040519081527fd48d879cef83a1c0bdda516f27b13ddb1b3f8bbac1c9e1511bb2a659c242776090602001610dde565b611603611dcc565b73ffffffffffffffffffffffffffffffffffffffff81166116a6576040517f08c379a000000000000000000000000000000000000000000000000000000000815260206004820152602660248201527f4f776e61626c653a206e6577206f776e657220697320746865207a65726f206160448201527f646472657373000000000000000000000000000000000000000000000000000060648201526084016109da565b6116af8161222e565b50565b60006020820180359060019083906116ca9086613209565b63ffffffff1681526020810191909152604001600020541492915050565b73ffffffffffffffffffffffffffffffffffffffff831661178a576040517f08c379a0000000000000000000000000000000000000000000000000000000008152602060048201526024808201527f45524332303a20617070726f76652066726f6d20746865207a65726f2061646460448201527f726573730000000000000000000000000000000000000000000000000000000060648201526084016109da565b73ffffffffffffffffffffffffffffffffffffffff821661182d576040517f08c379a000000000000000000000000000000000000000000000000000000000815260206004820152602260248201527f45524332303a20617070726f766520746f20746865207a65726f20616464726560448201527f737300000000000000000000000000000000000000000000000000000000000060648201526084016109da565b73ffffffffffffffffffffffffffffffffffffffff83811660008181526006602090815260408083209487168084529482529182902085905590518481527f8c5be1e5ebec7d5bd14f71427d1e84f3dd0314c0f7b2291e5b200ac8c7c3b925910160405180910390a3505050565b63ffffffff811660009081526001602052604081205480610967576040517ff6ff4fb700000000000000000000000000000000000000000000000000000000815263ffffffff841660048201526024016109da565b60006119026118ff8787612303565b90565b90506000611918611913888861231b565b61233e565b90506000611933838361192e60208e018e613209565b612374565b90506028871115611a2057600061197061195360608d0160408e01613b0a565b61196060208e018e613209565b8461196b8d8d612388565b6123d3565b6040517f7cb5901200000000000000000000000000000000000000000000000000000000815290915073ffffffffffffffffffffffffffffffffffffffff7f00000000000000000000000000000000000000000000000000000000000000001690637cb59012906119ec9087908e906000908790600401613b27565b600060405180830381600087803b158015611a0657600080fd5b505af1158015611a1a573d6000803e3d6000fd5b50505050505b604080518381526020810183905273ffffffffffffffffffffffffffffffffffffffff8516918b917f80a66cf84dc0b742c17c4672ee6687d7cb340ab0e5d367ac6b02bed1a6489f8d910160405180910390a350505050505050505050565b73ffffffffffffffffffffffffffffffffffffffff8381166000908152600660209081526040808320938616835292905220547fffffffffffffffffffffffffffffffffffffffffffffffffffffffffffffffff8114611b505781811015611b43576040517f08c379a000000000000000000000000000000000000000000000000000000000815260206004820152601d60248201527f45524332303a20696e73756666696369656e7420616c6c6f77616e636500000060448201526064016109da565b611b5084848484036116e8565b50505050565b73ffffffffffffffffffffffffffffffffffffffff8316611bf9576040517f08c379a000000000000000000000000000000000000000000000000000000000815260206004820152602560248201527f45524332303a207472616e736665722066726f6d20746865207a65726f20616460448201527f647265737300000000000000000000000000000000000000000000000000000060648201526084016109da565b73ffffffffffffffffffffffffffffffffffffffff8216611c9c576040517f08c379a000000000000000000000000000000000000000000000000000000000815260206004820152602360248201527f45524332303a207472616e7366657220746f20746865207a65726f206164647260448201527f657373000000000000000000000000000000000000000000000000000000000060648201526084016109da565b73ffffffffffffffffffffffffffffffffffffffff831660009081526005602052604090205481811015611d52576040517f08c379a000000000000000000000000000000000000000000000000000000000815260206004820152602660248201527f45524332303a207472616e7366657220616d6f756e742065786365656473206260448201527f616c616e6365000000000000000000000000000000000000000000000000000060648201526084016109da565b73ffffffffffffffffffffffffffffffffffffffff80851660008181526005602052604080822086860390559286168082529083902080548601905591517fddf252ad1be2c89b69c2b068fc378daa952ba7f163c4a11628f55a4df523b3ef90611dbf9086815260200190565b60405180910390a3611b50565b60005473ffffffffffffffffffffffffffffffffffffffff163314610dfb576040517f08c379a000000000000000000000000000000000000000000000000000000000815260206004820181905260248201527f4f776e61626c653a2063616c6c6572206973206e6f7420746865206f776e657260448201526064016109da565b600080611e5985612405565b915081905083811015611ea2576040517f71c4efed00000000000000000000000000000000000000000000000000000000815260048101829052602481018590526044016109da565b935093915050565b6060806000611efc8960200135611ec08661243c565b88888080601f01602080910402602001604051908101604052809392919081815260200183838082843760009201919091525061246892505050565b9093509050600081611f0f576001611f12565b60025b9050611f2c611f2460208c018c613209565b828b8b611057565b60045490935073ffffffffffffffffffffffffffffffffffffffff1615611fe757600480546040517f043a78eb00000000000000000000000000000000000000000000000000000000815273ffffffffffffffffffffffffffffffffffffffff9091169163043a78eb91611fa4918891889101613b66565b602060405180830381865afa158015611fc1573d6000803e3d6000fd5b505050506040513d601f19601f82011682018060405250810190611fe59190613b8b565b505b5050965096945050505050565b60408051808201909152600080825260208201527f000000000000000000000000000000000000000000000000000000000000000073ffffffffffffffffffffffffffffffffffffffff1663ddc28c586040518060a001604052808863ffffffff1681526020016120648961189b565b8152602001878152602001868152602001851515815250306040518363ffffffff1660e01b8152600401612099929190613ba8565b6040805180830381865afa1580156120b5573d6000803e3d6000fd5b505050506040513d601f19601f820116820180604052508101906120d99190613c7c565b95945050505050565b6000808415612100576120f68585856124fa565b9092509050611ea2565b61210a8484612517565b90969095509350505050565b61211e612c4d565b600061212d846000015161254a565b60208501519091501561214757612147846020015161258b565b7f000000000000000000000000000000000000000000000000000000000000000073ffffffffffffffffffffffffffffffffffffffff16632637a450826040518060a001604052808b63ffffffff1681526020016121a48c61189b565b81526020018a815260200189815260200160008960200151111515815250866040518463ffffffff1660e01b81526004016121e0929190613ba8565b60806040518083038185885af11580156121fe573d6000803e3d6000fd5b50505050506040513d601f19601f820116820180604052508101906122239190613c98565b979650505050505050565b6000805473ffffffffffffffffffffffffffffffffffffffff8381167fffffffffffffffffffffffff0000000000000000000000000000000000000000831681178455604051919092169283917f8be0079c531659141344cd1fd0a4f28419497f9722a3daafe3b4186f6b6457e09190a35050565b60006122b26002828486613906565b6122bb91613d00565b60f01c9050600381146122fe5782826040517f9a6d49cd0000000000000000000000000000000000000000000000000000000081526004016109da929190613958565b505050565b60006123126020828486613906565b610a8b91613d48565b600061232b602860208486613906565b61233491613d84565b60c01c9392505050565b60006109677f000000000000000000000000000000000000000000000000000000000000000067ffffffffffffffff8416613dca565b600061238084846126b1565b509092915050565b60606123978260288186613906565b8080601f016020809104026020016040519081016040528093929190818152602001838380828437600092019190915250929695505050505050565b6060848484846040516020016123ec9493929190613de1565b6040516020818303038152906040529050949350505050565b60007f00000000000000000000000000000000000000000000000000000000000000006124328184613e5f565b6109679190613dca565b60006109677f000000000000000000000000000000000000000000000000000000000000000083613e5f565b80516060901515806124c95784846040516020016124b592919091825260c01b7fffffffffffffffff00000000000000000000000000000000000000000000000016602082015260280190565b6040516020818303038152906040526124f0565b848433856040516020016124e09493929190613e9a565b6040516020818303038152906040525b9150935093915050565b600080612508858585611e4d565b9092509050611ea233836127a6565b306000908152600560205260408120548190612534908585611e4d565b909250905061254330836127a6565b9250929050565b6000813414612587576040517f9f7041200000000000000000000000000000000000000000000000000000000081523460048201526024016109da565b5090565b60007f000000000000000000000000000000000000000000000000000000000000000073ffffffffffffffffffffffffffffffffffffffff1663e4fe1d946040518163ffffffff1660e01b8152600401602060405180830381865afa1580156125f8573d6000803e3d6000fd5b505050506040513d601f19601f8201168201806040525081019061261c9190613ef3565b905073ffffffffffffffffffffffffffffffffffffffff811661266b576040517f5373352a00000000000000000000000000000000000000000000000000000000815260040160405180910390fd5b6126ad73ffffffffffffffffffffffffffffffffffffffff8216337f00000000000000000000000000000000000000000000000000000000000000008561296c565b5050565b73ffffffffffffffffffffffffffffffffffffffff821661272e576040517f08c379a000000000000000000000000000000000000000000000000000000000815260206004820152601f60248201527f45524332303a206d696e7420746f20746865207a65726f20616464726573730060448201526064016109da565b80600760008282546127409190613461565b909155505073ffffffffffffffffffffffffffffffffffffffff82166000818152600560209081526040808320805486019055518481527fddf252ad1be2c89b69c2b068fc378daa952ba7f163c4a11628f55a4df523b3ef910160405180910390a35050565b73ffffffffffffffffffffffffffffffffffffffff8216612849576040517f08c379a000000000000000000000000000000000000000000000000000000000815260206004820152602160248201527f45524332303a206275726e2066726f6d20746865207a65726f2061646472657360448201527f730000000000000000000000000000000000000000000000000000000000000060648201526084016109da565b73ffffffffffffffffffffffffffffffffffffffff8216600090815260056020526040902054818110156128ff576040517f08c379a000000000000000000000000000000000000000000000000000000000815260206004820152602260248201527f45524332303a206275726e20616d6f756e7420657863656564732062616c616e60448201527f636500000000000000000000000000000000000000000000000000000000000060648201526084016109da565b73ffffffffffffffffffffffffffffffffffffffff831660008181526005602090815260408083208686039055600780548790039055518581529192917fddf252ad1be2c89b69c2b068fc378daa952ba7f163c4a11628f55a4df523b3ef910160405180910390a3505050565b6040805173ffffffffffffffffffffffffffffffffffffffff8581166024830152848116604483015260648083018590528351808403909101815260849092018352602080830180517bffffffffffffffffffffffffffffffffffffffffffffffffffffffff167f23b872dd0000000000000000000000000000000000000000000000000000000017905283518085019094528084527f5361666545524332303a206c6f772d6c6576656c2063616c6c206661696c656490840152611b5092879291600091612a3f918516908490612aec565b9050805160001480612a60575080806020019051810190612a609190613b8b565b6122fe576040517f08c379a000000000000000000000000000000000000000000000000000000000815260206004820152602a60248201527f5361666545524332303a204552433230206f7065726174696f6e20646964206e60448201527f6f7420737563636565640000000000000000000000000000000000000000000060648201526084016109da565b60606111e38484600085856000808673ffffffffffffffffffffffffffffffffffffffff168587604051612b209190613f10565b60006040518083038185875af1925050503d8060008114612b5d576040519150601f19603f3d011682016040523d82523d6000602084013e612b62565b606091505b50915091506122238783838760608315612c04578251600003612bfd5773ffffffffffffffffffffffffffffffffffffffff85163b612bfd576040517f08c379a000000000000000000000000000000000000000000000000000000000815260206004820152601d60248201527f416464726573733a2063616c6c20746f206e6f6e2d636f6e747261637400000060448201526064016109da565b50816111e3565b6111e38383815115612c195781518083602001fd5b806040517f08c379a00000000000000000000000000000000000000000000000000000000081526004016109da9190612d03565b604051806060016040528060008019168152602001600067ffffffffffffffff168152602001612c90604051806040016040528060008152602001600081525090565b905290565b60005b83811015612cb0578181015183820152602001612c98565b50506000910152565b60008151808452612cd1816020860160208601612c95565b601f017fffffffffffffffffffffffffffffffffffffffffffffffffffffffffffffffe0169290920160200192915050565b602081526000610a8b6020830184612cb9565b73ffffffffffffffffffffffffffffffffffffffff811681146116af57600080fd5b8035612d4381612d16565b919050565b60008060408385031215612d5b57600080fd5b8235612d6681612d16565b946020939093013593505050565b600060608284031215612d8657600080fd5b50919050565b60008083601f840112612d9e57600080fd5b50813567ffffffffffffffff811115612db657600080fd5b60208301915083602082850101111561254357600080fd5b600080600080600080600060e0888a031215612de957600080fd5b612df38989612d74565b965060608801359550608088013567ffffffffffffffff80821115612e1757600080fd5b612e238b838c01612d8c565b909750955060a08a01359150612e3882612d16565b90935060c08901359080821115612e4e57600080fd5b50612e5b8a828b01612d8c565b989b979a50959850939692959293505050565b600080600060608486031215612e8357600080fd5b8335612e8e81612d16565b92506020840135612e9e81612d16565b929592945050506040919091013590565b803563ffffffff81168114612d4357600080fd5b60008060408385031215612ed657600080fd5b612d6683612eaf565b600060808284031215612d8657600080fd5b80151581146116af57600080fd5b600080600080600080600080610100898b031215612f1c57600080fd5b612f268a8a612edf565b9750608089013567ffffffffffffffff80821115612f4357600080fd5b612f4f8c838d01612d8c565b909950975060a08b01359150612f6482612ef1565b90955060c08a01359080821115612f7a57600080fd5b612f868c838d01612d8c565b909650945060e08b0135915080821115612f9f57600080fd5b50612fac8b828c01612d8c565b999c989b5096995094979396929594505050565b815181526020808301519082015260408101610967565b6000806000806000806000806000898b03610140811215612ff757600080fd5b6130018c8c612edf565b995060808b013567ffffffffffffffff8082111561301e57600080fd5b61302a8e838f01612d8c565b909b50995089915060407fffffffffffffffffffffffffffffffffffffffffffffffffffffffffffffff608401121561306257600080fd5b60a08d01985061307460e08e01612d38565b97506101008d013592508083111561308b57600080fd5b6130978e848f01612d8c565b90975095506101208d01359250869150808311156130b457600080fd5b50506130c28c828d01612d8c565b915080935050809150509295985092959850929598565b600060c0820190508351825267ffffffffffffffff60208501511660208301526040840151613115604084018280518252602090810151910152565b5082516080830152602083015160a0830152610a8b565b803561ffff81168114612d4357600080fd5b6000806040838503121561315157600080fd5b61315a83612eaf565b91506131686020840161312c565b90509250929050565b60006020828403121561318357600080fd5b8135610a8b81612d16565b60008083601f8401126131a057600080fd5b50813567ffffffffffffffff8111156131b857600080fd5b6020830191508360208260051b850101111561254357600080fd5b600080602083850312156131e657600080fd5b823567ffffffffffffffff8111156131fd57600080fd5b61210a8582860161318e565b60006020828403121561321b57600080fd5b610a8b82612eaf565b6000806000806060858703121561323a57600080fd5b61324385612eaf565b93506132516020860161312c565b9250604085013567ffffffffffffffff81111561326d57600080fd5b61327987828801612d8c565b95989497509550505050565b600080600060a0848603121561329a57600080fd5b6132a48585612edf565b9250608084013567ffffffffffffffff8111156132c057600080fd5b6132cc86828701612d8c565b9497909650939450505050565b8351815260208085015190820152600060a08201604060a0604085015281865180845260c08601915060c08160051b8701019350602080890160005b83811015613372578887037fffffffffffffffffffffffffffffffffffffffffffffffffffffffffffffff4001855281518051885283015183880187905261335f87890182612cb9565b9750509382019390820190600101613315565b505087516060880152505050602085015160808501525090506111e3565b600080604083850312156133a357600080fd5b82356133ae81612d16565b915060208301356133be81612d16565b809150509250929050565b6000606082840312156133db57600080fd5b610a8b8383612d74565b600181811c908216806133f957607f821691505b602082108103612d86577f4e487b7100000000000000000000000000000000000000000000000000000000600052602260045260246000fd5b7f4e487b7100000000000000000000000000000000000000000000000000000000600052601160045260246000fd5b8082018082111561096757610967613432565b7f4e487b7100000000000000000000000000000000000000000000000000000000600052604160045260246000fd5b6040805190810167ffffffffffffffff811182821017156134c6576134c6613474565b60405290565b6000604082840312156134de57600080fd5b6134e66134a3565b82358152602083013560208201528091505092915050565b8183528181602085013750600060208284010152600060207fffffffffffffffffffffffffffffffffffffffffffffffffffffffffffffffe0601f840116840101905092915050565b8481528360208201526060604082015260006135676060830184866134fe565b9695505050505050565b7f4e487b7100000000000000000000000000000000000000000000000000000000600052603260045260246000fd5b600082357fffffffffffffffffffffffffffffffffffffffffffffffffffffffffffffffa18336030181126135d457600080fd5b9190910192915050565b60008083357fffffffffffffffffffffffffffffffffffffffffffffffffffffffffffffffe184360301811261361357600080fd5b83018035915067ffffffffffffffff82111561362e57600080fd5b60200191503681900382131561254357600080fd5b60006020828403121561365557600080fd5b610a8b8261312c565b601f8211156122fe576000816000526020600020601f850160051c810160208610156136875750805b601f850160051c820191505b818110156136a657828155600101613693565b505050505050565b67ffffffffffffffff8311156136c6576136c6613474565b6136da836136d483546133e5565b8361365e565b6000601f84116001811461372c57600085156136f65750838201355b7fffffffffffffffffffffffffffffffffffffffffffffffffffffffffffffffff600387901b1c1916600186901b178355611531565b6000838152602090207fffffffffffffffffffffffffffffffffffffffffffffffffffffffffffffffe0861690835b8281101561377b578685013582556020948501946001909201910161375b565b50868210156137b6577fffffffffffffffffffffffffffffffffffffffffffffffffffffffffffffffff60f88860031b161c19848701351681555b505060018560011b0183555050505050565b60208082528181018390526000906040808401600586901b8501820187855b888110156138f8577fffffffffffffffffffffffffffffffffffffffffffffffffffffffffffffffc088840301845281357fffffffffffffffffffffffffffffffffffffffffffffffffffffffffffffffa18b360301811261384857600080fd5b8a01606063ffffffff61385a83612eaf565b16855261ffff61386b89840161312c565b1688860152868201357fffffffffffffffffffffffffffffffffffffffffffffffffffffffffffffffe18336030181126138a457600080fd5b90910187810191903567ffffffffffffffff8111156138c257600080fd5b8036038313156138d157600080fd5b81888701526138e382870182856134fe565b968901969550505091860191506001016137e7565b509098975050505050505050565b6000808585111561391657600080fd5b8386111561392357600080fd5b5050820193919092039150565b60008451613942818460208901612c95565b8201838582376000930192835250909392505050565b6020815260006111e36020830184866134fe565b600082357ffffffffffffffffffffffffffffffffffffffffffffffffffffffffffffffec18336030181126135d457600080fd5b67ffffffffffffffff811681146116af57600080fd5b63ffffffff6139c489612eaf565b16815260208801356020820152600060408901356139e1816139a0565b67ffffffffffffffff811660408401525087606083015260e06080830152613a0d60e0830187896134fe565b73ffffffffffffffffffffffffffffffffffffffff861660a084015282810360c0840152613a3c8185876134fe565b9a9950505050505050505050565b600060208284031215613a5c57600080fd5b815167ffffffffffffffff80821115613a7457600080fd5b818401915084601f830112613a8857600080fd5b815181811115613a9a57613a9a613474565b604051601f82017fffffffffffffffffffffffffffffffffffffffffffffffffffffffffffffffe0908116603f01168101908382118183101715613ae057613ae0613474565b81604052828152876020848701011115613af957600080fd5b612223836020830160208801612c95565b600060208284031215613b1c57600080fd5b8135610a8b816139a0565b73ffffffffffffffffffffffffffffffffffffffff8516815283602082015261ffff831660408201526080606082015260006135676080830184612cb9565b604081526000613b796040830185612cb9565b82810360208401526120d98185612cb9565b600060208284031215613b9d57600080fd5b8151610a8b81612ef1565b6040815263ffffffff8351166040820152602083015160608201526000604084015160a06080840152613bde60e0840182612cb9565b905060608501517fffffffffffffffffffffffffffffffffffffffffffffffffffffffffffffffc08483030160a0850152613c198282612cb9565b60809690960151151560c085015250505073ffffffffffffffffffffffffffffffffffffffff9190911660209091015290565b600060408284031215613c5e57600080fd5b613c666134a3565b9050815181526020820151602082015292915050565b600060408284031215613c8e57600080fd5b610a8b8383613c4c565b600060808284031215613caa57600080fd5b6040516060810181811067ffffffffffffffff82111715613ccd57613ccd613474565b604052825181526020830151613ce2816139a0565b6020820152613cf48460408501613c4c565b60408201529392505050565b7fffff0000000000000000000000000000000000000000000000000000000000008135818116916002851015613d405780818660020360031b1b83161692505b505092915050565b80356020831015610967577fffffffffffffffffffffffffffffffffffffffffffffffffffffffffffffffff602084900360031b1b1692915050565b7fffffffffffffffff0000000000000000000000000000000000000000000000008135818116916008851015613d405760089490940360031b84901b1690921692915050565b808202811582820484141761096757610967613432565b7fffffffffffffffff0000000000000000000000000000000000000000000000008560c01b1681527fffffffff000000000000000000000000000000000000000000000000000000008460e01b16600882015282600c82015260008251613e4f81602c850160208701612c95565b91909101602c0195945050505050565b600082613e95577f4e487b7100000000000000000000000000000000000000000000000000000000600052601260045260246000fd5b500490565b8481527fffffffffffffffff0000000000000000000000000000000000000000000000008460c01b16602082015282602882015260008251613ee3816048850160208701612c95565b9190910160480195945050505050565b600060208284031215613f0557600080fd5b8151610a8b81612d16565b600082516135d4818460208701612c9556fea2646970667358221220866160669848b671bfd6d4ea8db61009dd891d865ab6c6489febede0fd3c9be364736f6c63430008160033","linkReferences":{}},"methodIdentifiers":{"SEND()":"1f5e1334","SEND_AND_CALL()":"134d4f25","allowInitializePath((uint32,bytes32,uint64))":"ff7bd03d","allowance(address,address)":"dd62ed3e","approve(address,uint256)":"095ea7b3","balanceOf(address)":"70a08231","combineOptions(uint32,uint16,bytes)":"bc70b354","decimalConversionRate()":"963efcaa","decimals()":"313ce567","decreaseAllowance(address,uint256)":"a457c2d7","endpoint()":"5e280f11","enforcedOptions(uint32,uint16)":"5535d461","increaseAllowance(address,uint256)":"39509351","isPeer(uint32,bytes32)":"5a0dfe4d","lzReceive((uint32,bytes32,uint64),bytes32,bytes,address,bytes)":"13137d65","lzReceiveAndRevert(((uint32,bytes32,uint64),uint32,address,bytes32,uint256,address,bytes,bytes)[])":"bd815db0","lzReceiveSimulate((uint32,bytes32,uint64),bytes32,bytes,address,bytes)":"d045a0dc","msgInspector()":"111ecdad","name()":"06fdde03","nextNonce(uint32,bytes32)":"7d25a05e","oApp()":"52ae2879","oAppVersion()":"17442b70","oftVersion()":"156a0d0f","owner()":"8da5cb5b","peers(uint32)":"bb0b6a53","preCrime()":"b731ea0a","quoteOFT((uint32,bytes32,uint256,uint256),bytes)":"c1e36500","quoteSend((uint32,bytes32,uint256,uint256),bytes,bool,bytes,bytes)":"46a40f75","renounceOwnership()":"715018a6","send((uint32,bytes32,uint256,uint256),bytes,(uint256,uint256),address,bytes,bytes)":"49e46017","setDelegate(address)":"ca5eb5e1","setEnforcedOptions((uint32,uint16,bytes)[])":"b98bd070","setMsgInspector(address)":"6fc1b31e","setPeer(uint32,bytes32)":"3400288b","setPreCrime(address)":"d4243885","sharedDecimals()":"857749b0","symbol()":"95d89b41","token()":"fc0c546a","totalSupply()":"18160ddd","transfer(address,uint256)":"a9059cbb","transferFrom(address,address,uint256)":"23b872dd","transferOwnership(address)":"f2fde38b"},"id":12}